{
  "_format": "hh-sol-artifact-1",
  "contractName": "LetterBoxingv2",
  "sourceName": "contracts/LetterBoxingv2.sol",
  "abi": [
    {
      "inputs": [],
      "stateMutability": "nonpayable",
      "type": "constructor"
    },
    {
      "inputs": [],
      "name": "ERC721AddressZeroIsNotaValidOwner",
      "type": "error"
    },
    {
      "inputs": [],
      "name": "ERC721ApprovalToCurrentOwner",
      "type": "error"
    },
    {
      "inputs": [],
      "name": "ERC721ApproveCallerIsNotOwnerNorApprovedForAll",
      "type": "error"
    },
    {
      "inputs": [],
      "name": "ERC721ApproveToCaller",
      "type": "error"
    },
    {
      "inputs": [],
      "name": "ERC721ApprovedQueryForNonexistentToken",
      "type": "error"
    },
    {
      "inputs": [],
      "name": "ERC721MintToTheZeroAddress",
      "type": "error"
    },
    {
      "inputs": [],
      "name": "ERC721NotApprovedOrOwner",
      "type": "error"
    },
    {
      "inputs": [],
      "name": "ERC721OwnerQueryForNonexistentToken",
      "type": "error"
    },
    {
      "inputs": [],
      "name": "ERC721TokenAlreadyMinted",
      "type": "error"
    },
    {
      "inputs": [],
      "name": "ERC721TransferFromIncorrectOwner",
      "type": "error"
    },
    {
      "inputs": [],
      "name": "ERC721TransferToNonReceiverImplementer",
      "type": "error"
    },
    {
      "inputs": [],
      "name": "ERC721TransferToTheZeroAddress",
      "type": "error"
    },
    {
      "inputs": [],
      "name": "RMRKBadPriorityListLength",
      "type": "error"
    },
    {
      "inputs": [],
      "name": "RMRKIndexOutOfRange",
      "type": "error"
    },
    {
      "inputs": [],
      "name": "RMRKMaxPendingResourcesReached",
      "type": "error"
    },
    {
      "inputs": [],
      "name": "RMRKNoResourceMatchingId",
      "type": "error"
    },
    {
      "inputs": [],
      "name": "RMRKOnlyIssuer",
      "type": "error"
    },
    {
      "inputs": [],
      "name": "RMRKResourceAlreadyExists",
      "type": "error"
    },
    {
      "inputs": [],
      "name": "RMRKResourceNotFoundInStorage",
      "type": "error"
    },
    {
      "inputs": [],
      "name": "RMRKWriteToZero",
      "type": "error"
    },
    {
      "anonymous": false,
      "inputs": [
        {
          "indexed": true,
          "internalType": "address",
          "name": "owner",
          "type": "address"
        },
        {
          "indexed": true,
          "internalType": "address",
          "name": "approved",
          "type": "address"
        },
        {
          "indexed": true,
          "internalType": "uint256",
          "name": "tokenId",
          "type": "uint256"
        }
      ],
      "name": "Approval",
      "type": "event"
    },
    {
      "anonymous": false,
      "inputs": [
        {
          "indexed": true,
          "internalType": "address",
          "name": "owner",
          "type": "address"
        },
        {
          "indexed": true,
          "internalType": "address",
          "name": "operator",
          "type": "address"
        },
        {
          "indexed": false,
          "internalType": "bool",
          "name": "approved",
          "type": "bool"
        }
      ],
      "name": "ApprovalForAll",
      "type": "event"
    },
    {
      "anonymous": false,
      "inputs": [
        {
          "indexed": true,
          "internalType": "uint256",
          "name": "tokenId",
          "type": "uint256"
        },
        {
          "indexed": false,
          "internalType": "uint64",
          "name": "resourceId",
          "type": "uint64"
        }
      ],
      "name": "ResourceAccepted",
      "type": "event"
    },
    {
      "anonymous": false,
      "inputs": [
        {
          "indexed": true,
          "internalType": "uint256",
          "name": "tokenId",
          "type": "uint256"
        },
        {
          "indexed": false,
          "internalType": "uint64",
          "name": "resourceId",
          "type": "uint64"
        }
      ],
      "name": "ResourceAddedToToken",
      "type": "event"
    },
    {
      "anonymous": false,
      "inputs": [
        {
          "indexed": false,
          "internalType": "uint64",
          "name": "resourceId",
          "type": "uint64"
        },
        {
          "indexed": false,
          "internalType": "uint128",
          "name": "customResourceId",
          "type": "uint128"
        }
      ],
      "name": "ResourceCustomDataAdded",
      "type": "event"
    },
    {
      "anonymous": false,
      "inputs": [
        {
          "indexed": false,
          "internalType": "uint64",
          "name": "resourceId",
          "type": "uint64"
        },
        {
          "indexed": false,
          "internalType": "uint128",
          "name": "customResourceId",
          "type": "uint128"
        }
      ],
      "name": "ResourceCustomDataRemoved",
      "type": "event"
    },
    {
      "anonymous": false,
      "inputs": [
        {
          "indexed": false,
          "internalType": "uint64",
          "name": "resourceId",
          "type": "uint64"
        },
        {
          "indexed": false,
          "internalType": "uint128",
          "name": "customResourceId",
          "type": "uint128"
        }
      ],
      "name": "ResourceCustomDataSet",
      "type": "event"
    },
    {
      "anonymous": false,
      "inputs": [
        {
          "indexed": true,
          "internalType": "uint256",
          "name": "tokenId",
          "type": "uint256"
        },
        {
          "indexed": false,
          "internalType": "uint64",
          "name": "resourceId",
          "type": "uint64"
        },
        {
          "indexed": false,
          "internalType": "uint64",
          "name": "overwrites",
          "type": "uint64"
        }
      ],
      "name": "ResourceOverwriteProposed",
      "type": "event"
    },
    {
      "anonymous": false,
      "inputs": [
        {
          "indexed": true,
          "internalType": "uint256",
          "name": "tokenId",
          "type": "uint256"
        },
        {
          "indexed": false,
          "internalType": "uint64",
          "name": "overwritten",
          "type": "uint64"
        }
      ],
      "name": "ResourceOverwritten",
      "type": "event"
    },
    {
      "anonymous": false,
      "inputs": [
        {
          "indexed": true,
          "internalType": "uint256",
          "name": "tokenId",
          "type": "uint256"
        }
      ],
      "name": "ResourcePrioritySet",
      "type": "event"
    },
    {
      "anonymous": false,
      "inputs": [
        {
          "indexed": true,
          "internalType": "uint256",
          "name": "tokenId",
          "type": "uint256"
        },
        {
          "indexed": false,
          "internalType": "uint64",
          "name": "resourceId",
          "type": "uint64"
        }
      ],
      "name": "ResourceRejected",
      "type": "event"
    },
    {
      "anonymous": false,
      "inputs": [
        {
          "indexed": false,
          "internalType": "uint64",
          "name": "resourceId",
          "type": "uint64"
        }
      ],
      "name": "ResourceSet",
      "type": "event"
    },
    {
      "anonymous": false,
      "inputs": [
        {
          "indexed": true,
          "internalType": "address",
          "name": "from",
          "type": "address"
        },
        {
          "indexed": true,
          "internalType": "address",
          "name": "to",
          "type": "address"
        },
        {
          "indexed": true,
          "internalType": "uint256",
          "name": "tokenId",
          "type": "uint256"
        }
      ],
      "name": "Transfer",
      "type": "event"
    },
    {
      "inputs": [
        {
          "internalType": "uint256",
          "name": "tokenId",
          "type": "uint256"
        },
        {
          "internalType": "uint256",
          "name": "index",
          "type": "uint256"
        }
      ],
      "name": "acceptResource",
      "outputs": [],
      "stateMutability": "nonpayable",
      "type": "function"
    },
    {
      "inputs": [
        {
          "internalType": "string",
          "name": "metadataURI",
          "type": "string"
        },
        {
          "internalType": "uint128[]",
          "name": "custom",
          "type": "uint128[]"
        }
      ],
      "name": "addResourceEntry",
      "outputs": [],
      "stateMutability": "nonpayable",
      "type": "function"
    },
    {
      "inputs": [
        {
          "internalType": "uint256",
          "name": "tokenId",
          "type": "uint256"
        },
        {
          "internalType": "uint64",
          "name": "resourceId",
          "type": "uint64"
        },
        {
          "internalType": "uint64",
          "name": "overwrites",
          "type": "uint64"
        }
      ],
      "name": "addResourceToToken",
      "outputs": [],
      "stateMutability": "nonpayable",
      "type": "function"
    },
    {
      "inputs": [
        {
          "internalType": "address",
          "name": "to",
          "type": "address"
        },
        {
          "internalType": "uint256",
          "name": "tokenId",
          "type": "uint256"
        }
      ],
      "name": "approve",
      "outputs": [],
      "stateMutability": "nonpayable",
      "type": "function"
    },
    {
      "inputs": [
        {
          "internalType": "address",
          "name": "owner",
          "type": "address"
        }
      ],
      "name": "balanceOf",
      "outputs": [
        {
          "internalType": "uint256",
          "name": "",
          "type": "uint256"
        }
      ],
      "stateMutability": "view",
      "type": "function"
    },
    {
      "inputs": [],
      "name": "feeGetter",
      "outputs": [
        {
          "internalType": "uint256",
          "name": "",
          "type": "uint256"
        }
      ],
      "stateMutability": "view",
      "type": "function"
    },
    {
      "inputs": [
        {
          "internalType": "uint256",
          "name": "newMintFee_",
          "type": "uint256"
        }
      ],
      "name": "feeSetter",
      "outputs": [],
      "stateMutability": "nonpayable",
      "type": "function"
    },
    {
      "inputs": [
        {
          "internalType": "uint256",
          "name": "tokenId",
          "type": "uint256"
        }
      ],
      "name": "getActiveResourcePriorities",
      "outputs": [
        {
          "internalType": "uint16[]",
          "name": "",
          "type": "uint16[]"
        }
      ],
      "stateMutability": "view",
      "type": "function"
    },
    {
      "inputs": [
        {
          "internalType": "uint256",
          "name": "tokenId",
          "type": "uint256"
        }
      ],
      "name": "getActiveResources",
      "outputs": [
        {
          "internalType": "uint64[]",
          "name": "",
          "type": "uint64[]"
        }
      ],
      "stateMutability": "view",
      "type": "function"
    },
    {
      "inputs": [],
      "name": "getAllResources",
      "outputs": [
        {
          "internalType": "uint64[]",
          "name": "",
          "type": "uint64[]"
        }
      ],
      "stateMutability": "view",
      "type": "function"
    },
    {
      "inputs": [
        {
          "internalType": "uint256",
          "name": "tokenId",
          "type": "uint256"
        }
      ],
      "name": "getApproved",
      "outputs": [
        {
          "internalType": "address",
          "name": "",
          "type": "address"
        }
      ],
      "stateMutability": "view",
      "type": "function"
    },
    {
      "inputs": [
        {
          "internalType": "uint64",
          "name": "resourceId",
          "type": "uint64"
        },
        {
          "internalType": "uint128",
          "name": "customResourceId",
          "type": "uint128"
        }
      ],
      "name": "getCustomResourceData",
      "outputs": [
        {
          "internalType": "bytes",
          "name": "",
          "type": "bytes"
        }
      ],
      "stateMutability": "view",
      "type": "function"
    },
    {
      "inputs": [],
      "name": "getFallbackURI",
      "outputs": [
        {
          "internalType": "string",
          "name": "",
          "type": "string"
        }
      ],
      "stateMutability": "view",
      "type": "function"
    },
    {
      "inputs": [
        {
          "internalType": "uint256",
          "name": "tokenId",
          "type": "uint256"
        }
      ],
      "name": "getFullPendingResources",
      "outputs": [
        {
          "components": [
            {
              "internalType": "uint64",
              "name": "id",
              "type": "uint64"
            },
            {
              "internalType": "string",
              "name": "metadataURI",
              "type": "string"
            },
            {
              "internalType": "uint128[]",
              "name": "custom",
              "type": "uint128[]"
            }
          ],
          "internalType": "struct IRMRKMultiResource.Resource[]",
          "name": "",
          "type": "tuple[]"
        }
      ],
      "stateMutability": "view",
      "type": "function"
    },
    {
      "inputs": [
        {
          "internalType": "uint256",
          "name": "tokenId",
          "type": "uint256"
        }
      ],
      "name": "getFullResources",
      "outputs": [
        {
          "components": [
            {
              "internalType": "uint64",
              "name": "id",
              "type": "uint64"
            },
            {
              "internalType": "string",
              "name": "metadataURI",
              "type": "string"
            },
            {
              "internalType": "uint128[]",
              "name": "custom",
              "type": "uint128[]"
            }
          ],
          "internalType": "struct IRMRKMultiResource.Resource[]",
          "name": "",
          "type": "tuple[]"
        }
      ],
      "stateMutability": "view",
      "type": "function"
    },
    {
      "inputs": [],
      "name": "getIssuer",
      "outputs": [
        {
          "internalType": "address",
          "name": "",
          "type": "address"
        }
      ],
      "stateMutability": "view",
      "type": "function"
    },
    {
      "inputs": [
        {
          "internalType": "uint256",
          "name": "tokenId",
          "type": "uint256"
        },
        {
          "internalType": "uint256",
          "name": "index",
          "type": "uint256"
        }
      ],
      "name": "getPendingResObjectByIndex",
      "outputs": [
        {
          "components": [
            {
              "internalType": "uint64",
              "name": "id",
              "type": "uint64"
            },
            {
              "internalType": "string",
              "name": "metadataURI",
              "type": "string"
            },
            {
              "internalType": "uint128[]",
              "name": "custom",
              "type": "uint128[]"
            }
          ],
          "internalType": "struct IRMRKMultiResource.Resource",
          "name": "",
          "type": "tuple"
        }
      ],
      "stateMutability": "view",
      "type": "function"
    },
    {
      "inputs": [
        {
          "internalType": "uint256",
          "name": "tokenId",
          "type": "uint256"
        }
      ],
      "name": "getPendingResources",
      "outputs": [
        {
          "internalType": "uint64[]",
          "name": "",
          "type": "uint64[]"
        }
      ],
      "stateMutability": "view",
      "type": "function"
    },
    {
      "inputs": [
        {
          "internalType": "uint256",
          "name": "tokenId",
          "type": "uint256"
        },
        {
          "internalType": "uint256",
          "name": "index",
          "type": "uint256"
        }
      ],
      "name": "getResObjectByIndex",
      "outputs": [
        {
          "components": [
            {
              "internalType": "uint64",
              "name": "id",
              "type": "uint64"
            },
            {
              "internalType": "string",
              "name": "metadataURI",
              "type": "string"
            },
            {
              "internalType": "uint128[]",
              "name": "custom",
              "type": "uint128[]"
            }
          ],
          "internalType": "struct IRMRKMultiResource.Resource",
          "name": "",
          "type": "tuple"
        }
      ],
      "stateMutability": "view",
      "type": "function"
    },
    {
      "inputs": [
        {
          "internalType": "uint64",
          "name": "resourceId",
          "type": "uint64"
        }
      ],
      "name": "getResource",
      "outputs": [
        {
          "components": [
            {
              "internalType": "uint64",
              "name": "id",
              "type": "uint64"
            },
            {
              "internalType": "string",
              "name": "metadataURI",
              "type": "string"
            },
            {
              "internalType": "uint128[]",
              "name": "custom",
              "type": "uint128[]"
            }
          ],
          "internalType": "struct IRMRKMultiResource.Resource",
          "name": "",
          "type": "tuple"
        }
      ],
      "stateMutability": "view",
      "type": "function"
    },
    {
      "inputs": [
        {
          "internalType": "uint256",
          "name": "tokenId",
          "type": "uint256"
        },
        {
          "internalType": "uint64",
          "name": "resourceId",
          "type": "uint64"
        }
      ],
      "name": "getResourceOverwrites",
      "outputs": [
        {
          "internalType": "uint64",
          "name": "",
          "type": "uint64"
        }
      ],
      "stateMutability": "view",
      "type": "function"
    },
    {
      "inputs": [
        {
          "internalType": "address",
          "name": "owner",
          "type": "address"
        }
      ],
      "name": "hasStamp",
      "outputs": [
        {
          "internalType": "bool",
          "name": "",
          "type": "bool"
        }
      ],
      "stateMutability": "view",
      "type": "function"
    },
    {
      "inputs": [
        {
          "internalType": "address",
          "name": "owner",
          "type": "address"
        },
        {
          "internalType": "address",
          "name": "operator",
          "type": "address"
        }
      ],
      "name": "isApprovedForAll",
      "outputs": [
        {
          "internalType": "bool",
          "name": "",
          "type": "bool"
        }
      ],
      "stateMutability": "view",
      "type": "function"
    },
    {
      "inputs": [],
      "name": "isPaused",
      "outputs": [
        {
          "internalType": "bool",
          "name": "",
          "type": "bool"
        }
      ],
      "stateMutability": "view",
      "type": "function"
    },
    {
      "inputs": [
        {
          "internalType": "uint64",
          "name": "resourceId",
          "type": "uint64"
        }
      ],
      "name": "isTokenEnumeratedResource",
      "outputs": [
        {
          "internalType": "bool",
          "name": "",
          "type": "bool"
        }
      ],
      "stateMutability": "view",
      "type": "function"
    },
    {
      "inputs": [],
      "name": "letterboxList",
      "outputs": [
        {
          "internalType": "uint256[]",
          "name": "",
          "type": "uint256[]"
        }
      ],
      "stateMutability": "view",
      "type": "function"
    },
    {
      "inputs": [
        {
          "internalType": "uint256",
          "name": "letterboxTokenId",
          "type": "uint256"
        }
      ],
      "name": "letterboxMetadataURI",
      "outputs": [
        {
          "internalType": "string",
          "name": "",
          "type": "string"
        }
      ],
      "stateMutability": "view",
      "type": "function"
    },
    {
      "inputs": [
        {
          "internalType": "address",
          "name": "stampUser",
          "type": "address"
        },
        {
          "internalType": "uint256",
          "name": "letterboxTokenId",
          "type": "uint256"
        }
      ],
      "name": "letterboxToStamp",
      "outputs": [],
      "stateMutability": "nonpayable",
      "type": "function"
    },
    {
      "inputs": [
        {
          "internalType": "address",
          "name": "owner",
          "type": "address"
        }
      ],
      "name": "letterboxesHeldBy",
      "outputs": [
        {
          "internalType": "uint256[]",
          "name": "",
          "type": "uint256[]"
        }
      ],
      "stateMutability": "view",
      "type": "function"
    },
    {
      "inputs": [
        {
          "internalType": "address",
          "name": "to_",
          "type": "address"
        },
        {
          "internalType": "string",
          "name": "uri_",
          "type": "string"
        }
      ],
      "name": "mintLetterbox",
      "outputs": [],
      "stateMutability": "nonpayable",
      "type": "function"
    },
    {
      "inputs": [
        {
          "internalType": "address",
          "name": "to_",
          "type": "address"
        },
        {
          "internalType": "string",
          "name": "uri_",
          "type": "string"
        }
      ],
      "name": "mintStamp",
      "outputs": [],
      "stateMutability": "payable",
      "type": "function"
    },
    {
      "inputs": [],
      "name": "name",
      "outputs": [
        {
          "internalType": "string",
          "name": "",
          "type": "string"
        }
      ],
      "stateMutability": "view",
      "type": "function"
    },
    {
      "inputs": [],
      "name": "nextResourceId",
      "outputs": [
        {
          "internalType": "uint64",
          "name": "",
          "type": "uint64"
        }
      ],
      "stateMutability": "view",
      "type": "function"
    },
    {
      "inputs": [
        {
          "internalType": "uint256",
          "name": "tokenId",
          "type": "uint256"
        }
      ],
      "name": "ownerOf",
      "outputs": [
        {
          "internalType": "address",
          "name": "",
          "type": "address"
        }
      ],
      "stateMutability": "view",
      "type": "function"
    },
    {
      "inputs": [
        {
          "internalType": "bool",
          "name": "state",
          "type": "bool"
        }
      ],
      "name": "pauseContract",
      "outputs": [],
      "stateMutability": "nonpayable",
      "type": "function"
    },
    {
      "inputs": [
        {
          "internalType": "uint256",
          "name": "tokenId",
          "type": "uint256"
        }
      ],
      "name": "rejectAllResources",
      "outputs": [],
      "stateMutability": "nonpayable",
      "type": "function"
    },
    {
      "inputs": [
        {
          "internalType": "uint256",
          "name": "tokenId",
          "type": "uint256"
        },
        {
          "internalType": "uint256",
          "name": "index",
          "type": "uint256"
        }
      ],
      "name": "rejectResource",
      "outputs": [],
      "stateMutability": "nonpayable",
      "type": "function"
    },
    {
      "inputs": [
        {
          "internalType": "uint256",
          "name": "tokenId_",
          "type": "uint256"
        }
      ],
      "name": "resourceCount",
      "outputs": [
        {
          "internalType": "uint256",
          "name": "",
          "type": "uint256"
        }
      ],
      "stateMutability": "view",
      "type": "function"
    },
    {
      "inputs": [
        {
          "internalType": "address",
          "name": "from",
          "type": "address"
        },
        {
          "internalType": "address",
          "name": "to",
          "type": "address"
        },
        {
          "internalType": "uint256",
          "name": "tokenId",
          "type": "uint256"
        }
      ],
      "name": "safeTransferFrom",
      "outputs": [],
      "stateMutability": "nonpayable",
      "type": "function"
    },
    {
      "inputs": [
        {
          "internalType": "address",
          "name": "from",
          "type": "address"
        },
        {
          "internalType": "address",
          "name": "to",
          "type": "address"
        },
        {
          "internalType": "uint256",
          "name": "tokenId",
          "type": "uint256"
        },
        {
          "internalType": "bytes",
          "name": "data",
          "type": "bytes"
        }
      ],
      "name": "safeTransferFrom",
      "outputs": [],
      "stateMutability": "nonpayable",
      "type": "function"
    },
    {
      "inputs": [
        {
          "internalType": "address",
          "name": "operator",
          "type": "address"
        },
        {
          "internalType": "bool",
          "name": "approved",
          "type": "bool"
        }
      ],
      "name": "setApprovalForAll",
      "outputs": [],
      "stateMutability": "nonpayable",
      "type": "function"
    },
    {
      "inputs": [
        {
          "internalType": "address",
          "name": "issuer",
          "type": "address"
        }
      ],
      "name": "setIssuer",
      "outputs": [],
      "stateMutability": "nonpayable",
      "type": "function"
    },
    {
      "inputs": [
        {
          "internalType": "uint256",
          "name": "tokenId",
          "type": "uint256"
        },
        {
          "internalType": "uint16[]",
          "name": "priorities",
          "type": "uint16[]"
        }
      ],
      "name": "setPriority",
      "outputs": [],
      "stateMutability": "nonpayable",
      "type": "function"
    },
    {
      "inputs": [
        {
          "internalType": "address",
          "name": "owner",
          "type": "address"
        }
      ],
      "name": "stampHeldBy",
      "outputs": [
        {
          "internalType": "uint256",
          "name": "",
          "type": "uint256"
        }
      ],
      "stateMutability": "view",
      "type": "function"
    },
    {
      "inputs": [
        {
          "internalType": "address",
          "name": "owner",
          "type": "address"
        }
      ],
      "name": "stampMetadataURI",
      "outputs": [
        {
          "internalType": "string",
          "name": "",
          "type": "string"
        }
      ],
      "stateMutability": "view",
      "type": "function"
    },
    {
      "inputs": [
        {
          "internalType": "address",
          "name": "stampUser",
          "type": "address"
        },
        {
          "internalType": "uint256",
          "name": "letterboxTokenId",
          "type": "uint256"
        },
        {
          "internalType": "bool",
          "name": "accepted",
          "type": "bool"
        }
      ],
      "name": "stampToLetterbox",
      "outputs": [],
      "stateMutability": "nonpayable",
      "type": "function"
    },
    {
      "inputs": [
        {
          "internalType": "bytes4",
          "name": "interfaceId",
          "type": "bytes4"
        }
      ],
      "name": "supportsInterface",
      "outputs": [
        {
          "internalType": "bool",
          "name": "",
          "type": "bool"
        }
      ],
      "stateMutability": "view",
      "type": "function"
    },
    {
      "inputs": [],
      "name": "symbol",
      "outputs": [
        {
          "internalType": "string",
          "name": "",
          "type": "string"
        }
      ],
      "stateMutability": "view",
      "type": "function"
    },
    {
      "inputs": [
        {
          "internalType": "uint256",
          "name": "tokenId",
          "type": "uint256"
        }
      ],
      "name": "tokenURI",
      "outputs": [
        {
          "internalType": "string",
          "name": "",
          "type": "string"
        }
      ],
      "stateMutability": "view",
      "type": "function"
    },
    {
      "inputs": [
        {
          "internalType": "uint256",
          "name": "tokenId",
          "type": "uint256"
        },
        {
          "internalType": "uint256",
          "name": "index",
          "type": "uint256"
        }
      ],
      "name": "tokenURIAtIndex",
      "outputs": [
        {
          "internalType": "string",
          "name": "",
          "type": "string"
        }
      ],
      "stateMutability": "view",
      "type": "function"
    },
    {
      "inputs": [
        {
          "internalType": "uint256",
          "name": "tokenId",
          "type": "uint256"
        },
        {
          "internalType": "uint128",
          "name": "customResourceId",
          "type": "uint128"
        },
        {
          "internalType": "bytes",
          "name": "customResourceValue",
          "type": "bytes"
        }
      ],
      "name": "tokenURIForCustomValue",
      "outputs": [
        {
          "internalType": "string",
          "name": "",
          "type": "string"
        }
      ],
      "stateMutability": "view",
      "type": "function"
    },
    {
      "inputs": [
        {
          "internalType": "address",
          "name": "to",
          "type": "address"
        },
        {
          "internalType": "uint256",
          "name": "tokenId",
          "type": "uint256"
        }
      ],
      "name": "transfer",
      "outputs": [],
      "stateMutability": "nonpayable",
      "type": "function"
    },
    {
      "inputs": [
        {
          "internalType": "address",
          "name": "from",
          "type": "address"
        },
        {
          "internalType": "address",
          "name": "to",
          "type": "address"
        },
        {
          "internalType": "uint256",
          "name": "tokenId",
          "type": "uint256"
        }
      ],
      "name": "transferFrom",
      "outputs": [],
      "stateMutability": "nonpayable",
      "type": "function"
    },
    {
      "inputs": [],
      "name": "withdraw",
      "outputs": [],
      "stateMutability": "payable",
      "type": "function"
    }
  ],
  "bytecode": "0x60806040523480156200001157600080fd5b506040518060400160405280601081526020017f4e544c6574746572426f78696e675632000000000000000000000000000000008152506040518060400160405280600781526020017f4c545242587632000000000000000000000000000000000000000000000000008152508181620000a0620000946200011f60201b60201c565b6200012760201b60201c565b8160019081620000b19190620003fa565b508060029081620000c39190620003fa565b50505050506000601381905550620000e760126200016a60201b620025011760201c565b620000fe60116200016a60201b620025011760201c565b6000601460006101000a81548160ff021916908315150217905550620004e1565b600033905090565b806000806101000a81548173ffffffffffffffffffffffffffffffffffffffff021916908373ffffffffffffffffffffffffffffffffffffffff16021790555050565b6001816000016000828254019250508190555050565b600081519050919050565b7f4e487b7100000000000000000000000000000000000000000000000000000000600052604160045260246000fd5b7f4e487b7100000000000000000000000000000000000000000000000000000000600052602260045260246000fd5b600060028204905060018216806200020257607f821691505b602082108103620002185762000217620001ba565b5b50919050565b60008190508160005260206000209050919050565b60006020601f8301049050919050565b600082821b905092915050565b600060088302620002827fffffffffffffffffffffffffffffffffffffffffffffffffffffffffffffffff8262000243565b6200028e868362000243565b95508019841693508086168417925050509392505050565b6000819050919050565b6000819050919050565b6000620002db620002d5620002cf84620002a6565b620002b0565b620002a6565b9050919050565b6000819050919050565b620002f783620002ba565b6200030f6200030682620002e2565b84845462000250565b825550505050565b600090565b6200032662000317565b62000333818484620002ec565b505050565b5b818110156200035b576200034f6000826200031c565b60018101905062000339565b5050565b601f821115620003aa5762000374816200021e565b6200037f8462000233565b810160208510156200038f578190505b620003a76200039e8562000233565b83018262000338565b50505b505050565b600082821c905092915050565b6000620003cf60001984600802620003af565b1980831691505092915050565b6000620003ea8383620003bc565b9150826002028217905092915050565b620004058262000180565b67ffffffffffffffff8111156200042157620004206200018b565b5b6200042d8254620001e9565b6200043a8282856200035f565b600060209050601f8311600181146200047257600084156200045d578287015190505b620004698582620003dc565b865550620004d9565b601f19841662000482866200021e565b60005b82811015620004ac5784890151825560018201915060208501945060208101905062000485565b86831015620004cc5784890151620004c8601f891682620003bc565b8355505b6001600288020188555050505b505050505050565b615f2c80620004f16000396000f3fe6080604052600436106103355760003560e01c8063746313ea116101ab578063baace33e116100f7578063e272b89211610095578063efad29bf1161006f578063efad29bf14610cd8578063f638085c14610d03578063f64669c314610d40578063fe679c6214610d7d57610335565b8063e272b89214610c35578063e2e286af14610c5e578063e985e9c514610c9b57610335565b8063cfd71cf4116100d1578063cfd71cf414610b76578063d61fcfc514610b92578063daf3047714610bcf578063dd6433d414610c0c57610335565b8063baace33e14610ae5578063c48a424314610b10578063c87b56dd14610b3957610335565b8063a0eaec4311610164578063a8cf55641161013e578063a8cf556414610a2b578063a9059cbb14610a68578063b187bd2614610a91578063b88d4fde14610abc57610335565b8063a0eaec4314610988578063a221abf3146109c5578063a22cb46514610a0257610335565b8063746313ea146108665780637b2e40fa1461088f57806387d7e3c1146108b8578063886d5c9e146108f557806392401eb61461093257806395d89b411461095d57610335565b806332bea7c9116102855780635de1b4f7116102235780636a8d2cf3116101fd5780636a8d2cf31461078657806370a08231146107c35780637355310714610800578063739817dd1461083d57610335565b80635de1b4f7146106f35780636352211e1461071e5780636776a7ac1461075b57610335565b8063408fc2651161025f578063408fc2651461064d57806342842e0e14610676578063525564211461069f57806355cc4e57146106ca57610335565b806332bea7c9146105dd5780633b511a41146106065780633ccfd60b1461064357610335565b80630cc83235116102f257806316b1160f116102cc57806316b1160f1461051157806322835f591461053a57806323b872dd1461057757806331c57d13146105a057610335565b80630cc832351461046e5780630e906831146104ab578063135627cd146104d457610335565b806301ffc9a71461033a5780630485c7411461037757806306fdde03146103b4578063081812fc146103df578063095ea7b31461041c578063096835be14610445575b600080fd5b34801561034657600080fd5b50610361600480360381019061035c91906145e0565b610dba565b60405161036e9190614628565b60405180910390f35b34801561038357600080fd5b5061039e60048036038101906103999190614679565b610e34565b6040516103ab9190614955565b60405180910390f35b3480156103c057600080fd5b506103c9610ee1565b6040516103d691906149c1565b60405180910390f35b3480156103eb57600080fd5b5061040660048036038101906104019190614679565b610f73565b6040516104139190614a24565b60405180910390f35b34801561042857600080fd5b50610443600480360381019061043e9190614a6b565b610fef565b005b34801561045157600080fd5b5061046c60048036038101906104679190614c2d565b6110f8565b005b34801561047a57600080fd5b5061049560048036038101906104909190614679565b611111565b6040516104a29190614955565b60405180910390f35b3480156104b757600080fd5b506104d260048036038101906104cd9190614d3e565b6111be565b005b3480156104e057600080fd5b506104fb60048036038101906104f69190614679565b61125a565b6040516105089190614e58565b60405180910390f35b34801561051d57600080fd5b5061053860048036038101906105339190614a6b565b6112ed565b005b34801561054657600080fd5b50610561600480360381019061055c9190614e7a565b61136f565b60405161056e9190614f65565b60405180910390f35b34801561058357600080fd5b5061059e60048036038101906105999190614f87565b611409565b005b3480156105ac57600080fd5b506105c760048036038101906105c29190615006565b611460565b6040516105d49190614628565b60405180910390f35b3480156105e957600080fd5b5061060460048036038101906105ff919061505f565b61149e565b005b34801561061257600080fd5b5061062d60048036038101906106289190614e7a565b611512565b60405161063a91906149c1565b60405180910390f35b61064b6115a3565b005b34801561065957600080fd5b50610674600480360381019061066f9190614679565b6115f4565b005b34801561068257600080fd5b5061069d60048036038101906106989190614f87565b611606565b005b3480156106ab57600080fd5b506106b4611626565b6040516106c19190614a24565b60405180910390f35b3480156106d657600080fd5b506106f160048036038101906106ec9190614e7a565b61164f565b005b3480156106ff57600080fd5b50610708611663565b60405161071591906150c1565b60405180910390f35b34801561072a57600080fd5b5061074560048036038101906107409190614679565b61166d565b6040516107529190614a24565b60405180910390f35b34801561076757600080fd5b50610770611715565b60405161077d9190614f65565b60405180910390f35b34801561079257600080fd5b506107ad60048036038101906107a89190614679565b61176d565b6040516107ba91906149c1565b60405180910390f35b3480156107cf57600080fd5b506107ea60048036038101906107e59190614e7a565b6117a4565b6040516107f791906150c1565b60405180910390f35b34801561080c57600080fd5b5061082760048036038101906108229190614e7a565b611852565b6040516108349190614628565b60405180910390f35b34801561084957600080fd5b50610864600480360381019061085f91906150dc565b611876565b005b34801561087257600080fd5b5061088d6004803603810190610888919061520b565b611884565b005b34801561089b57600080fd5b506108b660048036038101906108b19190614679565b611900565b005b3480156108c457600080fd5b506108df60048036038101906108da9190614e7a565b611917565b6040516108ec91906150c1565b60405180910390f35b34801561090157600080fd5b5061091c60048036038101906109179190614679565b611960565b60405161092991906150c1565b60405180910390f35b34801561093e57600080fd5b50610947611973565b60405161095491906149c1565b60405180910390f35b34801561096957600080fd5b50610972611a05565b60405161097f91906149c1565b60405180910390f35b34801561099457600080fd5b506109af60048036038101906109aa9190614679565b611a97565b6040516109bc9190615332565b60405180910390f35b3480156109d157600080fd5b506109ec60048036038101906109e791906150dc565b611b36565b6040516109f991906153ab565b60405180910390f35b348015610a0e57600080fd5b50610a296004803603810190610a2491906153cd565b611b77565b005b348015610a3757600080fd5b50610a526004803603810190610a4d91906150dc565b611b8d565b604051610a5f91906153ab565b60405180910390f35b348015610a7457600080fd5b50610a8f6004803603810190610a8a9190614a6b565b611bce565b005b348015610a9d57600080fd5b50610aa6611be4565b604051610ab39190614628565b60405180910390f35b348015610ac857600080fd5b50610ae36004803603810190610ade91906154ae565b611c03565b005b348015610af157600080fd5b50610afa611c5c565b604051610b079190615332565b60405180910390f35b348015610b1c57600080fd5b50610b376004803603810190610b329190615531565b611ce8565b005b348015610b4557600080fd5b50610b606004803603810190610b5b9190614679565b611d4e565b604051610b6d91906149c1565b60405180910390f35b610b906004803603810190610b8b9190614d3e565b611d62565b005b348015610b9e57600080fd5b50610bb96004803603810190610bb49190615584565b611e67565b604051610bc691906149c1565b60405180910390f35b348015610bdb57600080fd5b50610bf66004803603810190610bf191906150dc565b61201f565b604051610c0391906149c1565b60405180910390f35b348015610c1857600080fd5b50610c336004803603810190610c2e91906150dc565b612033565b005b348015610c4157600080fd5b50610c5c6004803603810190610c5791906155f3565b61204c565b005b348015610c6a57600080fd5b50610c856004803603810190610c809190615006565b612071565b604051610c9291906153ab565b60405180910390f35b348015610ca757600080fd5b50610cc26004803603810190610cbd9190615620565b61226a565b604051610ccf9190614628565b60405180910390f35b348015610ce457600080fd5b50610ced6122fe565b604051610cfa919061566f565b60405180910390f35b348015610d0f57600080fd5b50610d2a6004803603810190610d25919061568a565b61231c565b604051610d37919061571f565b60405180910390f35b348015610d4c57600080fd5b50610d676004803603810190610d629190614679565b61240b565b604051610d749190615332565b60405180910390f35b348015610d8957600080fd5b50610da46004803603810190610d9f9190615741565b6124aa565b604051610db1919061566f565b60405180910390f35b60007fe0418d4c000000000000000000000000000000000000000000000000000000007bffffffffffffffffffffffffffffffffffffffffffffffffffffffff1916827bffffffffffffffffffffffffffffffffffffffffffffffffffffffff19161480610e2d5750610e2c82612517565b5b9050919050565b60606000600b6000848152602001908152602001600020805480602002602001604051908101604052809291908181526020018280548015610ec957602002820191906000526020600020906000905b82829054906101000a900467ffffffffffffffff1667ffffffffffffffff1681526020019060080190602082600701049283019260010382029150808411610e845790505b50505050509050610ed9816125e9565b915050919050565b606060018054610ef0906157b0565b80601f0160208091040260200160405190810160405280929190818152602001828054610f1c906157b0565b8015610f695780601f10610f3e57610100808354040283529160200191610f69565b820191906000526020600020905b815481529060010190602001808311610f4c57829003601f168201915b5050505050905090565b6000610f7e826126ab565b610fb4576040517f1a79006400000000000000000000000000000000000000000000000000000000815260040160405180910390fd5b6005600083815260200190815260200160002060009054906101000a900473ffffffffffffffffffffffffffffffffffffffff169050919050565b6000610ffa8261166d565b90508073ffffffffffffffffffffffffffffffffffffffff168373ffffffffffffffffffffffffffffffffffffffff1603611061576040517f0591db6d00000000000000000000000000000000000000000000000000000000815260040160405180910390fd5b8073ffffffffffffffffffffffffffffffffffffffff16611080612717565b73ffffffffffffffffffffffffffffffffffffffff16141580156110b257506110b0816110ab612717565b61226a565b155b156110e9576040517f982462b200000000000000000000000000000000000000000000000000000000815260040160405180910390fd5b6110f3838361271f565b505050565b81611102816127d8565b61110c8383612822565b505050565b60606000600860008481526020019081526020016000208054806020026020016040519081016040528092919081815260200182805480156111a657602002820191906000526020600020906000905b82829054906101000a900467ffffffffffffffff1667ffffffffffffffff16815260200190600801906020826007010492830192600103820291508084116111615790505b505050505090506111b6816125e9565b915050919050565b60001515601460009054906101000a900460ff16151514611214576040517f08c379a000000000000000000000000000000000000000000000000000000000815260040161120b90615853565b60405180910390fd5b600061122083836128d1565b905061122c838261290a565b6015819080600181540180825580915050600190039060005260206000200160009091909190915055505050565b6060600960008381526020019081526020016000208054806020026020016040519081016040528092919081815260200182805480156112e157602002820191906000526020600020906000905b82829054906101000a900461ffff1661ffff16815260200190600201906020826001010492830192600103820291508084116112a85790505b50505050509050919050565b60001515601460009054906101000a900460ff16151514611343576040517f08c379a000000000000000000000000000000000000000000000000000000000815260040161133a90615853565b60405180910390fd5b600061134e8261176d565b9050600061135b84611917565b905061136981836001612977565b50505050565b6060601660008373ffffffffffffffffffffffffffffffffffffffff1673ffffffffffffffffffffffffffffffffffffffff1681526020019081526020016000206000018054806020026020016040519081016040528092919081815260200182805480156113fd57602002820191906000526020600020905b8154815260200190600101908083116113e9575b50505050509050919050565b61141a611414612717565b826129e9565b611450576040517f2728a9d000000000000000000000000000000000000000000000000000000000815260040160405180910390fd5b61145b838383612abe565b505050565b6000600c60008367ffffffffffffffff1667ffffffffffffffff16815260200190815260200160002060009054906101000a900460ff169050919050565b60001515601460009054906101000a900460ff161515146114f4576040517f08c379a00000000000000000000000000000000000000000000000000000000081526004016114eb90615853565b60405180910390fd5b60006114ff84611512565b905061150c838284612977565b50505050565b60606001151561152183611852565b15150361156557600061153b61153684611917565b611111565b90508060008151811061155157611550615873565b5b60200260200101516020015191505061159e565b6040518060400160405280601881526020017f5573657220646f6573206e6f742068617665207374616d70000000000000000081525090505b919050565b6115ab612d12565b3373ffffffffffffffffffffffffffffffffffffffff166108fc479081150290604051600060405180830381858888f193505050501580156115f1573d6000803e3d6000fd5b50565b6115fc612d12565b8060138190555050565b61162183838360405180602001604052806000815250611c03565b505050565b60008060009054906101000a900473ffffffffffffffffffffffffffffffffffffffff16905090565b611657612d12565b61166081612da0565b50565b6000601354905090565b6000806003600084815260200190815260200160002060009054906101000a900473ffffffffffffffffffffffffffffffffffffffff169050600073ffffffffffffffffffffffffffffffffffffffff168173ffffffffffffffffffffffffffffffffffffffff160361170c576040517fdba0f85100000000000000000000000000000000000000000000000000000000815260040160405180910390fd5b80915050919050565b6060601580548060200260200160405190810160405280929190818152602001828054801561176357602002820191906000526020600020905b81548152602001906001019080831161174f575b5050505050905090565b6060600061177a83611111565b9050806000815181106117905761178f615873565b5b602002602001015160200151915050919050565b60008073ffffffffffffffffffffffffffffffffffffffff168273ffffffffffffffffffffffffffffffffffffffff160361180b576040517f7772286600000000000000000000000000000000000000000000000000000000815260040160405180910390fd5b600460008373ffffffffffffffffffffffffffffffffffffffff1673ffffffffffffffffffffffffffffffffffffffff168152602001908152602001600020549050919050565b60008061185e83611917565b0361186c5760009050611871565b600190505b919050565b6118808282612de3565b5050565b60001515601460009054906101000a900460ff161515146118da576040517f08c379a00000000000000000000000000000000000000000000000000000000081526004016118d190615853565b60405180910390fd5b60006118e46122fe565b90506118f18184846130c5565b6118fb6012612501565b505050565b8061190a816127d8565b611913826132e8565b5050565b6000601760008373ffffffffffffffffffffffffffffffffffffffff1673ffffffffffffffffffffffffffffffffffffffff168152602001908152602001600020549050919050565b600061196b82611111565b519050919050565b6060600f8054611982906157b0565b80601f01602080910402602001604051908101604052809291908181526020018280546119ae906157b0565b80156119fb5780601f106119d0576101008083540402835291602001916119fb565b820191906000526020600020905b8154815290600101906020018083116119de57829003601f168201915b5050505050905090565b606060028054611a14906157b0565b80601f0160208091040260200160405190810160405280929190818152602001828054611a40906157b0565b8015611a8d5780601f10611a6257610100808354040283529160200191611a8d565b820191906000526020600020905b815481529060010190602001808311611a7057829003601f168201915b5050505050905090565b606060086000838152602001908152602001600020805480602002602001604051908101604052809291908181526020018280548015611b2a57602002820191906000526020600020906000905b82829054906101000a900467ffffffffffffffff1667ffffffffffffffff1681526020019060080190602082600701049283019260010382029150808411611ae55790505b50505050509050919050565b611b3e614386565b6000611b498461240b565b8381518110611b5b57611b5a615873565b5b60200260200101519050611b6e81612071565b91505092915050565b611b89611b82612717565b8383613419565b5050565b611b95614386565b6000611ba084611a97565b8381518110611bb257611bb1615873565b5b60200260200101519050611bc581612071565b91505092915050565b611be0611bd9612717565b8383611409565b5050565b6000611bee612d12565b601460009054906101000a900460ff16905090565b611c14611c0e612717565b836129e9565b611c4a576040517f2728a9d000000000000000000000000000000000000000000000000000000000815260040160405180910390fd5b611c568484848461357c565b50505050565b6060600e805480602002602001604051908101604052809291908181526020018280548015611cde57602002820191906000526020600020906000905b82829054906101000a900467ffffffffffffffff1667ffffffffffffffff1681526020019060080190602082600701049283019260010382029150808411611c995790505b5050505050905090565b60001515601460009054906101000a900460ff16151514611d3e576040517f08c379a0000000000000000000000000000000000000000000000000000000008152600401611d3590615853565b60405180910390fd5b611d498383836135cf565b505050565b6060611d5b8260006138a1565b9050919050565b816000611d6e82611917565b14611dae576040517f08c379a0000000000000000000000000000000000000000000000000000000008152600401611da5906158ee565b60405180910390fd5b60001515601460009054906101000a900460ff16151514611e04576040517f08c379a0000000000000000000000000000000000000000000000000000000008152600401611dfb90615853565b60405180910390fd5b601354341015611e49576040517f08c379a0000000000000000000000000000000000000000000000000000000008152600401611e4090615980565b60405180910390fd5b6000611e5584846128d1565b9050611e618482613a5d565b50505050565b6060600060086000868152602001908152602001600020805480602002602001604051908101604052809291908181526020018280548015611efc57602002820191906000526020600020906000905b82829054906101000a900467ffffffffffffffff1667ffffffffffffffff1681526020019060080190602082600701049283019260010382029150808411611eb75790505b5050505050905060006008600087815260200190815260200160002080549050905060005b81811015611f87576000611f4f848381518110611f4157611f40615873565b5b60200260200101518861231c565b90508580519060200120818051906020012003611f7b57611f7088836138a1565b945050505050612018565b81600101915050611f21565b50600f8054611f95906157b0565b80601f0160208091040260200160405190810160405280929190818152602001828054611fc1906157b0565b801561200e5780601f10611fe35761010080835404028352916020019161200e565b820191906000526020600020905b815481529060010190602001808311611ff157829003601f168201915b5050505050925050505b9392505050565b606061202b83836138a1565b905092915050565b8161203d816127d8565b6120478383613aa5565b505050565b612054612d12565b80601460006101000a81548160ff02191690831515021790555050565b612079614386565b6000601060008467ffffffffffffffff1667ffffffffffffffff1681526020019081526020016000206040518060600160405290816000820160009054906101000a900467ffffffffffffffff1667ffffffffffffffff1667ffffffffffffffff1681526020016001820180546120ef906157b0565b80601f016020809104026020016040519081016040528092919081815260200182805461211b906157b0565b80156121685780601f1061213d57610100808354040283529160200191612168565b820191906000526020600020905b81548152906001019060200180831161214b57829003601f168201915b505050505081526020016002820180548060200260200160405190810160405280929190818152602001828054801561220457602002820191906000526020600020906000905b82829054906101000a90046fffffffffffffffffffffffffffffffff166fffffffffffffffffffffffffffffffff1681526020019060100190602082600f010492830192600103820291508084116121af5790505b5050505050815250509050600067ffffffffffffffff16816000015167ffffffffffffffff1603612261576040517f48e2e83700000000000000000000000000000000000000000000000000000000815260040160405180910390fd5b80915050919050565b6000600660008473ffffffffffffffffffffffffffffffffffffffff1673ffffffffffffffffffffffffffffffffffffffff16815260200190815260200160002060008373ffffffffffffffffffffffffffffffffffffffff1673ffffffffffffffffffffffffffffffffffffffff16815260200190815260200160002060009054906101000a900460ff16905092915050565b60008061231361230e6012613c49565b613c57565b90508091505090565b6060600d60008467ffffffffffffffff1667ffffffffffffffff1681526020019081526020016000206000836fffffffffffffffffffffffffffffffff166fffffffffffffffffffffffffffffffff1681526020019081526020016000208054612385906157b0565b80601f01602080910402602001604051908101604052809291908181526020018280546123b1906157b0565b80156123fe5780601f106123d3576101008083540402835291602001916123fe565b820191906000526020600020905b8154815290600101906020018083116123e157829003601f168201915b5050505050905092915050565b6060600b600083815260200190815260200160002080548060200260200160405190810160405280929190818152602001828054801561249e57602002820191906000526020600020906000905b82829054906101000a900467ffffffffffffffff1667ffffffffffffffff16815260200190600801906020826007010492830192600103820291508084116124595790505b50505050509050919050565b60006007600084815260200190815260200160002060008367ffffffffffffffff1667ffffffffffffffff16815260200190815260200160002060009054906101000a900467ffffffffffffffff16905092915050565b6001816000016000828254019250508190555050565b60007f80ac58cd000000000000000000000000000000000000000000000000000000007bffffffffffffffffffffffffffffffffffffffffffffffffffffffff1916827bffffffffffffffffffffffffffffffffffffffffffffffffffffffff191614806125e257507f01ffc9a7000000000000000000000000000000000000000000000000000000007bffffffffffffffffffffffffffffffffffffffffffffffffffffffff1916827bffffffffffffffffffffffffffffffffffffffffffffffffffffffff1916145b9050919050565b606060008251905060008167ffffffffffffffff81111561260d5761260c614ab0565b5b60405190808252806020026020018201604052801561264657816020015b612633614386565b81526020019060019003908161262b5790505b50905060005b828110156126a05761267785828151811061266a57612669615873565b5b6020026020010151612071565b82828151811061268a57612689615873565b5b602002602001018190525080600101905061264c565b508092505050919050565b60008073ffffffffffffffffffffffffffffffffffffffff166003600084815260200190815260200160002060009054906101000a900473ffffffffffffffffffffffffffffffffffffffff1673ffffffffffffffffffffffffffffffffffffffff1614159050919050565b600033905090565b816005600083815260200190815260200160002060006101000a81548173ffffffffffffffffffffffffffffffffffffffff021916908373ffffffffffffffffffffffffffffffffffffffff160217905550808273ffffffffffffffffffffffffffffffffffffffff166127928361166d565b73ffffffffffffffffffffffffffffffffffffffff167f8c5be1e5ebec7d5bd14f71427d1e84f3dd0314c0f7b2291e5b200ac8c7c3b92560405160405180910390a45050565b6127e96127e3612717565b826129e9565b61281f576040517f2728a9d000000000000000000000000000000000000000000000000000000000815260040160405180910390fd5b50565b60008151905060086000848152602001908152602001600020805490508114612877576040517f6b037c3a00000000000000000000000000000000000000000000000000000000815260040160405180910390fd5b8160096000858152602001908152602001600020908051906020019061289e9291906143b1565b50827f50a12ecfcaf26b91454fd23edbcf04185b68d6e8c7edc4e35d14392889cdf79560405160405180910390a2505050565b6000806128de6011613c49565b90506128ea8482613c61565b6128f681846001612977565b6129006011612501565b8091505092915050565b601660008373ffffffffffffffffffffffffffffffffffffffff1673ffffffffffffffffffffffffffffffffffffffff1681526020019081526020016000206000018190806001815401808255809150506001900390600052602060002001600090919091909150555050565b60006129816122fe565b9050606061298f8482611884565b61299b85836000611ce8565b60011515831515036129e25760006129b28661240b565b905060018151106129df576000600182516129cd91906159cf565b90506129d98782611876565b506129e0565b5b505b5050505050565b60006129f4826126ab565b612a2a576040517fdba0f85100000000000000000000000000000000000000000000000000000000815260040160405180910390fd5b6000612a358361166d565b90508073ffffffffffffffffffffffffffffffffffffffff168473ffffffffffffffffffffffffffffffffffffffff161480612a775750612a76818561226a565b5b80612ab557508373ffffffffffffffffffffffffffffffffffffffff16612a9d84610f73565b73ffffffffffffffffffffffffffffffffffffffff16145b91505092915050565b8273ffffffffffffffffffffffffffffffffffffffff16612ade8261166d565b73ffffffffffffffffffffffffffffffffffffffff1614612b2b576040517fe146af6f00000000000000000000000000000000000000000000000000000000815260040160405180910390fd5b600073ffffffffffffffffffffffffffffffffffffffff168273ffffffffffffffffffffffffffffffffffffffff1603612b91576040517fe3d91bfc00000000000000000000000000000000000000000000000000000000815260040160405180910390fd5b612b9c838383613c7f565b612ba760008261271f565b6001600460008573ffffffffffffffffffffffffffffffffffffffff1673ffffffffffffffffffffffffffffffffffffffff1681526020019081526020016000206000828254612bf791906159cf565b925050819055506001600460008473ffffffffffffffffffffffffffffffffffffffff1673ffffffffffffffffffffffffffffffffffffffff1681526020019081526020016000206000828254612c4e9190615a03565b92505081905550816003600083815260200190815260200160002060006101000a81548173ffffffffffffffffffffffffffffffffffffffff021916908373ffffffffffffffffffffffffffffffffffffffff160217905550808273ffffffffffffffffffffffffffffffffffffffff168473ffffffffffffffffffffffffffffffffffffffff167fddf252ad1be2c89b69c2b068fc378daa952ba7f163c4a11628f55a4df523b3ef60405160405180910390a4612d0d838383613c84565b505050565b60008054906101000a900473ffffffffffffffffffffffffffffffffffffffff1673ffffffffffffffffffffffffffffffffffffffff16612d51612717565b73ffffffffffffffffffffffffffffffffffffffff1614612d9e576040517f8251e42200000000000000000000000000000000000000000000000000000000815260040160405180910390fd5b565b806000806101000a81548173ffffffffffffffffffffffffffffffffffffffff021916908373ffffffffffffffffffffffffffffffffffffffff16021790555050565b600b6000838152602001908152602001600020805490508110612e32576040517f0757d52100000000000000000000000000000000000000000000000000000000815260040160405180910390fd5b6000600b60008481526020019081526020016000208281548110612e5957612e58615873565b5b90600052602060002090600491828204019190066008029054906101000a900467ffffffffffffffff169050612eaa82600b6000868152602001908152602001600020613c8990919063ffffffff16565b60006007600085815260200190815260200160002060008367ffffffffffffffff1667ffffffffffffffff16815260200190815260200160002060009054906101000a900467ffffffffffffffff169050600067ffffffffffffffff168167ffffffffffffffff1614612fc457612f3c8160086000878152602001908152602001600020613d7d90919063ffffffff16565b837f0c3ab9436ca1f55688a28969e7eac425945dded8cc4acf7f4e738cfa6fa1657c82604051612f6c919061566f565b60405180910390a26007600085815260200190815260200160002060008367ffffffffffffffff1667ffffffffffffffff16815260200190815260200160002060006101000a81549067ffffffffffffffff02191690555b600860008581526020019081526020016000208290806001815401808255809150506001900390600052602060002090600491828204019190066008029091909190916101000a81548167ffffffffffffffff021916908367ffffffffffffffff16021790555060096000858152602001908152602001600020600090806001815401808255809150506001900390600052602060002090601091828204019190066002029091909190916101000a81548161ffff021916908361ffff160217905550837f51e9958189f528b912f96508d6a4b68583858166eda14d580dfbd24e9a79dfdb836040516130b7919061566f565b60405180910390a250505050565b600067ffffffffffffffff168367ffffffffffffffff1603613113576040517f280d806300000000000000000000000000000000000000000000000000000000815260040160405180910390fd5b600067ffffffffffffffff16601060008567ffffffffffffffff1667ffffffffffffffff16815260200190815260200160002060000160009054906101000a900467ffffffffffffffff1667ffffffffffffffff161461319f576040517f3348dd1d00000000000000000000000000000000000000000000000000000000815260040160405180910390fd5b600060405180606001604052808567ffffffffffffffff16815260200184815260200183815250905080601060008667ffffffffffffffff1667ffffffffffffffff16815260200190815260200160002060008201518160000160006101000a81548167ffffffffffffffff021916908367ffffffffffffffff16021790555060208201518160010190816132349190615c05565b50604082015181600201908051906020019061325192919061445b565b50905050600e8490806001815401808255809150506001900390600052602060002090600491828204019190066008029091909190916101000a81548167ffffffffffffffff021916908367ffffffffffffffff1602179055507f8a5ccfca4023cda4a0a59a1bb73783f6b3ba77465537d0c8f2bef5eb2511552a846040516132da919061566f565b60405180910390a150505050565b6000600b600083815260200190815260200160002080549050905060005b818110156133bc576000600b6000858152602001908152602001600020828154811061333557613334615873565b5b90600052602060002090600491828204019190066008029054906101000a900467ffffffffffffffff1690506007600085815260200190815260200160002060008267ffffffffffffffff1667ffffffffffffffff16815260200190815260200160002060006101000a81549067ffffffffffffffff021916905581600101915050613306565b50600b600083815260200190815260200160002060006133dc919061452f565b817f8d0cdca57de6b2fb4babd8b68c83db0b0981610d338eb68eea1f4b1e1d78dc1c600060405161340d919061566f565b60405180910390a25050565b8173ffffffffffffffffffffffffffffffffffffffff168373ffffffffffffffffffffffffffffffffffffffff160361347e576040517f2dee66e400000000000000000000000000000000000000000000000000000000815260040160405180910390fd5b80600660008573ffffffffffffffffffffffffffffffffffffffff1673ffffffffffffffffffffffffffffffffffffffff16815260200190815260200160002060008473ffffffffffffffffffffffffffffffffffffffff1673ffffffffffffffffffffffffffffffffffffffff16815260200190815260200160002060006101000a81548160ff0219169083151502179055508173ffffffffffffffffffffffffffffffffffffffff168373ffffffffffffffffffffffffffffffffffffffff167f17307eab39ab6107e8899845ad3d59bd9653f200f220920489ca2b5937696c318360405161356f9190614628565b60405180910390a3505050565b613587848484612abe565b61359384848484613e6c565b6135c9576040517fbcb5663700000000000000000000000000000000000000000000000000000000815260040160405180910390fd5b50505050565b600a600084815260200190815260200160002060008367ffffffffffffffff1667ffffffffffffffff16815260200190815260200160002060009054906101000a900460ff161561364c576040517f3348dd1d00000000000000000000000000000000000000000000000000000000815260040160405180910390fd5b600067ffffffffffffffff1661366183612071565b6000015167ffffffffffffffff16036136a6576040517f0f8f451500000000000000000000000000000000000000000000000000000000815260040160405180910390fd5b6080600b600085815260200190815260200160002080549050106136f6576040517fdfaea09b00000000000000000000000000000000000000000000000000000000815260040160405180910390fd5b6001600a600085815260200190815260200160002060008467ffffffffffffffff1667ffffffffffffffff16815260200190815260200160002060006101000a81548160ff021916908315150217905550600b60008481526020019081526020016000208290806001815401808255809150506001900390600052602060002090600491828204019190066008029091909190916101000a81548167ffffffffffffffff021916908367ffffffffffffffff160217905550600067ffffffffffffffff168167ffffffffffffffff161461386457806007600085815260200190815260200160002060008467ffffffffffffffff1667ffffffffffffffff16815260200190815260200160002060006101000a81548167ffffffffffffffff021916908367ffffffffffffffff160217905550827fe76caab2912f68cd628bc085e006c86b8a478d13be698638b0c533030d120b4e838360405161385b929190615cd7565b60405180910390a25b827ffc4d0a03f3026d7ce3427493c9289ea9768a6edd425e854cea7600d244ecc2c383604051613894919061566f565b60405180910390a2505050565b606081600860008581526020019081526020016000208054905011156139c95760006008600085815260200190815260200160002083815481106138e8576138e7615873565b5b90600052602060002090600491828204019190066008029054906101000a900467ffffffffffffffff1690506060600061392183612071565b9050600c60008467ffffffffffffffff1667ffffffffffffffff16815260200190815260200160002060009054906101000a900460ff1661396857806020015191506139be565b600081602001519050600081511161398f57604051806020016040528060008152506139ba565b8061399988613fea565b6040516020016139aa929190615d3c565b6040516020818303038152906040525b9250505b819350505050613a57565b600f80546139d6906157b0565b80601f0160208091040260200160405190810160405280929190818152602001828054613a02906157b0565b8015613a4f5780601f10613a2457610100808354040283529160200191613a4f565b820191906000526020600020905b815481529060010190602001808311613a3257829003601f168201915b505050505090505b92915050565b80601760008473ffffffffffffffffffffffffffffffffffffffff1673ffffffffffffffffffffffffffffffffffffffff168152602001908152602001600020819055505050565b600b6000838152602001908152602001600020805490508110613af4576040517f0757d52100000000000000000000000000000000000000000000000000000000815260040160405180910390fd5b6000600b60008481526020019081526020016000208281548110613b1b57613b1a615873565b5b90600052602060002090600491828204019190066008029054906101000a900467ffffffffffffffff169050613b6c82600b6000868152602001908152602001600020613c8990919063ffffffff16565b6000600a600085815260200190815260200160002060008367ffffffffffffffff1667ffffffffffffffff16815260200190815260200160002060006101000a81548160ff0219169083151502179055506007600084815260200190815260200160002060008267ffffffffffffffff1667ffffffffffffffff16815260200190815260200160002060006101000a81549067ffffffffffffffff0219169055827f8d0cdca57de6b2fb4babd8b68c83db0b0981610d338eb68eea1f4b1e1d78dc1c82604051613c3c919061566f565b60405180910390a2505050565b600081600001549050919050565b6000819050919050565b613c7b82826040518060200160405280600081525061414a565b5050565b505050565b505050565b81805490508110613c9957600080fd5b8160018380549050613cab91906159cf565b81548110613cbc57613cbb615873565b5b90600052602060002090600491828204019190066008029054906101000a900467ffffffffffffffff16828281548110613cf957613cf8615873565b5b90600052602060002090600491828204019190066008026101000a81548167ffffffffffffffff021916908367ffffffffffffffff16021790555081805480613d4557613d44615d60565b5b60019003818190600052602060002090600491828204019190066008026101000a81549067ffffffffffffffff021916905590555050565b600082805480602002602001604051908101604052809291908181526020018280548015613dfe57602002820191906000526020600020906000905b82829054906101000a900467ffffffffffffffff1667ffffffffffffffff1681526020019060080190602082600701049283019260010382029150808411613db95790505b5050505050905060008151905060005b81811015613e65578367ffffffffffffffff16838281518110613e3457613e33615873565b5b602002602001015167ffffffffffffffff1603613e5a57613e558582613c89565b613e65565b806001019050613e0e565b5050505050565b6000613e8d8473ffffffffffffffffffffffffffffffffffffffff1661419c565b15613fdd578373ffffffffffffffffffffffffffffffffffffffff1663150b7a02613eb6612717565b8786866040518563ffffffff1660e01b8152600401613ed89493929190615d8f565b6020604051808303816000875af1925050508015613f1457506040513d601f19601f82011682018060405250810190613f119190615df0565b60015b613f8d573d8060008114613f44576040519150601f19603f3d011682016040523d82523d6000602084013e613f49565b606091505b506000815103613f85576040517fbcb5663700000000000000000000000000000000000000000000000000000000815260040160405180910390fd5b805181602001fd5b63150b7a0260e01b7bffffffffffffffffffffffffffffffffffffffffffffffffffffffff1916817bffffffffffffffffffffffffffffffffffffffffffffffffffffffff191614915050613fe2565b600190505b949350505050565b606060008203614031576040518060400160405280600181526020017f30000000000000000000000000000000000000000000000000000000000000008152509050614145565b600082905060005b6000821461406357808061404c90615e1d565b915050600a8261405c9190615e94565b9150614039565b60008167ffffffffffffffff81111561407f5761407e614ab0565b5b6040519080825280601f01601f1916602001820160405280156140b15781602001600182028036833780820191505090505b5090505b6000851461413e576001826140ca91906159cf565b9150600a856140d99190615ec5565b60306140e59190615a03565b60f81b8183815181106140fb576140fa615873565b5b60200101907effffffffffffffffffffffffffffffffffffffffffffffffffffffffffffff1916908160001a905350600a856141379190615e94565b94506140b5565b8093505050505b919050565b61415483836141bf565b6141616000848484613e6c565b614197576040517fbcb5663700000000000000000000000000000000000000000000000000000000815260040160405180910390fd5b505050565b6000808273ffffffffffffffffffffffffffffffffffffffff163b119050919050565b600073ffffffffffffffffffffffffffffffffffffffff168273ffffffffffffffffffffffffffffffffffffffff1603614225576040517f25bd6bd300000000000000000000000000000000000000000000000000000000815260040160405180910390fd5b61422e816126ab565b15614265576040517fc5a8d37100000000000000000000000000000000000000000000000000000000815260040160405180910390fd5b61427160008383613c7f565b6001600460008473ffffffffffffffffffffffffffffffffffffffff1673ffffffffffffffffffffffffffffffffffffffff16815260200190815260200160002060008282546142c19190615a03565b92505081905550816003600083815260200190815260200160002060006101000a81548173ffffffffffffffffffffffffffffffffffffffff021916908373ffffffffffffffffffffffffffffffffffffffff160217905550808273ffffffffffffffffffffffffffffffffffffffff16600073ffffffffffffffffffffffffffffffffffffffff167fddf252ad1be2c89b69c2b068fc378daa952ba7f163c4a11628f55a4df523b3ef60405160405180910390a461438260008383613c84565b5050565b6040518060600160405280600067ffffffffffffffff16815260200160608152602001606081525090565b82805482825590600052602060002090600f0160109004810192821561444a5791602002820160005b8382111561441a57835183826101000a81548161ffff021916908361ffff16021790555092602001926002016020816001010492830192600103026143da565b80156144485782816101000a81549061ffff021916905560020160208160010104928301926001030261441a565b505b5090506144579190614557565b5090565b8280548282559060005260206000209060010160029004810192821561451e5791602002820160005b838211156144e057835183826101000a8154816fffffffffffffffffffffffffffffffff02191690836fffffffffffffffffffffffffffffffff1602179055509260200192601001602081600f01049283019260010302614484565b801561451c5782816101000a8154906fffffffffffffffffffffffffffffffff0219169055601001602081600f010492830192600103026144e0565b505b50905061452b9190614557565b5090565b5080546000825560030160049004906000526020600020908101906145549190614557565b50565b5b80821115614570576000816000905550600101614558565b5090565b6000604051905090565b600080fd5b600080fd5b60007fffffffff0000000000000000000000000000000000000000000000000000000082169050919050565b6145bd81614588565b81146145c857600080fd5b50565b6000813590506145da816145b4565b92915050565b6000602082840312156145f6576145f561457e565b5b6000614604848285016145cb565b91505092915050565b60008115159050919050565b6146228161460d565b82525050565b600060208201905061463d6000830184614619565b92915050565b6000819050919050565b61465681614643565b811461466157600080fd5b50565b6000813590506146738161464d565b92915050565b60006020828403121561468f5761468e61457e565b5b600061469d84828501614664565b91505092915050565b600081519050919050565b600082825260208201905092915050565b6000819050602082019050919050565b600067ffffffffffffffff82169050919050565b6146ef816146d2565b82525050565b600081519050919050565b600082825260208201905092915050565b60005b8381101561472f578082015181840152602081019050614714565b8381111561473e576000848401525b50505050565b6000601f19601f8301169050919050565b6000614760826146f5565b61476a8185614700565b935061477a818560208601614711565b61478381614744565b840191505092915050565b600081519050919050565b600082825260208201905092915050565b6000819050602082019050919050565b60006fffffffffffffffffffffffffffffffff82169050919050565b6147df816147ba565b82525050565b60006147f183836147d6565b60208301905092915050565b6000602082019050919050565b60006148158261478e565b61481f8185614799565b935061482a836147aa565b8060005b8381101561485b57815161484288826147e5565b975061484d836147fd565b92505060018101905061482e565b5085935050505092915050565b600060608301600083015161488060008601826146e6565b50602083015184820360208601526148988282614755565b915050604083015184820360408601526148b2828261480a565b9150508091505092915050565b60006148cb8383614868565b905092915050565b6000602082019050919050565b60006148eb826146a6565b6148f581856146b1565b935083602082028501614907856146c2565b8060005b85811015614943578484038952815161492485826148bf565b945061492f836148d3565b925060208a0199505060018101905061490b565b50829750879550505050505092915050565b6000602082019050818103600083015261496f81846148e0565b905092915050565b600082825260208201905092915050565b6000614993826146f5565b61499d8185614977565b93506149ad818560208601614711565b6149b681614744565b840191505092915050565b600060208201905081810360008301526149db8184614988565b905092915050565b600073ffffffffffffffffffffffffffffffffffffffff82169050919050565b6000614a0e826149e3565b9050919050565b614a1e81614a03565b82525050565b6000602082019050614a396000830184614a15565b92915050565b614a4881614a03565b8114614a5357600080fd5b50565b600081359050614a6581614a3f565b92915050565b60008060408385031215614a8257614a8161457e565b5b6000614a9085828601614a56565b9250506020614aa185828601614664565b9150509250929050565b600080fd5b7f4e487b7100000000000000000000000000000000000000000000000000000000600052604160045260246000fd5b614ae882614744565b810181811067ffffffffffffffff82111715614b0757614b06614ab0565b5b80604052505050565b6000614b1a614574565b9050614b268282614adf565b919050565b600067ffffffffffffffff821115614b4657614b45614ab0565b5b602082029050602081019050919050565b600080fd5b600061ffff82169050919050565b614b7381614b5c565b8114614b7e57600080fd5b50565b600081359050614b9081614b6a565b92915050565b6000614ba9614ba484614b2b565b614b10565b90508083825260208201905060208402830185811115614bcc57614bcb614b57565b5b835b81811015614bf55780614be18882614b81565b845260208401935050602081019050614bce565b5050509392505050565b600082601f830112614c1457614c13614aab565b5b8135614c24848260208601614b96565b91505092915050565b60008060408385031215614c4457614c4361457e565b5b6000614c5285828601614664565b925050602083013567ffffffffffffffff811115614c7357614c72614583565b5b614c7f85828601614bff565b9150509250929050565b600080fd5b600067ffffffffffffffff821115614ca957614ca8614ab0565b5b614cb282614744565b9050602081019050919050565b82818337600083830152505050565b6000614ce1614cdc84614c8e565b614b10565b905082815260208101848484011115614cfd57614cfc614c89565b5b614d08848285614cbf565b509392505050565b600082601f830112614d2557614d24614aab565b5b8135614d35848260208601614cce565b91505092915050565b60008060408385031215614d5557614d5461457e565b5b6000614d6385828601614a56565b925050602083013567ffffffffffffffff811115614d8457614d83614583565b5b614d9085828601614d10565b9150509250929050565b600081519050919050565b600082825260208201905092915050565b6000819050602082019050919050565b614dcf81614b5c565b82525050565b6000614de18383614dc6565b60208301905092915050565b6000602082019050919050565b6000614e0582614d9a565b614e0f8185614da5565b9350614e1a83614db6565b8060005b83811015614e4b578151614e328882614dd5565b9750614e3d83614ded565b925050600181019050614e1e565b5085935050505092915050565b60006020820190508181036000830152614e728184614dfa565b905092915050565b600060208284031215614e9057614e8f61457e565b5b6000614e9e84828501614a56565b91505092915050565b600081519050919050565b600082825260208201905092915050565b6000819050602082019050919050565b614edc81614643565b82525050565b6000614eee8383614ed3565b60208301905092915050565b6000602082019050919050565b6000614f1282614ea7565b614f1c8185614eb2565b9350614f2783614ec3565b8060005b83811015614f58578151614f3f8882614ee2565b9750614f4a83614efa565b925050600181019050614f2b565b5085935050505092915050565b60006020820190508181036000830152614f7f8184614f07565b905092915050565b600080600060608486031215614fa057614f9f61457e565b5b6000614fae86828701614a56565b9350506020614fbf86828701614a56565b9250506040614fd086828701614664565b9150509250925092565b614fe3816146d2565b8114614fee57600080fd5b50565b60008135905061500081614fda565b92915050565b60006020828403121561501c5761501b61457e565b5b600061502a84828501614ff1565b91505092915050565b61503c8161460d565b811461504757600080fd5b50565b60008135905061505981615033565b92915050565b6000806000606084860312156150785761507761457e565b5b600061508686828701614a56565b935050602061509786828701614664565b92505060406150a88682870161504a565b9150509250925092565b6150bb81614643565b82525050565b60006020820190506150d660008301846150b2565b92915050565b600080604083850312156150f3576150f261457e565b5b600061510185828601614664565b925050602061511285828601614664565b9150509250929050565b600067ffffffffffffffff82111561513757615136614ab0565b5b602082029050602081019050919050565b615151816147ba565b811461515c57600080fd5b50565b60008135905061516e81615148565b92915050565b60006151876151828461511c565b614b10565b905080838252602082019050602084028301858111156151aa576151a9614b57565b5b835b818110156151d357806151bf888261515f565b8452602084019350506020810190506151ac565b5050509392505050565b600082601f8301126151f2576151f1614aab565b5b8135615202848260208601615174565b91505092915050565b600080604083850312156152225761522161457e565b5b600083013567ffffffffffffffff8111156152405761523f614583565b5b61524c85828601614d10565b925050602083013567ffffffffffffffff81111561526d5761526c614583565b5b615279858286016151dd565b9150509250929050565b600081519050919050565b600082825260208201905092915050565b6000819050602082019050919050565b60006152bb83836146e6565b60208301905092915050565b6000602082019050919050565b60006152df82615283565b6152e9818561528e565b93506152f48361529f565b8060005b8381101561532557815161530c88826152af565b9750615317836152c7565b9250506001810190506152f8565b5085935050505092915050565b6000602082019050818103600083015261534c81846152d4565b905092915050565b600060608301600083015161536c60008601826146e6565b50602083015184820360208601526153848282614755565b9150506040830151848203604086015261539e828261480a565b9150508091505092915050565b600060208201905081810360008301526153c58184615354565b905092915050565b600080604083850312156153e4576153e361457e565b5b60006153f285828601614a56565b92505060206154038582860161504a565b9150509250929050565b600067ffffffffffffffff82111561542857615427614ab0565b5b61543182614744565b9050602081019050919050565b600061545161544c8461540d565b614b10565b90508281526020810184848401111561546d5761546c614c89565b5b615478848285614cbf565b509392505050565b600082601f83011261549557615494614aab565b5b81356154a584826020860161543e565b91505092915050565b600080600080608085870312156154c8576154c761457e565b5b60006154d687828801614a56565b94505060206154e787828801614a56565b93505060406154f887828801614664565b925050606085013567ffffffffffffffff81111561551957615518614583565b5b61552587828801615480565b91505092959194509250565b60008060006060848603121561554a5761554961457e565b5b600061555886828701614664565b935050602061556986828701614ff1565b925050604061557a86828701614ff1565b9150509250925092565b60008060006060848603121561559d5761559c61457e565b5b60006155ab86828701614664565b93505060206155bc8682870161515f565b925050604084013567ffffffffffffffff8111156155dd576155dc614583565b5b6155e986828701615480565b9150509250925092565b6000602082840312156156095761560861457e565b5b60006156178482850161504a565b91505092915050565b600080604083850312156156375761563661457e565b5b600061564585828601614a56565b925050602061565685828601614a56565b9150509250929050565b615669816146d2565b82525050565b60006020820190506156846000830184615660565b92915050565b600080604083850312156156a1576156a061457e565b5b60006156af85828601614ff1565b92505060206156c08582860161515f565b9150509250929050565b600081519050919050565b600082825260208201905092915050565b60006156f1826156ca565b6156fb81856156d5565b935061570b818560208601614711565b61571481614744565b840191505092915050565b6000602082019050818103600083015261573981846156e6565b905092915050565b600080604083850312156157585761575761457e565b5b600061576685828601614664565b925050602061577785828601614ff1565b9150509250929050565b7f4e487b7100000000000000000000000000000000000000000000000000000000600052602260045260246000fd5b600060028204905060018216806157c857607f821691505b6020821081036157db576157da615781565b5b50919050565b7f6e6f206d696e74696e67206973207065726d697474656420617420746869732060008201527f74696d6500000000000000000000000000000000000000000000000000000000602082015250565b600061583d602483614977565b9150615848826157e1565b604082019050919050565b6000602082019050818103600083015261586c81615830565b9050919050565b7f4e487b7100000000000000000000000000000000000000000000000000000000600052603260045260246000fd5b7f4f6e6c79206f6e65207374616d70207065722061646472657373000000000000600082015250565b60006158d8601a83614977565b91506158e3826158a2565b602082019050919050565b60006020820190508181036000830152615907816158cb565b9050919050565b7f496e73756666696369656e742066756e64732073656e7420776974682074726160008201527f6e73616374696f6e000000000000000000000000000000000000000000000000602082015250565b600061596a602883614977565b91506159758261590e565b604082019050919050565b600060208201905081810360008301526159998161595d565b9050919050565b7f4e487b7100000000000000000000000000000000000000000000000000000000600052601160045260246000fd5b60006159da82614643565b91506159e583614643565b9250828210156159f8576159f76159a0565b5b828203905092915050565b6000615a0e82614643565b9150615a1983614643565b9250827fffffffffffffffffffffffffffffffffffffffffffffffffffffffffffffffff03821115615a4e57615a4d6159a0565b5b828201905092915050565b60008190508160005260206000209050919050565b60006020601f8301049050919050565b600082821b905092915050565b600060088302615abb7fffffffffffffffffffffffffffffffffffffffffffffffffffffffffffffffff82615a7e565b615ac58683615a7e565b95508019841693508086168417925050509392505050565b6000819050919050565b6000615b02615afd615af884614643565b615add565b614643565b9050919050565b6000819050919050565b615b1c83615ae7565b615b30615b2882615b09565b848454615a8b565b825550505050565b600090565b615b45615b38565b615b50818484615b13565b505050565b5b81811015615b7457615b69600082615b3d565b600181019050615b56565b5050565b601f821115615bb957615b8a81615a59565b615b9384615a6e565b81016020851015615ba2578190505b615bb6615bae85615a6e565b830182615b55565b50505b505050565b600082821c905092915050565b6000615bdc60001984600802615bbe565b1980831691505092915050565b6000615bf58383615bcb565b9150826002028217905092915050565b615c0e826146f5565b67ffffffffffffffff811115615c2757615c26614ab0565b5b615c3182546157b0565b615c3c828285615b78565b600060209050601f831160018114615c6f5760008415615c5d578287015190505b615c678582615be9565b865550615ccf565b601f198416615c7d86615a59565b60005b82811015615ca557848901518255600182019150602085019450602081019050615c80565b86831015615cc25784890151615cbe601f891682615bcb565b8355505b6001600288020188555050505b505050505050565b6000604082019050615cec6000830185615660565b615cf96020830184615660565b9392505050565b600081905092915050565b6000615d16826146f5565b615d208185615d00565b9350615d30818560208601614711565b80840191505092915050565b6000615d488285615d0b565b9150615d548284615d0b565b91508190509392505050565b7f4e487b7100000000000000000000000000000000000000000000000000000000600052603160045260246000fd5b6000608082019050615da46000830187614a15565b615db16020830186614a15565b615dbe60408301856150b2565b8181036060830152615dd081846156e6565b905095945050505050565b600081519050615dea816145b4565b92915050565b600060208284031215615e0657615e0561457e565b5b6000615e1484828501615ddb565b91505092915050565b6000615e2882614643565b91507fffffffffffffffffffffffffffffffffffffffffffffffffffffffffffffffff8203615e5a57615e596159a0565b5b600182019050919050565b7f4e487b7100000000000000000000000000000000000000000000000000000000600052601260045260246000fd5b6000615e9f82614643565b9150615eaa83614643565b925082615eba57615eb9615e65565b5b828204905092915050565b6000615ed082614643565b9150615edb83614643565b925082615eeb57615eea615e65565b5b82820690509291505056fea2646970667358221220629c7b5a58d64da288db5cbc0762c2507ea6abec57be5cd98c196152dcbb871f64736f6c634300080f0033",
  "linkReferences": {},
  "deployedLinkReferences": {}
}