{
  "_format": "hh-sol-artifact-1",
  "contractName": "LetterboxV3",
  "sourceName": "contracts/LetterboxV3-1.sol",
  "abi": [
    {
      "inputs": [
        {
          "internalType": "string",
          "name": "name",
          "type": "string"
        },
        {
          "internalType": "string",
          "name": "symbol",
          "type": "string"
        }
      ],
      "stateMutability": "nonpayable",
      "type": "constructor"
    },
    {
      "inputs": [],
      "name": "ERC721AddressZeroIsNotaValidOwner",
      "type": "error"
    },
    {
      "inputs": [],
      "name": "ERC721ApprovalToCurrentOwner",
      "type": "error"
    },
    {
      "inputs": [],
      "name": "ERC721ApproveCallerIsNotOwnerNorApprovedForAll",
      "type": "error"
    },
    {
      "inputs": [],
      "name": "ERC721ApproveToCaller",
      "type": "error"
    },
    {
      "inputs": [],
      "name": "ERC721InvalidTokenId",
      "type": "error"
    },
    {
      "inputs": [],
      "name": "ERC721MintToTheZeroAddress",
      "type": "error"
    },
    {
      "inputs": [],
      "name": "ERC721NotApprovedOrOwner",
      "type": "error"
    },
    {
      "inputs": [],
      "name": "ERC721TokenAlreadyMinted",
      "type": "error"
    },
    {
      "inputs": [],
      "name": "ERC721TransferFromIncorrectOwner",
      "type": "error"
    },
    {
      "inputs": [],
      "name": "ERC721TransferToNonReceiverImplementer",
      "type": "error"
    },
    {
      "inputs": [],
      "name": "ERC721TransferToTheZeroAddress",
      "type": "error"
    },
    {
      "inputs": [],
      "name": "RMRKApprovalForResourcesToCurrentOwner",
      "type": "error"
    },
    {
      "inputs": [],
      "name": "RMRKApproveForResourcesCallerIsNotOwnerNorApprovedForAll",
      "type": "error"
    },
    {
      "inputs": [],
      "name": "RMRKApproveForResourcesToCaller",
      "type": "error"
    },
    {
      "inputs": [],
      "name": "RMRKBadPriorityListLength",
      "type": "error"
    },
    {
      "inputs": [],
      "name": "RMRKIndexOutOfRange",
      "type": "error"
    },
    {
      "inputs": [],
      "name": "RMRKMaxPendingResourcesReached",
      "type": "error"
    },
    {
      "inputs": [],
      "name": "RMRKNoResourceMatchingId",
      "type": "error"
    },
    {
      "inputs": [],
      "name": "RMRKNotApprovedForResourcesOrOwner",
      "type": "error"
    },
    {
      "inputs": [],
      "name": "RMRKResourceAlreadyExists",
      "type": "error"
    },
    {
      "inputs": [],
      "name": "RMRKWriteToZero",
      "type": "error"
    },
    {
      "anonymous": false,
      "inputs": [
        {
          "indexed": true,
          "internalType": "address",
          "name": "owner",
          "type": "address"
        },
        {
          "indexed": true,
          "internalType": "address",
          "name": "approved",
          "type": "address"
        },
        {
          "indexed": true,
          "internalType": "uint256",
          "name": "tokenId",
          "type": "uint256"
        }
      ],
      "name": "Approval",
      "type": "event"
    },
    {
      "anonymous": false,
      "inputs": [
        {
          "indexed": true,
          "internalType": "address",
          "name": "owner",
          "type": "address"
        },
        {
          "indexed": true,
          "internalType": "address",
          "name": "operator",
          "type": "address"
        },
        {
          "indexed": false,
          "internalType": "bool",
          "name": "approved",
          "type": "bool"
        }
      ],
      "name": "ApprovalForAll",
      "type": "event"
    },
    {
      "anonymous": false,
      "inputs": [
        {
          "indexed": true,
          "internalType": "address",
          "name": "owner",
          "type": "address"
        },
        {
          "indexed": true,
          "internalType": "address",
          "name": "operator",
          "type": "address"
        },
        {
          "indexed": false,
          "internalType": "bool",
          "name": "approved",
          "type": "bool"
        }
      ],
      "name": "ApprovalForAllForResources",
      "type": "event"
    },
    {
      "anonymous": false,
      "inputs": [
        {
          "indexed": true,
          "internalType": "address",
          "name": "owner",
          "type": "address"
        },
        {
          "indexed": true,
          "internalType": "address",
          "name": "approved",
          "type": "address"
        },
        {
          "indexed": true,
          "internalType": "uint256",
          "name": "tokenId",
          "type": "uint256"
        }
      ],
      "name": "ApprovalForResources",
      "type": "event"
    },
    {
      "anonymous": false,
      "inputs": [
        {
          "indexed": false,
          "internalType": "bool",
          "name": "paused",
          "type": "bool"
        }
      ],
      "name": "ContractPaused",
      "type": "event"
    },
    {
      "anonymous": false,
      "inputs": [],
      "name": "LetterboxCollected",
      "type": "event"
    },
    {
      "anonymous": false,
      "inputs": [
        {
          "indexed": true,
          "internalType": "uint256",
          "name": "tokenId",
          "type": "uint256"
        }
      ],
      "name": "LetterboxCreated",
      "type": "event"
    },
    {
      "anonymous": false,
      "inputs": [],
      "name": "LetterboxStamped",
      "type": "event"
    },
    {
      "anonymous": false,
      "inputs": [
        {
          "indexed": true,
          "internalType": "uint256",
          "name": "tokenId",
          "type": "uint256"
        },
        {
          "indexed": true,
          "internalType": "uint64",
          "name": "resourceId",
          "type": "uint64"
        }
      ],
      "name": "ResourceAccepted",
      "type": "event"
    },
    {
      "anonymous": false,
      "inputs": [
        {
          "indexed": true,
          "internalType": "uint256",
          "name": "tokenId",
          "type": "uint256"
        },
        {
          "indexed": true,
          "internalType": "uint64",
          "name": "resourceId",
          "type": "uint64"
        }
      ],
      "name": "ResourceAdded",
      "type": "event"
    },
    {
      "anonymous": false,
      "inputs": [
        {
          "indexed": true,
          "internalType": "uint256",
          "name": "tokenId",
          "type": "uint256"
        },
        {
          "indexed": true,
          "internalType": "uint64",
          "name": "resourceId",
          "type": "uint64"
        }
      ],
      "name": "ResourceAddedToToken",
      "type": "event"
    },
    {
      "anonymous": false,
      "inputs": [
        {
          "indexed": true,
          "internalType": "uint256",
          "name": "tokenId",
          "type": "uint256"
        },
        {
          "indexed": true,
          "internalType": "uint64",
          "name": "resourceId",
          "type": "uint64"
        },
        {
          "indexed": true,
          "internalType": "uint64",
          "name": "overwritesId",
          "type": "uint64"
        }
      ],
      "name": "ResourceOverwriteProposed",
      "type": "event"
    },
    {
      "anonymous": false,
      "inputs": [
        {
          "indexed": true,
          "internalType": "uint256",
          "name": "tokenId",
          "type": "uint256"
        },
        {
          "indexed": true,
          "internalType": "uint64",
          "name": "oldResourceId",
          "type": "uint64"
        },
        {
          "indexed": true,
          "internalType": "uint64",
          "name": "newResourceId",
          "type": "uint64"
        }
      ],
      "name": "ResourceOverwritten",
      "type": "event"
    },
    {
      "anonymous": false,
      "inputs": [
        {
          "indexed": true,
          "internalType": "uint256",
          "name": "tokenId",
          "type": "uint256"
        }
      ],
      "name": "ResourcePrioritySet",
      "type": "event"
    },
    {
      "anonymous": false,
      "inputs": [
        {
          "indexed": true,
          "internalType": "uint256",
          "name": "tokenId",
          "type": "uint256"
        },
        {
          "indexed": true,
          "internalType": "uint64",
          "name": "resourceId",
          "type": "uint64"
        }
      ],
      "name": "ResourceRejected",
      "type": "event"
    },
    {
      "anonymous": false,
      "inputs": [
        {
          "indexed": true,
          "internalType": "uint64",
          "name": "resourceId",
          "type": "uint64"
        }
      ],
      "name": "ResourceSet",
      "type": "event"
    },
    {
      "anonymous": false,
      "inputs": [
        {
          "indexed": true,
          "internalType": "uint256",
          "name": "tokenId",
          "type": "uint256"
        }
      ],
      "name": "StampCreated",
      "type": "event"
    },
    {
      "anonymous": false,
      "inputs": [
        {
          "indexed": true,
          "internalType": "address",
          "name": "from",
          "type": "address"
        },
        {
          "indexed": true,
          "internalType": "address",
          "name": "to",
          "type": "address"
        },
        {
          "indexed": true,
          "internalType": "uint256",
          "name": "tokenId",
          "type": "uint256"
        }
      ],
      "name": "Transfer",
      "type": "event"
    },
    {
      "inputs": [
        {
          "internalType": "uint256",
          "name": "tokenId",
          "type": "uint256"
        },
        {
          "internalType": "uint256",
          "name": "index",
          "type": "uint256"
        }
      ],
      "name": "acceptResource",
      "outputs": [],
      "stateMutability": "nonpayable",
      "type": "function"
    },
    {
      "inputs": [
        {
          "internalType": "address",
          "name": "to",
          "type": "address"
        },
        {
          "internalType": "uint256",
          "name": "tokenId",
          "type": "uint256"
        }
      ],
      "name": "approve",
      "outputs": [],
      "stateMutability": "nonpayable",
      "type": "function"
    },
    {
      "inputs": [
        {
          "internalType": "address",
          "name": "to",
          "type": "address"
        },
        {
          "internalType": "uint256",
          "name": "tokenId",
          "type": "uint256"
        }
      ],
      "name": "approveForResources",
      "outputs": [],
      "stateMutability": "nonpayable",
      "type": "function"
    },
    {
      "inputs": [
        {
          "internalType": "address",
          "name": "owner",
          "type": "address"
        }
      ],
      "name": "balanceOf",
      "outputs": [
        {
          "internalType": "uint256",
          "name": "",
          "type": "uint256"
        }
      ],
      "stateMutability": "view",
      "type": "function"
    },
    {
      "inputs": [],
      "name": "feeGetter",
      "outputs": [
        {
          "internalType": "uint256",
          "name": "",
          "type": "uint256"
        }
      ],
      "stateMutability": "view",
      "type": "function"
    },
    {
      "inputs": [
        {
          "internalType": "uint256",
          "name": "newMintFee_",
          "type": "uint256"
        }
      ],
      "name": "feeSetter",
      "outputs": [],
      "stateMutability": "nonpayable",
      "type": "function"
    },
    {
      "inputs": [
        {
          "internalType": "uint256",
          "name": "tokenId",
          "type": "uint256"
        }
      ],
      "name": "getActiveResourcePriorities",
      "outputs": [
        {
          "internalType": "uint16[]",
          "name": "",
          "type": "uint16[]"
        }
      ],
      "stateMutability": "view",
      "type": "function"
    },
    {
      "inputs": [
        {
          "internalType": "uint256",
          "name": "tokenId",
          "type": "uint256"
        }
      ],
      "name": "getActiveResources",
      "outputs": [
        {
          "internalType": "uint64[]",
          "name": "",
          "type": "uint64[]"
        }
      ],
      "stateMutability": "view",
      "type": "function"
    },
    {
      "inputs": [],
      "name": "getAllResources",
      "outputs": [
        {
          "internalType": "uint64[]",
          "name": "",
          "type": "uint64[]"
        }
      ],
      "stateMutability": "view",
      "type": "function"
    },
    {
      "inputs": [
        {
          "internalType": "uint256",
          "name": "tokenId",
          "type": "uint256"
        }
      ],
      "name": "getApproved",
      "outputs": [
        {
          "internalType": "address",
          "name": "",
          "type": "address"
        }
      ],
      "stateMutability": "view",
      "type": "function"
    },
    {
      "inputs": [
        {
          "internalType": "uint256",
          "name": "tokenId",
          "type": "uint256"
        }
      ],
      "name": "getApprovedForResources",
      "outputs": [
        {
          "internalType": "address",
          "name": "",
          "type": "address"
        }
      ],
      "stateMutability": "view",
      "type": "function"
    },
    {
      "inputs": [
        {
          "internalType": "uint256",
          "name": "tokenId",
          "type": "uint256"
        }
      ],
      "name": "getPendingResources",
      "outputs": [
        {
          "internalType": "uint64[]",
          "name": "",
          "type": "uint64[]"
        }
      ],
      "stateMutability": "view",
      "type": "function"
    },
    {
      "inputs": [
        {
          "internalType": "uint64",
          "name": "resourceId",
          "type": "uint64"
        }
      ],
      "name": "getResource",
      "outputs": [
        {
          "components": [
            {
              "internalType": "uint64",
              "name": "id",
              "type": "uint64"
            },
            {
              "internalType": "string",
              "name": "metadataURI",
              "type": "string"
            }
          ],
          "internalType": "struct IRMRKMultiResource.Resource",
          "name": "",
          "type": "tuple"
        }
      ],
      "stateMutability": "view",
      "type": "function"
    },
    {
      "inputs": [
        {
          "internalType": "uint256",
          "name": "tokenId",
          "type": "uint256"
        },
        {
          "internalType": "uint64",
          "name": "resourceId",
          "type": "uint64"
        }
      ],
      "name": "getResourceOverwrites",
      "outputs": [
        {
          "internalType": "uint64",
          "name": "",
          "type": "uint64"
        }
      ],
      "stateMutability": "view",
      "type": "function"
    },
    {
      "inputs": [
        {
          "internalType": "address",
          "name": "owner",
          "type": "address"
        }
      ],
      "name": "hasStamp",
      "outputs": [
        {
          "internalType": "bool",
          "name": "",
          "type": "bool"
        }
      ],
      "stateMutability": "view",
      "type": "function"
    },
    {
      "inputs": [
        {
          "internalType": "address",
          "name": "owner",
          "type": "address"
        },
        {
          "internalType": "address",
          "name": "operator",
          "type": "address"
        }
      ],
      "name": "isApprovedForAll",
      "outputs": [
        {
          "internalType": "bool",
          "name": "",
          "type": "bool"
        }
      ],
      "stateMutability": "view",
      "type": "function"
    },
    {
      "inputs": [
        {
          "internalType": "address",
          "name": "owner",
          "type": "address"
        },
        {
          "internalType": "address",
          "name": "operator",
          "type": "address"
        }
      ],
      "name": "isApprovedForAllForResources",
      "outputs": [
        {
          "internalType": "bool",
          "name": "",
          "type": "bool"
        }
      ],
      "stateMutability": "view",
      "type": "function"
    },
    {
      "inputs": [],
      "name": "isPaused",
      "outputs": [
        {
          "internalType": "bool",
          "name": "",
          "type": "bool"
        }
      ],
      "stateMutability": "view",
      "type": "function"
    },
    {
      "inputs": [],
      "name": "letterboxList",
      "outputs": [
        {
          "internalType": "uint256[]",
          "name": "",
          "type": "uint256[]"
        }
      ],
      "stateMutability": "view",
      "type": "function"
    },
    {
      "inputs": [
        {
          "internalType": "uint256",
          "name": "letterboxTokenId",
          "type": "uint256"
        }
      ],
      "name": "letterboxMetadataURI",
      "outputs": [
        {
          "internalType": "string",
          "name": "",
          "type": "string"
        },
        {
          "internalType": "uint64",
          "name": "",
          "type": "uint64"
        }
      ],
      "stateMutability": "view",
      "type": "function"
    },
    {
      "inputs": [
        {
          "internalType": "address",
          "name": "stampUser",
          "type": "address"
        },
        {
          "internalType": "uint256",
          "name": "letterboxTokenId",
          "type": "uint256"
        }
      ],
      "name": "letterboxToStamp",
      "outputs": [],
      "stateMutability": "nonpayable",
      "type": "function"
    },
    {
      "inputs": [
        {
          "internalType": "address",
          "name": "owner",
          "type": "address"
        }
      ],
      "name": "letterboxesHeldBy",
      "outputs": [
        {
          "internalType": "uint256[]",
          "name": "",
          "type": "uint256[]"
        }
      ],
      "stateMutability": "view",
      "type": "function"
    },
    {
      "inputs": [
        {
          "internalType": "address",
          "name": "to_",
          "type": "address"
        },
        {
          "internalType": "string",
          "name": "uri_",
          "type": "string"
        }
      ],
      "name": "mintLetterbox",
      "outputs": [],
      "stateMutability": "nonpayable",
      "type": "function"
    },
    {
      "inputs": [
        {
          "internalType": "address",
          "name": "to_",
          "type": "address"
        },
        {
          "internalType": "string",
          "name": "uri_",
          "type": "string"
        }
      ],
      "name": "mintStamp",
      "outputs": [],
      "stateMutability": "payable",
      "type": "function"
    },
    {
      "inputs": [],
      "name": "name",
      "outputs": [
        {
          "internalType": "string",
          "name": "",
          "type": "string"
        }
      ],
      "stateMutability": "view",
      "type": "function"
    },
    {
      "inputs": [],
      "name": "nextResourceId",
      "outputs": [
        {
          "internalType": "uint64",
          "name": "",
          "type": "uint64"
        }
      ],
      "stateMutability": "view",
      "type": "function"
    },
    {
      "inputs": [
        {
          "internalType": "uint256",
          "name": "tokenId",
          "type": "uint256"
        }
      ],
      "name": "ownerOf",
      "outputs": [
        {
          "internalType": "address",
          "name": "",
          "type": "address"
        }
      ],
      "stateMutability": "view",
      "type": "function"
    },
    {
      "inputs": [
        {
          "internalType": "bool",
          "name": "state",
          "type": "bool"
        }
      ],
      "name": "pauseContract",
      "outputs": [],
      "stateMutability": "nonpayable",
      "type": "function"
    },
    {
      "inputs": [
        {
          "internalType": "uint256",
          "name": "tokenId",
          "type": "uint256"
        }
      ],
      "name": "rejectAllResources",
      "outputs": [],
      "stateMutability": "nonpayable",
      "type": "function"
    },
    {
      "inputs": [
        {
          "internalType": "uint256",
          "name": "tokenId",
          "type": "uint256"
        },
        {
          "internalType": "uint256",
          "name": "index",
          "type": "uint256"
        }
      ],
      "name": "rejectResource",
      "outputs": [],
      "stateMutability": "nonpayable",
      "type": "function"
    },
    {
      "inputs": [
        {
          "internalType": "uint256",
          "name": "tokenId_",
          "type": "uint256"
        }
      ],
      "name": "resourceCount",
      "outputs": [
        {
          "internalType": "uint256",
          "name": "",
          "type": "uint256"
        }
      ],
      "stateMutability": "view",
      "type": "function"
    },
    {
      "inputs": [
        {
          "internalType": "address",
          "name": "from",
          "type": "address"
        },
        {
          "internalType": "address",
          "name": "to",
          "type": "address"
        },
        {
          "internalType": "uint256",
          "name": "tokenId",
          "type": "uint256"
        }
      ],
      "name": "safeTransferFrom",
      "outputs": [],
      "stateMutability": "nonpayable",
      "type": "function"
    },
    {
      "inputs": [
        {
          "internalType": "address",
          "name": "from",
          "type": "address"
        },
        {
          "internalType": "address",
          "name": "to",
          "type": "address"
        },
        {
          "internalType": "uint256",
          "name": "tokenId",
          "type": "uint256"
        },
        {
          "internalType": "bytes",
          "name": "data",
          "type": "bytes"
        }
      ],
      "name": "safeTransferFrom",
      "outputs": [],
      "stateMutability": "nonpayable",
      "type": "function"
    },
    {
      "inputs": [
        {
          "internalType": "address",
          "name": "operator",
          "type": "address"
        },
        {
          "internalType": "bool",
          "name": "approved",
          "type": "bool"
        }
      ],
      "name": "setApprovalForAll",
      "outputs": [],
      "stateMutability": "nonpayable",
      "type": "function"
    },
    {
      "inputs": [
        {
          "internalType": "address",
          "name": "operator",
          "type": "address"
        },
        {
          "internalType": "bool",
          "name": "approved",
          "type": "bool"
        }
      ],
      "name": "setApprovalForAllForResources",
      "outputs": [],
      "stateMutability": "nonpayable",
      "type": "function"
    },
    {
      "inputs": [
        {
          "internalType": "uint256",
          "name": "tokenId",
          "type": "uint256"
        },
        {
          "internalType": "uint16[]",
          "name": "priorities",
          "type": "uint16[]"
        }
      ],
      "name": "setPriority",
      "outputs": [],
      "stateMutability": "nonpayable",
      "type": "function"
    },
    {
      "inputs": [
        {
          "internalType": "address",
          "name": "owner",
          "type": "address"
        }
      ],
      "name": "stampHeldBy",
      "outputs": [
        {
          "internalType": "uint256",
          "name": "",
          "type": "uint256"
        }
      ],
      "stateMutability": "view",
      "type": "function"
    },
    {
      "inputs": [
        {
          "internalType": "address",
          "name": "owner",
          "type": "address"
        }
      ],
      "name": "stampMetadataURI",
      "outputs": [
        {
          "internalType": "string",
          "name": "",
          "type": "string"
        }
      ],
      "stateMutability": "view",
      "type": "function"
    },
    {
      "inputs": [
        {
          "internalType": "address",
          "name": "stampUser",
          "type": "address"
        },
        {
          "internalType": "uint256",
          "name": "letterboxTokenId",
          "type": "uint256"
        },
        {
          "internalType": "bool",
          "name": "accepted",
          "type": "bool"
        }
      ],
      "name": "stampToLetterbox",
      "outputs": [],
      "stateMutability": "nonpayable",
      "type": "function"
    },
    {
      "inputs": [
        {
          "internalType": "bytes4",
          "name": "interfaceId",
          "type": "bytes4"
        }
      ],
      "name": "supportsInterface",
      "outputs": [
        {
          "internalType": "bool",
          "name": "",
          "type": "bool"
        }
      ],
      "stateMutability": "view",
      "type": "function"
    },
    {
      "inputs": [],
      "name": "symbol",
      "outputs": [
        {
          "internalType": "string",
          "name": "",
          "type": "string"
        }
      ],
      "stateMutability": "view",
      "type": "function"
    },
    {
      "inputs": [
        {
          "internalType": "uint256",
          "name": "tokenId",
          "type": "uint256"
        }
      ],
      "name": "tokenURI",
      "outputs": [
        {
          "internalType": "string",
          "name": "",
          "type": "string"
        }
      ],
      "stateMutability": "view",
      "type": "function"
    },
    {
      "inputs": [
        {
          "internalType": "uint256",
          "name": "tokenId",
          "type": "uint256"
        },
        {
          "internalType": "uint256",
          "name": "index",
          "type": "uint256"
        }
      ],
      "name": "tokenURIAtIndex",
      "outputs": [
        {
          "internalType": "string",
          "name": "",
          "type": "string"
        }
      ],
      "stateMutability": "view",
      "type": "function"
    },
    {
      "inputs": [
        {
          "internalType": "address",
          "name": "from",
          "type": "address"
        },
        {
          "internalType": "address",
          "name": "to",
          "type": "address"
        },
        {
          "internalType": "uint256",
          "name": "tokenId",
          "type": "uint256"
        }
      ],
      "name": "transferFrom",
      "outputs": [],
      "stateMutability": "nonpayable",
      "type": "function"
    },
    {
      "inputs": [],
      "name": "withdraw",
      "outputs": [],
      "stateMutability": "payable",
      "type": "function"
    }
  ],
  "bytecode": "0x60806040523480156200001157600080fd5b50604051620059c9380380620059c98339818101604052810190620000379190620002ac565b818181600090816200004a91906200057c565b5080600190816200005c91906200057c565b5050506000601260006101000a81548160ff02191690831515021790555033601260016101000a81548173ffffffffffffffffffffffffffffffffffffffff021916908373ffffffffffffffffffffffffffffffffffffffff1602179055506000601181905550620000da6010620000f960201b620022321760201c565b620000f1600f620000f960201b620022321760201c565b505062000663565b6001816000016000828254019250508190555050565b6000604051905090565b600080fd5b600080fd5b600080fd5b600080fd5b6000601f19601f8301169050919050565b7f4e487b7100000000000000000000000000000000000000000000000000000000600052604160045260246000fd5b62000178826200012d565b810181811067ffffffffffffffff821117156200019a57620001996200013e565b5b80604052505050565b6000620001af6200010f565b9050620001bd82826200016d565b919050565b600067ffffffffffffffff821115620001e057620001df6200013e565b5b620001eb826200012d565b9050602081019050919050565b60005b8381101562000218578082015181840152602081019050620001fb565b8381111562000228576000848401525b50505050565b6000620002456200023f84620001c2565b620001a3565b90508281526020810184848401111562000264576200026362000128565b5b62000271848285620001f8565b509392505050565b600082601f83011262000291576200029062000123565b5b8151620002a38482602086016200022e565b91505092915050565b60008060408385031215620002c657620002c562000119565b5b600083015167ffffffffffffffff811115620002e757620002e66200011e565b5b620002f58582860162000279565b925050602083015167ffffffffffffffff8111156200031957620003186200011e565b5b620003278582860162000279565b9150509250929050565b600081519050919050565b7f4e487b7100000000000000000000000000000000000000000000000000000000600052602260045260246000fd5b600060028204905060018216806200038457607f821691505b6020821081036200039a57620003996200033c565b5b50919050565b60008190508160005260206000209050919050565b60006020601f8301049050919050565b600082821b905092915050565b600060088302620004047fffffffffffffffffffffffffffffffffffffffffffffffffffffffffffffffff82620003c5565b620004108683620003c5565b95508019841693508086168417925050509392505050565b6000819050919050565b6000819050919050565b60006200045d62000457620004518462000428565b62000432565b62000428565b9050919050565b6000819050919050565b62000479836200043c565b62000491620004888262000464565b848454620003d2565b825550505050565b600090565b620004a862000499565b620004b58184846200046e565b505050565b5b81811015620004dd57620004d16000826200049e565b600181019050620004bb565b5050565b601f8211156200052c57620004f681620003a0565b6200050184620003b5565b8101602085101562000511578190505b620005296200052085620003b5565b830182620004ba565b50505b505050565b600082821c905092915050565b6000620005516000198460080262000531565b1980831691505092915050565b60006200056c83836200053e565b9150826002028217905092915050565b620005878262000331565b67ffffffffffffffff811115620005a357620005a26200013e565b5b620005af82546200036b565b620005bc828285620004e1565b600060209050601f831160018114620005f45760008415620005df578287015190505b620005eb85826200055e565b8655506200065b565b601f1984166200060486620003a0565b60005b828110156200062e5784890151825560018201915060208501945060208101905062000607565b868310156200064e57848901516200064a601f8916826200053e565b8355505b6001600288020188555050505b505050505050565b61535680620006736000396000f3fe6080604052600436106102725760003560e01c8063788161341161014f578063c87b56dd116100c1578063e88975701161007a578063e8897570146109d7578063e985e9c514610a00578063ed5fd0f514610a3d578063efad29bf14610a7a578063f64669c314610aa5578063fe679c6214610ae257610272565b8063c87b56dd146108b2578063cfd71cf4146108ef578063daf304771461090b578063dd6433d414610948578063e272b89214610971578063e2e286af1461099a57610272565b806395d89b411161011357806395d89b41146107a2578063a0eaec43146107cd578063a22cb4651461080a578063b187bd2614610833578063b88d4fde1461085e578063baace33e1461088757610272565b806378816134146106995780637b2e40fa146106c257806387d7e3c1146106eb578063886d5c9e14610728578063891141d61461076557610272565b80633b511a41116101e85780636352211e116101ac5780636352211e146105505780636776a7ac1461058d5780636a8d2cf3146105b857806370a08231146105f65780637355310714610633578063739817dd1461067057610272565b80633b511a411461048c5780633ccfd60b146104c9578063408fc265146104d357806342842e0e146104fc5780635de1b4f71461052557610272565b80630e9068311161023a5780630e9068311461036e578063135627cd1461039757806316b1160f146103d457806322835f59146103fd57806323b872dd1461043a57806332bea7c91461046357610272565b806301ffc9a71461027757806306fdde03146102b4578063081812fc146102df578063095ea7b31461031c578063096835be14610345575b600080fd5b34801561028357600080fd5b5061029e60048036038101906102999190613fba565b610b1f565b6040516102ab9190614002565b60405180910390f35b3480156102c057600080fd5b506102c9610cc1565b6040516102d691906140b6565b60405180910390f35b3480156102eb57600080fd5b506103066004803603810190610301919061410e565b610d53565b604051610313919061417c565b60405180910390f35b34801561032857600080fd5b50610343600480360381019061033e91906141c3565b610d99565b005b34801561035157600080fd5b5061036c60048036038101906103679190614268565b610ea2565b005b34801561037a57600080fd5b50610395600480360381019061039091906143f8565b610efd565b005b3480156103a357600080fd5b506103be60048036038101906103b9919061410e565b610fc6565b6040516103cb9190614520565b60405180910390f35b3480156103e057600080fd5b506103fb60048036038101906103f691906141c3565b611059565b005b34801561040957600080fd5b50610424600480360381019061041f9190614542565b61110a565b604051610431919061462d565b60405180910390f35b34801561044657600080fd5b50610461600480360381019061045c919061464f565b6111a4565b005b34801561046f57600080fd5b5061048a600480360381019061048591906146ce565b6111bf565b005b34801561049857600080fd5b506104b360048036038101906104ae9190614542565b61125f565b6040516104c091906140b6565b60405180910390f35b6104d16112fe565b005b3480156104df57600080fd5b506104fa60048036038101906104f5919061410e565b61142d565b005b34801561050857600080fd5b50610523600480360381019061051e919061464f565b6114c7565b005b34801561053157600080fd5b5061053a6114e7565b6040516105479190614730565b60405180910390f35b34801561055c57600080fd5b506105776004803603810190610572919061410e565b6114f1565b604051610584919061417c565b60405180910390f35b34801561059957600080fd5b506105a2611599565b6040516105af919061462d565b60405180910390f35b3480156105c457600080fd5b506105df60048036038101906105da919061410e565b6115f1565b6040516105ed92919061476e565b60405180910390f35b34801561060257600080fd5b5061061d60048036038101906106189190614542565b611649565b60405161062a9190614730565b60405180910390f35b34801561063f57600080fd5b5061065a60048036038101906106559190614542565b6116f7565b6040516106679190614002565b60405180910390f35b34801561067c57600080fd5b506106976004803603810190610692919061479e565b61171b565b005b3480156106a557600080fd5b506106c060048036038101906106bb91906141c3565b611734565b005b3480156106ce57600080fd5b506106e960048036038101906106e4919061410e565b61183d565b005b3480156106f757600080fd5b50610712600480360381019061070d9190614542565b611854565b60405161071f9190614730565b60405180910390f35b34801561073457600080fd5b5061074f600480360381019061074a919061410e565b61189d565b60405161075c9190614730565b60405180910390f35b34801561077157600080fd5b5061078c6004803603810190610787919061410e565b6118b0565b604051610799919061417c565b60405180910390f35b3480156107ae57600080fd5b506107b76118f6565b6040516107c491906140b6565b60405180910390f35b3480156107d957600080fd5b506107f460048036038101906107ef919061410e565b611988565b604051610801919061489c565b60405180910390f35b34801561081657600080fd5b50610831600480360381019061082c91906148be565b611a27565b005b34801561083f57600080fd5b50610848611a3d565b6040516108559190614002565b60405180910390f35b34801561086a57600080fd5b506108856004803603810190610880919061499f565b611a54565b005b34801561089357600080fd5b5061089c611a71565b6040516108a9919061489c565b60405180910390f35b3480156108be57600080fd5b506108d960048036038101906108d4919061410e565b611afd565b6040516108e691906140b6565b60405180910390f35b610909600480360381019061090491906143f8565b611b11565b005b34801561091757600080fd5b50610932600480360381019061092d919061479e565b611c43565b60405161093f91906140b6565b60405180910390f35b34801561095457600080fd5b5061096f600480360381019061096a919061479e565b611c57565b005b34801561097d57600080fd5b5061099860048036038101906109939190614a22565b611c70565b005b3480156109a657600080fd5b506109c160048036038101906109bc9190614a7b565b611d63565b6040516109ce9190614b2f565b60405180910390f35b3480156109e357600080fd5b506109fe60048036038101906109f991906148be565b611e87565b005b348015610a0c57600080fd5b50610a276004803603810190610a229190614b51565b611ff6565b604051610a349190614002565b60405180910390f35b348015610a4957600080fd5b50610a646004803603810190610a5f9190614b51565b61208a565b604051610a719190614002565b60405180910390f35b348015610a8657600080fd5b50610a8f61211e565b604051610a9c9190614b91565b60405180910390f35b348015610ab157600080fd5b50610acc6004803603810190610ac7919061410e565b61213c565b604051610ad9919061489c565b60405180910390f35b348015610aee57600080fd5b50610b096004803603810190610b049190614bac565b6121db565b604051610b169190614b91565b60405180910390f35b60007f01ffc9a7000000000000000000000000000000000000000000000000000000007bffffffffffffffffffffffffffffffffffffffffffffffffffffffff1916827bffffffffffffffffffffffffffffffffffffffffffffffffffffffff19161480610bea57507f80ac58cd000000000000000000000000000000000000000000000000000000007bffffffffffffffffffffffffffffffffffffffffffffffffffffffff1916827bffffffffffffffffffffffffffffffffffffffffffffffffffffffff1916145b80610c5257507f5b5e139f000000000000000000000000000000000000000000000000000000007bffffffffffffffffffffffffffffffffffffffffffffffffffffffff1916827bffffffffffffffffffffffffffffffffffffffffffffffffffffffff1916145b80610cba57507f0354d949000000000000000000000000000000000000000000000000000000007bffffffffffffffffffffffffffffffffffffffffffffffffffffffff1916827bffffffffffffffffffffffffffffffffffffffffffffffffffffffff1916145b9050919050565b606060008054610cd090614c1b565b80601f0160208091040260200160405190810160405280929190818152602001828054610cfc90614c1b565b8015610d495780601f10610d1e57610100808354040283529160200191610d49565b820191906000526020600020905b815481529060010190602001808311610d2c57829003601f168201915b5050505050905090565b6000610d5e82612248565b6004600083815260200190815260200160002060009054906101000a900473ffffffffffffffffffffffffffffffffffffffff169050919050565b6000610da4826114f1565b90508073ffffffffffffffffffffffffffffffffffffffff168373ffffffffffffffffffffffffffffffffffffffff1603610e0b576040517f0591db6d00000000000000000000000000000000000000000000000000000000815260040160405180910390fd5b8073ffffffffffffffffffffffffffffffffffffffff16610e2a61228a565b73ffffffffffffffffffffffffffffffffffffffff1614158015610e5c5750610e5a81610e5561228a565b611ff6565b155b15610e93576040517f982462b200000000000000000000000000000000000000000000000000000000815260040160405180910390fd5b610e9d8383612292565b505050565b82610eac8161234b565b610ef784848480806020026020016040519081016040528093929190818152602001838360200280828437600081840152601f19601f82011690508083019250505050505050612395565b50505050565b60001515601260009054906101000a900460ff16151514610f53576040517f08c379a0000000000000000000000000000000000000000000000000000000008152600401610f4a90614cbe565b60405180910390fd5b6000610f5f8383612444565b9050610f6b838261247d565b6013819080600181540180825580915050600190039060005260206000200160009091909190915055807f1295760e21ccf04055bba5b0e83640826c14972306591a284234d56a56a9886560405160405180910390a2505050565b60606009600083815260200190815260200160002080548060200260200160405190810160405280929190818152602001828054801561104d57602002820191906000526020600020906000905b82829054906101000a900461ffff1661ffff16815260200190600201906020826001010492830192600103820291508084116110145790505b50505050509050919050565b60001515601260009054906101000a900460ff161515146110af576040517f08c379a00000000000000000000000000000000000000000000000000000000081526004016110a690614cbe565b60405180910390fd5b60606110ba826115f1565b508091505060006110ca84611854565b90506110d8818360016124ea565b7ff1e76e74907e2c1b8ddf3935bb1938929c417e7ab1d573f0e8910207d3c1eecc60405160405180910390a150505050565b6060601460008373ffffffffffffffffffffffffffffffffffffffff1673ffffffffffffffffffffffffffffffffffffffff16815260200190815260200160002060000180548060200260200160405190810160405280929190818152602001828054801561119857602002820191906000526020600020905b815481526020019060010190808311611184575b50505050509050919050565b806111ae81612558565b6111b98484846125a2565b50505050565b60001515601260009054906101000a900460ff16151514611215576040517f08c379a000000000000000000000000000000000000000000000000000000000815260040161120c90614cbe565b60405180910390fd5b60006112208461125f565b905061122d8382846124ea565b7f6ff957fcc65b1d7aebc6f411fab5c23846ee3438db1e986a0d8dfd76d3f0006560405160405180910390a150505050565b60606001151561126e836116f7565b1515036112c057600061128861128384611854565b611988565b905060006112b0826000815181106112a3576112a2614cde565b5b6020026020010151611d63565b90508060200151925050506112f9565b6040518060400160405280601881526020017f5573657220646f6573206e6f742068617665207374616d70000000000000000081525090505b919050565b601260019054906101000a900473ffffffffffffffffffffffffffffffffffffffff1673ffffffffffffffffffffffffffffffffffffffff163373ffffffffffffffffffffffffffffffffffffffff161461138e576040517f08c379a000000000000000000000000000000000000000000000000000000000815260040161138590614d59565b60405180910390fd5b60001515601260009054906101000a900460ff161515146113e4576040517f08c379a00000000000000000000000000000000000000000000000000000000081526004016113db90614cbe565b60405180910390fd5b3373ffffffffffffffffffffffffffffffffffffffff166108fc479081150290604051600060405180830381858888f1935050505015801561142a573d6000803e3d6000fd5b50565b601260019054906101000a900473ffffffffffffffffffffffffffffffffffffffff1673ffffffffffffffffffffffffffffffffffffffff163373ffffffffffffffffffffffffffffffffffffffff16146114bd576040517f08c379a00000000000000000000000000000000000000000000000000000000081526004016114b490614d59565b60405180910390fd5b8060118190555050565b6114e283838360405180602001604052806000815250611a54565b505050565b6000601154905090565b6000806002600084815260200190815260200160002060009054906101000a900473ffffffffffffffffffffffffffffffffffffffff169050600073ffffffffffffffffffffffffffffffffffffffff168173ffffffffffffffffffffffffffffffffffffffff1603611590576040517f89ba7e1000000000000000000000000000000000000000000000000000000000815260040160405180910390fd5b80915050919050565b606060138054806020026020016040519081016040528092919081815260200182805480156115e757602002820191906000526020600020905b8154815260200190600101908083116115d3575b5050505050905090565b60606000806115ff84611988565b905060006116278260008151811061161a57611619614cde565b5b6020026020010151611d63565b9050600080826020015183600001519150915081819550955050505050915091565b60008073ffffffffffffffffffffffffffffffffffffffff168273ffffffffffffffffffffffffffffffffffffffff16036116b0576040517f7772286600000000000000000000000000000000000000000000000000000000815260040160405180910390fd5b600360008373ffffffffffffffffffffffffffffffffffffffff1673ffffffffffffffffffffffffffffffffffffffff168152602001908152602001600020549050919050565b60008061170383611854565b036117115760009050611716565b600190505b919050565b816117258161234b565b61172f8383612857565b505050565b600061173f826114f1565b90508073ffffffffffffffffffffffffffffffffffffffff168373ffffffffffffffffffffffffffffffffffffffff16036117a6576040517f9efa161100000000000000000000000000000000000000000000000000000000815260040160405180910390fd5b8073ffffffffffffffffffffffffffffffffffffffff166117c561228a565b73ffffffffffffffffffffffffffffffffffffffff16141580156117f757506117f5816117f061228a565b61208a565b155b1561182e576040517fbb084cee00000000000000000000000000000000000000000000000000000000815260040160405180910390fd5b6118388383612b44565b505050565b806118478161234b565b61185082612bfd565b5050565b6000601560008373ffffffffffffffffffffffffffffffffffffffff1673ffffffffffffffffffffffffffffffffffffffff168152602001908152602001600020549050919050565b60006118a882611988565b519050919050565b60006118bb82612248565b600d600083815260200190815260200160002060009054906101000a900473ffffffffffffffffffffffffffffffffffffffff169050919050565b60606001805461190590614c1b565b80601f016020809104026020016040519081016040528092919081815260200182805461193190614c1b565b801561197e5780601f106119535761010080835404028352916020019161197e565b820191906000526020600020905b81548152906001019060200180831161196157829003601f168201915b5050505050905090565b606060086000838152602001908152602001600020805480602002602001604051908101604052809291908181526020018280548015611a1b57602002820191906000526020600020906000905b82829054906101000a900467ffffffffffffffff1667ffffffffffffffff16815260200190600801906020826007010492830192600103820291508084116119d65790505b50505050509050919050565b611a39611a3261228a565b8383612d2e565b5050565b6000601260009054906101000a900460ff16905090565b81611a5e81612558565b611a6a85858585612e91565b5050505050565b6060600c805480602002602001604051908101604052809291908181526020018280548015611af357602002820191906000526020600020906000905b82829054906101000a900467ffffffffffffffff1667ffffffffffffffff1681526020019060080190602082600701049283019260010382029150808411611aae5790505b5050505050905090565b6060611b0a826000612ee4565b9050919050565b816000611b1d82611854565b14611b5d576040517f08c379a0000000000000000000000000000000000000000000000000000000008152600401611b5490614dc5565b60405180910390fd5b60001515601260009054906101000a900460ff16151514611bb3576040517f08c379a0000000000000000000000000000000000000000000000000000000008152600401611baa90614cbe565b60405180910390fd5b601154341015611bf8576040517f08c379a0000000000000000000000000000000000000000000000000000000008152600401611bef90614e57565b60405180910390fd5b6000611c048484612444565b9050611c108482612fdb565b807f804fac7c99b3a00cb15b885aa375c45c58c56d9fa2ad1fd73a29bf6bdc45798e60405160405180910390a250505050565b6060611c4f8383612ee4565b905092915050565b81611c618161234b565b611c6b8383613023565b505050565b601260019054906101000a900473ffffffffffffffffffffffffffffffffffffffff1673ffffffffffffffffffffffffffffffffffffffff163373ffffffffffffffffffffffffffffffffffffffff1614611d00576040517f08c379a0000000000000000000000000000000000000000000000000000000008152600401611cf790614d59565b60405180910390fd5b80601260006101000a81548160ff0219169083151502179055507f752d7e161ff5146f80e3820893176eb40532811e5e20400dfdde57455213706a601260009054906101000a900460ff16604051611d589190614002565b60405180910390a150565b611d6b613e3b565b6000600660008467ffffffffffffffff1667ffffffffffffffff1681526020019081526020016000208054611d9f90614c1b565b80601f0160208091040260200160405190810160405280929190818152602001828054611dcb90614c1b565b8015611e185780601f10611ded57610100808354040283529160200191611e18565b820191906000526020600020905b815481529060010190602001808311611dfb57829003601f168201915b505050505090506000815103611e5a576040517f48e2e83700000000000000000000000000000000000000000000000000000000815260040160405180910390fd5b600060405180604001604052808567ffffffffffffffff1681526020018381525090508092505050919050565b6000611e9161228a565b90508273ffffffffffffffffffffffffffffffffffffffff168173ffffffffffffffffffffffffffffffffffffffff1603611ef8576040517f6a78452600000000000000000000000000000000000000000000000000000000815260040160405180910390fd5b81600e60008373ffffffffffffffffffffffffffffffffffffffff1673ffffffffffffffffffffffffffffffffffffffff16815260200190815260200160002060008573ffffffffffffffffffffffffffffffffffffffff1673ffffffffffffffffffffffffffffffffffffffff16815260200190815260200160002060006101000a81548160ff0219169083151502179055508273ffffffffffffffffffffffffffffffffffffffff168173ffffffffffffffffffffffffffffffffffffffff167f9c03d4f9a8db6d81765cbe2097e83f44253564fbf3c1adfb09a8067464ad3f4b84604051611fe99190614002565b60405180910390a3505050565b6000600560008473ffffffffffffffffffffffffffffffffffffffff1673ffffffffffffffffffffffffffffffffffffffff16815260200190815260200160002060008373ffffffffffffffffffffffffffffffffffffffff1673ffffffffffffffffffffffffffffffffffffffff16815260200190815260200160002060009054906101000a900460ff16905092915050565b6000600e60008473ffffffffffffffffffffffffffffffffffffffff1673ffffffffffffffffffffffffffffffffffffffff16815260200190815260200160002060008373ffffffffffffffffffffffffffffffffffffffff1673ffffffffffffffffffffffffffffffffffffffff16815260200190815260200160002060009054906101000a900460ff16905092915050565b60008061213361212e60106131c7565b6131d5565b90508091505090565b6060600b60008381526020019081526020016000208054806020026020016040519081016040528092919081815260200182805480156121cf57602002820191906000526020600020906000905b82829054906101000a900467ffffffffffffffff1667ffffffffffffffff168152602001906008019060208260070104928301926001038202915080841161218a5790505b50505050509050919050565b60006007600084815260200190815260200160002060008367ffffffffffffffff1667ffffffffffffffff16815260200190815260200160002060009054906101000a900467ffffffffffffffff16905092915050565b6001816000016000828254019250508190555050565b612251816131df565b612287576040517f89ba7e1000000000000000000000000000000000000000000000000000000000815260040160405180910390fd5b50565b600033905090565b816004600083815260200190815260200160002060006101000a81548173ffffffffffffffffffffffffffffffffffffffff021916908373ffffffffffffffffffffffffffffffffffffffff160217905550808273ffffffffffffffffffffffffffffffffffffffff16612305836114f1565b73ffffffffffffffffffffffffffffffffffffffff167f8c5be1e5ebec7d5bd14f71427d1e84f3dd0314c0f7b2291e5b200ac8c7c3b92560405160405180910390a45050565b61235c61235661228a565b8261324b565b612392576040517feabb6dd700000000000000000000000000000000000000000000000000000000815260040160405180910390fd5b50565b600081519050600860008481526020019081526020016000208054905081146123ea576040517f6b037c3a00000000000000000000000000000000000000000000000000000000815260040160405180910390fd5b81600960008581526020019081526020016000209080519060200190612411929190613e5f565b50827f50a12ecfcaf26b91454fd23edbcf04185b68d6e8c7edc4e35d14392889cdf79560405160405180910390a2505050565b600080612451600f6131c7565b905061245d84826132e0565b612469818460016124ea565b612473600f612232565b8091505092915050565b601460008373ffffffffffffffffffffffffffffffffffffffff1673ffffffffffffffffffffffffffffffffffffffff1681526020019081526020016000206000018190806001815401808255809150506001900390600052602060002001600090919091909150555050565b60006124f461211e565b90506124ff836132fe565b61250b84826000613378565b60011515821515036125525760006125228561213c565b9050600181511061254f5760006001825161253d9190614ea6565b90506125498682612857565b50612550565b5b505b50505050565b61256961256361228a565b82613666565b61259f576040517f2728a9d000000000000000000000000000000000000000000000000000000000815260040160405180910390fd5b50565b8273ffffffffffffffffffffffffffffffffffffffff166125c2826114f1565b73ffffffffffffffffffffffffffffffffffffffff161461260f576040517fe146af6f00000000000000000000000000000000000000000000000000000000815260040160405180910390fd5b600073ffffffffffffffffffffffffffffffffffffffff168273ffffffffffffffffffffffffffffffffffffffff1603612675576040517fe3d91bfc00000000000000000000000000000000000000000000000000000000815260040160405180910390fd5b6126808383836136fb565b6004600082815260200190815260200160002060006101000a81549073ffffffffffffffffffffffffffffffffffffffff0219169055600d600082815260200190815260200160002060006101000a81549073ffffffffffffffffffffffffffffffffffffffff02191690556001600360008573ffffffffffffffffffffffffffffffffffffffff1673ffffffffffffffffffffffffffffffffffffffff168152602001908152602001600020600082825461273c9190614ea6565b925050819055506001600360008473ffffffffffffffffffffffffffffffffffffffff1673ffffffffffffffffffffffffffffffffffffffff16815260200190815260200160002060008282546127939190614eda565b92505081905550816002600083815260200190815260200160002060006101000a81548173ffffffffffffffffffffffffffffffffffffffff021916908373ffffffffffffffffffffffffffffffffffffffff160217905550808273ffffffffffffffffffffffffffffffffffffffff168473ffffffffffffffffffffffffffffffffffffffff167fddf252ad1be2c89b69c2b068fc378daa952ba7f163c4a11628f55a4df523b3ef60405160405180910390a4612852838383613700565b505050565b600b60008381526020019081526020016000208054905081106128a6576040517f0757d52100000000000000000000000000000000000000000000000000000000815260040160405180910390fd5b6000600b600084815260200190815260200160002082815481106128cd576128cc614cde565b5b90600052602060002090600491828204019190066008029054906101000a900467ffffffffffffffff16905061291e82600b600086815260200190815260200160002061370590919063ffffffff16565b60006007600085815260200190815260200160002060008367ffffffffffffffff1667ffffffffffffffff16815260200190815260200160002060009054906101000a900467ffffffffffffffff169050600067ffffffffffffffff168167ffffffffffffffff1614612a43576129b081600860008781526020019081526020016000206137f990919063ffffffff16565b8167ffffffffffffffff168167ffffffffffffffff16857fcf24819d4d174cc8c6cda1f2f6bdbdcb891ef4a46c61e0bab8dc06c070de5c9e60405160405180910390a46007600085815260200190815260200160002060008367ffffffffffffffff1667ffffffffffffffff16815260200190815260200160002060006101000a81549067ffffffffffffffff02191690555b600860008581526020019081526020016000208290806001815401808255809150506001900390600052602060002090600491828204019190066008029091909190916101000a81548167ffffffffffffffff021916908367ffffffffffffffff16021790555060096000858152602001908152602001600020600090806001815401808255809150506001900390600052602060002090601091828204019190066002029091909190916101000a81548161ffff021916908361ffff1602179055508167ffffffffffffffff16847f51e9958189f528b912f96508d6a4b68583858166eda14d580dfbd24e9a79dfdb60405160405180910390a350505050565b81600d600083815260200190815260200160002060006101000a81548173ffffffffffffffffffffffffffffffffffffffff021916908373ffffffffffffffffffffffffffffffffffffffff160217905550808273ffffffffffffffffffffffffffffffffffffffff16612bb7836114f1565b73ffffffffffffffffffffffffffffffffffffffff167fa98c62723e75b26c5e5710fb12b5bf7712e6926f6dc932de622e715553f5149160405160405180910390a45050565b6000600b600083815260200190815260200160002080549050905060005b81811015612cd1576000600b60008581526020019081526020016000208281548110612c4a57612c49614cde565b5b90600052602060002090600491828204019190066008029054906101000a900467ffffffffffffffff1690506007600085815260200190815260200160002060008267ffffffffffffffff1667ffffffffffffffff16815260200190815260200160002060006101000a81549067ffffffffffffffff021916905581600101915050612c1b565b50600b60008381526020019081526020016000206000612cf19190613f09565b600067ffffffffffffffff16827f8d0cdca57de6b2fb4babd8b68c83db0b0981610d338eb68eea1f4b1e1d78dc1c60405160405180910390a35050565b8173ffffffffffffffffffffffffffffffffffffffff168373ffffffffffffffffffffffffffffffffffffffff1603612d93576040517f2dee66e400000000000000000000000000000000000000000000000000000000815260040160405180910390fd5b80600560008573ffffffffffffffffffffffffffffffffffffffff1673ffffffffffffffffffffffffffffffffffffffff16815260200190815260200160002060008473ffffffffffffffffffffffffffffffffffffffff1673ffffffffffffffffffffffffffffffffffffffff16815260200190815260200160002060006101000a81548160ff0219169083151502179055508173ffffffffffffffffffffffffffffffffffffffff168373ffffffffffffffffffffffffffffffffffffffff167f17307eab39ab6107e8899845ad3d59bd9653f200f220920489ca2b5937696c3183604051612e849190614002565b60405180910390a3505050565b612e9c8484846125a2565b612ea8848484846138e8565b612ede576040517fbcb5663700000000000000000000000000000000000000000000000000000000815260040160405180910390fd5b50505050565b6060612eef83612248565b60086000848152602001908152602001600020805490508210612f3e576040517f0757d52100000000000000000000000000000000000000000000000000000000815260040160405180910390fd5b6000600860008581526020019081526020016000208381548110612f6557612f64614cde565b5b90600052602060002090600491828204019190066008029054906101000a900467ffffffffffffffff1690506000612f9c82611d63565b90506000612fa8613a66565b8260200151604051602001612fbe929190614f6c565b604051602081830303815290604052905080935050505092915050565b80601560008473ffffffffffffffffffffffffffffffffffffffff1673ffffffffffffffffffffffffffffffffffffffff168152602001908152602001600020819055505050565b600b6000838152602001908152602001600020805490508110613072576040517f0757d52100000000000000000000000000000000000000000000000000000000815260040160405180910390fd5b6000600b6000848152602001908152602001600020828154811061309957613098614cde565b5b90600052602060002090600491828204019190066008029054906101000a900467ffffffffffffffff1690506130ea82600b600086815260200190815260200160002061370590919063ffffffff16565b6000600a600085815260200190815260200160002060008367ffffffffffffffff1667ffffffffffffffff16815260200190815260200160002060006101000a81548160ff0219169083151502179055506007600084815260200190815260200160002060008267ffffffffffffffff1667ffffffffffffffff16815260200190815260200160002060006101000a81549067ffffffffffffffff02191690558067ffffffffffffffff16837f8d0cdca57de6b2fb4babd8b68c83db0b0981610d338eb68eea1f4b1e1d78dc1c60405160405180910390a3505050565b600081600001549050919050565b6000819050919050565b60008073ffffffffffffffffffffffffffffffffffffffff166002600084815260200190815260200160002060009054906101000a900473ffffffffffffffffffffffffffffffffffffffff1673ffffffffffffffffffffffffffffffffffffffff1614159050919050565b600080613257836114f1565b90508073ffffffffffffffffffffffffffffffffffffffff168473ffffffffffffffffffffffffffffffffffffffff1614806132995750613298818561208a565b5b806132d757508373ffffffffffffffffffffffffffffffffffffffff166132bf846118b0565b73ffffffffffffffffffffffffffffffffffffffff16145b91505092915050565b6132fa828260405180602001604052806000815250613a7d565b5050565b60001515601260009054906101000a900460ff16151514613354576040517f08c379a000000000000000000000000000000000000000000000000000000000815260040161334b90614cbe565b60405180910390fd5b600061335e61211e565b905061336a8183613acf565b6133746010612232565b5050565b600a600084815260200190815260200160002060008367ffffffffffffffff1667ffffffffffffffff16815260200190815260200160002060009054906101000a900460ff16156133f5576040517f3348dd1d00000000000000000000000000000000000000000000000000000000815260040160405180910390fd5b6000600660008467ffffffffffffffff1667ffffffffffffffff168152602001908152602001600020805461342990614c1b565b905003613462576040517f48e2e83700000000000000000000000000000000000000000000000000000000815260040160405180910390fd5b6080600b600085815260200190815260200160002080549050106134b2576040517fdfaea09b00000000000000000000000000000000000000000000000000000000815260040160405180910390fd5b6001600a600085815260200190815260200160002060008467ffffffffffffffff1667ffffffffffffffff16815260200190815260200160002060006101000a81548160ff021916908315150217905550600b60008481526020019081526020016000208290806001815401808255809150506001900390600052602060002090600491828204019190066008029091909190916101000a81548167ffffffffffffffff021916908367ffffffffffffffff160217905550600067ffffffffffffffff168167ffffffffffffffff161461362957806007600085815260200190815260200160002060008467ffffffffffffffff1667ffffffffffffffff16815260200190815260200160002060006101000a81548167ffffffffffffffff021916908367ffffffffffffffff1602179055508067ffffffffffffffff168267ffffffffffffffff16847fe76caab2912f68cd628bc085e006c86b8a478d13be698638b0c533030d120b4e60405160405180910390a45b8167ffffffffffffffff16837ffc4d0a03f3026d7ce3427493c9289ea9768a6edd425e854cea7600d244ecc2c360405160405180910390a3505050565b600080613672836114f1565b90508073ffffffffffffffffffffffffffffffffffffffff168473ffffffffffffffffffffffffffffffffffffffff1614806136b457506136b38185611ff6565b5b806136f257508373ffffffffffffffffffffffffffffffffffffffff166136da84610d53565b73ffffffffffffffffffffffffffffffffffffffff16145b91505092915050565b505050565b505050565b8180549050811061371557600080fd5b81600183805490506137279190614ea6565b8154811061373857613737614cde565b5b90600052602060002090600491828204019190066008029054906101000a900467ffffffffffffffff1682828154811061377557613774614cde565b5b90600052602060002090600491828204019190066008026101000a81548167ffffffffffffffff021916908367ffffffffffffffff160217905550818054806137c1576137c0614f90565b5b60019003818190600052602060002090600491828204019190066008026101000a81549067ffffffffffffffff021916905590555050565b60008280548060200260200160405190810160405280929190818152602001828054801561387a57602002820191906000526020600020906000905b82829054906101000a900467ffffffffffffffff1667ffffffffffffffff16815260200190600801906020826007010492830192600103820291508084116138355790505b5050505050905060008151905060005b818110156138e1578367ffffffffffffffff168382815181106138b0576138af614cde565b5b602002602001015167ffffffffffffffff16036138d6576138d18582613705565b6138e1565b80600101905061388a565b5050505050565b60006139098473ffffffffffffffffffffffffffffffffffffffff16613c51565b15613a59578373ffffffffffffffffffffffffffffffffffffffff1663150b7a0261393261228a565b8786866040518563ffffffff1660e01b81526004016139549493929190615014565b6020604051808303816000875af192505050801561399057506040513d601f19601f8201168201806040525081019061398d9190615075565b60015b613a09573d80600081146139c0576040519150601f19603f3d011682016040523d82523d6000602084013e6139c5565b606091505b506000815103613a01576040517fbcb5663700000000000000000000000000000000000000000000000000000000815260040160405180910390fd5b805181602001fd5b63150b7a0260e01b7bffffffffffffffffffffffffffffffffffffffffffffffffffffffff1916817bffffffffffffffffffffffffffffffffffffffffffffffffffffffff191614915050613a5e565b600190505b949350505050565b606060405180602001604052806000815250905090565b613a878383613c74565b613a9460008484846138e8565b613aca576040517fbcb5663700000000000000000000000000000000000000000000000000000000815260040160405180910390fd5b505050565b600067ffffffffffffffff168267ffffffffffffffff1603613b1d576040517f280d806300000000000000000000000000000000000000000000000000000000815260040160405180910390fd5b6000600660008467ffffffffffffffff1667ffffffffffffffff1681526020019081526020016000208054613b5190614c1b565b90501115613b8b576040517f3348dd1d00000000000000000000000000000000000000000000000000000000815260040160405180910390fd5b80600660008467ffffffffffffffff1667ffffffffffffffff1681526020019081526020016000209081613bbf919061524e565b50600c8290806001815401808255809150506001900390600052602060002090600491828204019190066008029091909190916101000a81548167ffffffffffffffff021916908367ffffffffffffffff1602179055508167ffffffffffffffff167f8a5ccfca4023cda4a0a59a1bb73783f6b3ba77465537d0c8f2bef5eb2511552a60405160405180910390a25050565b6000808273ffffffffffffffffffffffffffffffffffffffff163b119050919050565b600073ffffffffffffffffffffffffffffffffffffffff168273ffffffffffffffffffffffffffffffffffffffff1603613cda576040517f25bd6bd300000000000000000000000000000000000000000000000000000000815260040160405180910390fd5b613ce3816131df565b15613d1a576040517fc5a8d37100000000000000000000000000000000000000000000000000000000815260040160405180910390fd5b613d26600083836136fb565b6001600360008473ffffffffffffffffffffffffffffffffffffffff1673ffffffffffffffffffffffffffffffffffffffff1681526020019081526020016000206000828254613d769190614eda565b92505081905550816002600083815260200190815260200160002060006101000a81548173ffffffffffffffffffffffffffffffffffffffff021916908373ffffffffffffffffffffffffffffffffffffffff160217905550808273ffffffffffffffffffffffffffffffffffffffff16600073ffffffffffffffffffffffffffffffffffffffff167fddf252ad1be2c89b69c2b068fc378daa952ba7f163c4a11628f55a4df523b3ef60405160405180910390a4613e3760008383613700565b5050565b6040518060400160405280600067ffffffffffffffff168152602001606081525090565b82805482825590600052602060002090600f01601090048101928215613ef85791602002820160005b83821115613ec857835183826101000a81548161ffff021916908361ffff1602179055509260200192600201602081600101049283019260010302613e88565b8015613ef65782816101000a81549061ffff0219169055600201602081600101049283019260010302613ec8565b505b509050613f059190613f31565b5090565b508054600082556003016004900490600052602060002090810190613f2e9190613f31565b50565b5b80821115613f4a576000816000905550600101613f32565b5090565b6000604051905090565b600080fd5b600080fd5b60007fffffffff0000000000000000000000000000000000000000000000000000000082169050919050565b613f9781613f62565b8114613fa257600080fd5b50565b600081359050613fb481613f8e565b92915050565b600060208284031215613fd057613fcf613f58565b5b6000613fde84828501613fa5565b91505092915050565b60008115159050919050565b613ffc81613fe7565b82525050565b60006020820190506140176000830184613ff3565b92915050565b600081519050919050565b600082825260208201905092915050565b60005b8381101561405757808201518184015260208101905061403c565b83811115614066576000848401525b50505050565b6000601f19601f8301169050919050565b60006140888261401d565b6140928185614028565b93506140a2818560208601614039565b6140ab8161406c565b840191505092915050565b600060208201905081810360008301526140d0818461407d565b905092915050565b6000819050919050565b6140eb816140d8565b81146140f657600080fd5b50565b600081359050614108816140e2565b92915050565b60006020828403121561412457614123613f58565b5b6000614132848285016140f9565b91505092915050565b600073ffffffffffffffffffffffffffffffffffffffff82169050919050565b60006141668261413b565b9050919050565b6141768161415b565b82525050565b6000602082019050614191600083018461416d565b92915050565b6141a08161415b565b81146141ab57600080fd5b50565b6000813590506141bd81614197565b92915050565b600080604083850312156141da576141d9613f58565b5b60006141e8858286016141ae565b92505060206141f9858286016140f9565b9150509250929050565b600080fd5b600080fd5b600080fd5b60008083601f84011261422857614227614203565b5b8235905067ffffffffffffffff81111561424557614244614208565b5b6020830191508360208202830111156142615761426061420d565b5b9250929050565b60008060006040848603121561428157614280613f58565b5b600061428f868287016140f9565b935050602084013567ffffffffffffffff8111156142b0576142af613f5d565b5b6142bc86828701614212565b92509250509250925092565b600080fd5b7f4e487b7100000000000000000000000000000000000000000000000000000000600052604160045260246000fd5b6143058261406c565b810181811067ffffffffffffffff82111715614324576143236142cd565b5b80604052505050565b6000614337613f4e565b905061434382826142fc565b919050565b600067ffffffffffffffff821115614363576143626142cd565b5b61436c8261406c565b9050602081019050919050565b82818337600083830152505050565b600061439b61439684614348565b61432d565b9050828152602081018484840111156143b7576143b66142c8565b5b6143c2848285614379565b509392505050565b600082601f8301126143df576143de614203565b5b81356143ef848260208601614388565b91505092915050565b6000806040838503121561440f5761440e613f58565b5b600061441d858286016141ae565b925050602083013567ffffffffffffffff81111561443e5761443d613f5d565b5b61444a858286016143ca565b9150509250929050565b600081519050919050565b600082825260208201905092915050565b6000819050602082019050919050565b600061ffff82169050919050565b61449781614480565b82525050565b60006144a9838361448e565b60208301905092915050565b6000602082019050919050565b60006144cd82614454565b6144d7818561445f565b93506144e283614470565b8060005b838110156145135781516144fa888261449d565b9750614505836144b5565b9250506001810190506144e6565b5085935050505092915050565b6000602082019050818103600083015261453a81846144c2565b905092915050565b60006020828403121561455857614557613f58565b5b6000614566848285016141ae565b91505092915050565b600081519050919050565b600082825260208201905092915050565b6000819050602082019050919050565b6145a4816140d8565b82525050565b60006145b6838361459b565b60208301905092915050565b6000602082019050919050565b60006145da8261456f565b6145e4818561457a565b93506145ef8361458b565b8060005b8381101561462057815161460788826145aa565b9750614612836145c2565b9250506001810190506145f3565b5085935050505092915050565b6000602082019050818103600083015261464781846145cf565b905092915050565b60008060006060848603121561466857614667613f58565b5b6000614676868287016141ae565b9350506020614687868287016141ae565b9250506040614698868287016140f9565b9150509250925092565b6146ab81613fe7565b81146146b657600080fd5b50565b6000813590506146c8816146a2565b92915050565b6000806000606084860312156146e7576146e6613f58565b5b60006146f5868287016141ae565b9350506020614706868287016140f9565b9250506040614717868287016146b9565b9150509250925092565b61472a816140d8565b82525050565b60006020820190506147456000830184614721565b92915050565b600067ffffffffffffffff82169050919050565b6147688161474b565b82525050565b60006040820190508181036000830152614788818561407d565b9050614797602083018461475f565b9392505050565b600080604083850312156147b5576147b4613f58565b5b60006147c3858286016140f9565b92505060206147d4858286016140f9565b9150509250929050565b600081519050919050565b600082825260208201905092915050565b6000819050602082019050919050565b6148138161474b565b82525050565b6000614825838361480a565b60208301905092915050565b6000602082019050919050565b6000614849826147de565b61485381856147e9565b935061485e836147fa565b8060005b8381101561488f5781516148768882614819565b975061488183614831565b925050600181019050614862565b5085935050505092915050565b600060208201905081810360008301526148b6818461483e565b905092915050565b600080604083850312156148d5576148d4613f58565b5b60006148e3858286016141ae565b92505060206148f4858286016146b9565b9150509250929050565b600067ffffffffffffffff821115614919576149186142cd565b5b6149228261406c565b9050602081019050919050565b600061494261493d846148fe565b61432d565b90508281526020810184848401111561495e5761495d6142c8565b5b614969848285614379565b509392505050565b600082601f83011261498657614985614203565b5b813561499684826020860161492f565b91505092915050565b600080600080608085870312156149b9576149b8613f58565b5b60006149c7878288016141ae565b94505060206149d8878288016141ae565b93505060406149e9878288016140f9565b925050606085013567ffffffffffffffff811115614a0a57614a09613f5d565b5b614a1687828801614971565b91505092959194509250565b600060208284031215614a3857614a37613f58565b5b6000614a46848285016146b9565b91505092915050565b614a588161474b565b8114614a6357600080fd5b50565b600081359050614a7581614a4f565b92915050565b600060208284031215614a9157614a90613f58565b5b6000614a9f84828501614a66565b91505092915050565b600082825260208201905092915050565b6000614ac48261401d565b614ace8185614aa8565b9350614ade818560208601614039565b614ae78161406c565b840191505092915050565b6000604083016000830151614b0a600086018261480a565b5060208301518482036020860152614b228282614ab9565b9150508091505092915050565b60006020820190508181036000830152614b498184614af2565b905092915050565b60008060408385031215614b6857614b67613f58565b5b6000614b76858286016141ae565b9250506020614b87858286016141ae565b9150509250929050565b6000602082019050614ba6600083018461475f565b92915050565b60008060408385031215614bc357614bc2613f58565b5b6000614bd1858286016140f9565b9250506020614be285828601614a66565b9150509250929050565b7f4e487b7100000000000000000000000000000000000000000000000000000000600052602260045260246000fd5b60006002820490506001821680614c3357607f821691505b602082108103614c4657614c45614bec565b5b50919050565b7f6e6f206d696e74696e67206973207065726d697474656420617420746869732060008201527f74696d6500000000000000000000000000000000000000000000000000000000602082015250565b6000614ca8602483614028565b9150614cb382614c4c565b604082019050919050565b60006020820190508181036000830152614cd781614c9b565b9050919050565b7f4e487b7100000000000000000000000000000000000000000000000000000000600052603260045260246000fd5b7f4e6f7420617574686f72697a656420666f72207468697320616374696f6e0000600082015250565b6000614d43601e83614028565b9150614d4e82614d0d565b602082019050919050565b60006020820190508181036000830152614d7281614d36565b9050919050565b7f4f6e6c79206f6e65207374616d70207065722061646472657373000000000000600082015250565b6000614daf601a83614028565b9150614dba82614d79565b602082019050919050565b60006020820190508181036000830152614dde81614da2565b9050919050565b7f496e73756666696369656e742066756e64732073656e7420776974682074726160008201527f6e73616374696f6e000000000000000000000000000000000000000000000000602082015250565b6000614e41602883614028565b9150614e4c82614de5565b604082019050919050565b60006020820190508181036000830152614e7081614e34565b9050919050565b7f4e487b7100000000000000000000000000000000000000000000000000000000600052601160045260246000fd5b6000614eb1826140d8565b9150614ebc836140d8565b925082821015614ecf57614ece614e77565b5b828203905092915050565b6000614ee5826140d8565b9150614ef0836140d8565b9250827fffffffffffffffffffffffffffffffffffffffffffffffffffffffffffffffff03821115614f2557614f24614e77565b5b828201905092915050565b600081905092915050565b6000614f468261401d565b614f508185614f30565b9350614f60818560208601614039565b80840191505092915050565b6000614f788285614f3b565b9150614f848284614f3b565b91508190509392505050565b7f4e487b7100000000000000000000000000000000000000000000000000000000600052603160045260246000fd5b600081519050919050565b600082825260208201905092915050565b6000614fe682614fbf565b614ff08185614fca565b9350615000818560208601614039565b6150098161406c565b840191505092915050565b6000608082019050615029600083018761416d565b615036602083018661416d565b6150436040830185614721565b81810360608301526150558184614fdb565b905095945050505050565b60008151905061506f81613f8e565b92915050565b60006020828403121561508b5761508a613f58565b5b600061509984828501615060565b91505092915050565b60008190508160005260206000209050919050565b60006020601f8301049050919050565b600082821b905092915050565b6000600883026151047fffffffffffffffffffffffffffffffffffffffffffffffffffffffffffffffff826150c7565b61510e86836150c7565b95508019841693508086168417925050509392505050565b6000819050919050565b600061514b615146615141846140d8565b615126565b6140d8565b9050919050565b6000819050919050565b61516583615130565b61517961517182615152565b8484546150d4565b825550505050565b600090565b61518e615181565b61519981848461515c565b505050565b5b818110156151bd576151b2600082615186565b60018101905061519f565b5050565b601f821115615202576151d3816150a2565b6151dc846150b7565b810160208510156151eb578190505b6151ff6151f7856150b7565b83018261519e565b50505b505050565b600082821c905092915050565b600061522560001984600802615207565b1980831691505092915050565b600061523e8383615214565b9150826002028217905092915050565b6152578261401d565b67ffffffffffffffff8111156152705761526f6142cd565b5b61527a8254614c1b565b6152858282856151c1565b600060209050601f8311600181146152b857600084156152a6578287015190505b6152b08582615232565b865550615318565b601f1984166152c6866150a2565b60005b828110156152ee578489015182556001820191506020850194506020810190506152c9565b8683101561530b5784890151615307601f891682615214565b8355505b6001600288020188555050505b50505050505056fea264697066735822122059d206025826c9ed555ff33426bb46d78d894c728fa485b2560071d960bd478864736f6c634300080f0033",
  "linkReferences": {},
  "deployedLinkReferences": {}
}