{
  "_format": "hh-sol-artifact-1",
  "contractName": "LetterboxV3",
  "sourceName": "contracts/LetterboxV3-1.sol",
  "abi": [
    {
      "inputs": [
        {
          "internalType": "string",
          "name": "name",
          "type": "string"
        },
        {
          "internalType": "string",
          "name": "symbol",
          "type": "string"
        }
      ],
      "stateMutability": "nonpayable",
      "type": "constructor"
    },
    {
      "inputs": [],
      "name": "ERC721AddressZeroIsNotaValidOwner",
      "type": "error"
    },
    {
      "inputs": [],
      "name": "ERC721ApprovalToCurrentOwner",
      "type": "error"
    },
    {
      "inputs": [],
      "name": "ERC721ApproveCallerIsNotOwnerNorApprovedForAll",
      "type": "error"
    },
    {
      "inputs": [],
      "name": "ERC721ApproveToCaller",
      "type": "error"
    },
    {
      "inputs": [],
      "name": "ERC721InvalidTokenId",
      "type": "error"
    },
    {
      "inputs": [],
      "name": "ERC721MintToTheZeroAddress",
      "type": "error"
    },
    {
      "inputs": [],
      "name": "ERC721NotApprovedOrOwner",
      "type": "error"
    },
    {
      "inputs": [],
      "name": "ERC721TokenAlreadyMinted",
      "type": "error"
    },
    {
      "inputs": [],
      "name": "ERC721TransferFromIncorrectOwner",
      "type": "error"
    },
    {
      "inputs": [],
      "name": "ERC721TransferToNonReceiverImplementer",
      "type": "error"
    },
    {
      "inputs": [],
      "name": "ERC721TransferToTheZeroAddress",
      "type": "error"
    },
    {
      "inputs": [],
      "name": "RMRKApprovalForResourcesToCurrentOwner",
      "type": "error"
    },
    {
      "inputs": [],
      "name": "RMRKApproveForResourcesCallerIsNotOwnerNorApprovedForAll",
      "type": "error"
    },
    {
      "inputs": [],
      "name": "RMRKApproveForResourcesToCaller",
      "type": "error"
    },
    {
      "inputs": [],
      "name": "RMRKBadPriorityListLength",
      "type": "error"
    },
    {
      "inputs": [],
      "name": "RMRKIndexOutOfRange",
      "type": "error"
    },
    {
      "inputs": [],
      "name": "RMRKMaxPendingResourcesReached",
      "type": "error"
    },
    {
      "inputs": [],
      "name": "RMRKNoResourceMatchingId",
      "type": "error"
    },
    {
      "inputs": [],
      "name": "RMRKNotApprovedForResourcesOrOwner",
      "type": "error"
    },
    {
      "inputs": [],
      "name": "RMRKResourceAlreadyExists",
      "type": "error"
    },
    {
      "inputs": [],
      "name": "RMRKWriteToZero",
      "type": "error"
    },
    {
      "anonymous": false,
      "inputs": [
        {
          "indexed": true,
          "internalType": "address",
          "name": "owner",
          "type": "address"
        },
        {
          "indexed": true,
          "internalType": "address",
          "name": "approved",
          "type": "address"
        },
        {
          "indexed": true,
          "internalType": "uint256",
          "name": "tokenId",
          "type": "uint256"
        }
      ],
      "name": "Approval",
      "type": "event"
    },
    {
      "anonymous": false,
      "inputs": [
        {
          "indexed": true,
          "internalType": "address",
          "name": "owner",
          "type": "address"
        },
        {
          "indexed": true,
          "internalType": "address",
          "name": "operator",
          "type": "address"
        },
        {
          "indexed": false,
          "internalType": "bool",
          "name": "approved",
          "type": "bool"
        }
      ],
      "name": "ApprovalForAll",
      "type": "event"
    },
    {
      "anonymous": false,
      "inputs": [
        {
          "indexed": true,
          "internalType": "address",
          "name": "owner",
          "type": "address"
        },
        {
          "indexed": true,
          "internalType": "address",
          "name": "operator",
          "type": "address"
        },
        {
          "indexed": false,
          "internalType": "bool",
          "name": "approved",
          "type": "bool"
        }
      ],
      "name": "ApprovalForAllForResources",
      "type": "event"
    },
    {
      "anonymous": false,
      "inputs": [
        {
          "indexed": true,
          "internalType": "address",
          "name": "owner",
          "type": "address"
        },
        {
          "indexed": true,
          "internalType": "address",
          "name": "approved",
          "type": "address"
        },
        {
          "indexed": true,
          "internalType": "uint256",
          "name": "tokenId",
          "type": "uint256"
        }
      ],
      "name": "ApprovalForResources",
      "type": "event"
    },
    {
      "anonymous": false,
      "inputs": [
        {
          "indexed": false,
          "internalType": "bool",
          "name": "paused",
          "type": "bool"
        }
      ],
      "name": "ContractPaused",
      "type": "event"
    },
    {
      "anonymous": false,
      "inputs": [],
      "name": "LetterboxCollected",
      "type": "event"
    },
    {
      "anonymous": false,
      "inputs": [
        {
          "indexed": true,
          "internalType": "uint256",
          "name": "tokenId",
          "type": "uint256"
        }
      ],
      "name": "LetterboxCreated",
      "type": "event"
    },
    {
      "anonymous": false,
      "inputs": [],
      "name": "LetterboxStamped",
      "type": "event"
    },
    {
      "anonymous": false,
      "inputs": [
        {
          "indexed": true,
          "internalType": "uint256",
          "name": "tokenId",
          "type": "uint256"
        },
        {
          "indexed": true,
          "internalType": "uint64",
          "name": "resourceId",
          "type": "uint64"
        }
      ],
      "name": "ResourceAccepted",
      "type": "event"
    },
    {
      "anonymous": false,
      "inputs": [
        {
          "indexed": true,
          "internalType": "uint256",
          "name": "tokenId",
          "type": "uint256"
        },
        {
          "indexed": true,
          "internalType": "uint64",
          "name": "resourceId",
          "type": "uint64"
        }
      ],
      "name": "ResourceAdded",
      "type": "event"
    },
    {
      "anonymous": false,
      "inputs": [
        {
          "indexed": true,
          "internalType": "uint256",
          "name": "tokenId",
          "type": "uint256"
        },
        {
          "indexed": true,
          "internalType": "uint64",
          "name": "resourceId",
          "type": "uint64"
        }
      ],
      "name": "ResourceAddedToToken",
      "type": "event"
    },
    {
      "anonymous": false,
      "inputs": [
        {
          "indexed": true,
          "internalType": "uint256",
          "name": "tokenId",
          "type": "uint256"
        },
        {
          "indexed": true,
          "internalType": "uint64",
          "name": "resourceId",
          "type": "uint64"
        },
        {
          "indexed": true,
          "internalType": "uint64",
          "name": "overwritesId",
          "type": "uint64"
        }
      ],
      "name": "ResourceOverwriteProposed",
      "type": "event"
    },
    {
      "anonymous": false,
      "inputs": [
        {
          "indexed": true,
          "internalType": "uint256",
          "name": "tokenId",
          "type": "uint256"
        },
        {
          "indexed": true,
          "internalType": "uint64",
          "name": "oldResourceId",
          "type": "uint64"
        },
        {
          "indexed": true,
          "internalType": "uint64",
          "name": "newResourceId",
          "type": "uint64"
        }
      ],
      "name": "ResourceOverwritten",
      "type": "event"
    },
    {
      "anonymous": false,
      "inputs": [
        {
          "indexed": true,
          "internalType": "uint256",
          "name": "tokenId",
          "type": "uint256"
        }
      ],
      "name": "ResourcePrioritySet",
      "type": "event"
    },
    {
      "anonymous": false,
      "inputs": [
        {
          "indexed": true,
          "internalType": "uint256",
          "name": "tokenId",
          "type": "uint256"
        },
        {
          "indexed": true,
          "internalType": "uint64",
          "name": "resourceId",
          "type": "uint64"
        }
      ],
      "name": "ResourceRejected",
      "type": "event"
    },
    {
      "anonymous": false,
      "inputs": [
        {
          "indexed": true,
          "internalType": "uint64",
          "name": "resourceId",
          "type": "uint64"
        }
      ],
      "name": "ResourceSet",
      "type": "event"
    },
    {
      "anonymous": false,
      "inputs": [
        {
          "indexed": true,
          "internalType": "uint256",
          "name": "tokenId",
          "type": "uint256"
        }
      ],
      "name": "StampCreated",
      "type": "event"
    },
    {
      "anonymous": false,
      "inputs": [
        {
          "indexed": true,
          "internalType": "address",
          "name": "from",
          "type": "address"
        },
        {
          "indexed": true,
          "internalType": "address",
          "name": "to",
          "type": "address"
        },
        {
          "indexed": true,
          "internalType": "uint256",
          "name": "tokenId",
          "type": "uint256"
        }
      ],
      "name": "Transfer",
      "type": "event"
    },
    {
      "inputs": [
        {
          "internalType": "uint256",
          "name": "tokenId",
          "type": "uint256"
        },
        {
          "internalType": "uint256",
          "name": "index",
          "type": "uint256"
        }
      ],
      "name": "acceptResource",
      "outputs": [],
      "stateMutability": "nonpayable",
      "type": "function"
    },
    {
      "inputs": [
        {
          "internalType": "address",
          "name": "to",
          "type": "address"
        },
        {
          "internalType": "uint256",
          "name": "tokenId",
          "type": "uint256"
        }
      ],
      "name": "approve",
      "outputs": [],
      "stateMutability": "nonpayable",
      "type": "function"
    },
    {
      "inputs": [
        {
          "internalType": "address",
          "name": "to",
          "type": "address"
        },
        {
          "internalType": "uint256",
          "name": "tokenId",
          "type": "uint256"
        }
      ],
      "name": "approveForResources",
      "outputs": [],
      "stateMutability": "nonpayable",
      "type": "function"
    },
    {
      "inputs": [
        {
          "internalType": "address",
          "name": "owner",
          "type": "address"
        }
      ],
      "name": "balanceOf",
      "outputs": [
        {
          "internalType": "uint256",
          "name": "",
          "type": "uint256"
        }
      ],
      "stateMutability": "view",
      "type": "function"
    },
    {
      "inputs": [],
      "name": "feeGetter",
      "outputs": [
        {
          "internalType": "uint256",
          "name": "",
          "type": "uint256"
        }
      ],
      "stateMutability": "view",
      "type": "function"
    },
    {
      "inputs": [
        {
          "internalType": "uint256",
          "name": "newMintFee_",
          "type": "uint256"
        }
      ],
      "name": "feeSetter",
      "outputs": [],
      "stateMutability": "nonpayable",
      "type": "function"
    },
    {
      "inputs": [
        {
          "internalType": "uint256",
          "name": "tokenId",
          "type": "uint256"
        }
      ],
      "name": "getActiveResourcePriorities",
      "outputs": [
        {
          "internalType": "uint16[]",
          "name": "",
          "type": "uint16[]"
        }
      ],
      "stateMutability": "view",
      "type": "function"
    },
    {
      "inputs": [
        {
          "internalType": "uint256",
          "name": "tokenId",
          "type": "uint256"
        }
      ],
      "name": "getActiveResources",
      "outputs": [
        {
          "internalType": "uint64[]",
          "name": "",
          "type": "uint64[]"
        }
      ],
      "stateMutability": "view",
      "type": "function"
    },
    {
      "inputs": [],
      "name": "getAllResources",
      "outputs": [
        {
          "internalType": "uint64[]",
          "name": "",
          "type": "uint64[]"
        }
      ],
      "stateMutability": "view",
      "type": "function"
    },
    {
      "inputs": [
        {
          "internalType": "uint256",
          "name": "tokenId",
          "type": "uint256"
        }
      ],
      "name": "getApproved",
      "outputs": [
        {
          "internalType": "address",
          "name": "",
          "type": "address"
        }
      ],
      "stateMutability": "view",
      "type": "function"
    },
    {
      "inputs": [
        {
          "internalType": "uint256",
          "name": "tokenId",
          "type": "uint256"
        }
      ],
      "name": "getApprovedForResources",
      "outputs": [
        {
          "internalType": "address",
          "name": "",
          "type": "address"
        }
      ],
      "stateMutability": "view",
      "type": "function"
    },
    {
      "inputs": [
        {
          "internalType": "string",
          "name": "url",
          "type": "string"
        }
      ],
      "name": "getLetterboxFromURL",
      "outputs": [
        {
          "internalType": "string",
          "name": "",
          "type": "string"
        },
        {
          "internalType": "uint256",
          "name": "",
          "type": "uint256"
        }
      ],
      "stateMutability": "view",
      "type": "function"
    },
    {
      "inputs": [
        {
          "internalType": "uint256",
          "name": "tokenId",
          "type": "uint256"
        }
      ],
      "name": "getPendingResources",
      "outputs": [
        {
          "internalType": "uint64[]",
          "name": "",
          "type": "uint64[]"
        }
      ],
      "stateMutability": "view",
      "type": "function"
    },
    {
      "inputs": [
        {
          "internalType": "uint64",
          "name": "resourceId",
          "type": "uint64"
        }
      ],
      "name": "getResource",
      "outputs": [
        {
          "components": [
            {
              "internalType": "uint64",
              "name": "id",
              "type": "uint64"
            },
            {
              "internalType": "string",
              "name": "metadataURI",
              "type": "string"
            }
          ],
          "internalType": "struct IRMRKMultiResource.Resource",
          "name": "",
          "type": "tuple"
        }
      ],
      "stateMutability": "view",
      "type": "function"
    },
    {
      "inputs": [
        {
          "internalType": "uint256",
          "name": "tokenId",
          "type": "uint256"
        },
        {
          "internalType": "uint64",
          "name": "resourceId",
          "type": "uint64"
        }
      ],
      "name": "getResourceOverwrites",
      "outputs": [
        {
          "internalType": "uint64",
          "name": "",
          "type": "uint64"
        }
      ],
      "stateMutability": "view",
      "type": "function"
    },
    {
      "inputs": [
        {
          "internalType": "address",
          "name": "owner",
          "type": "address"
        }
      ],
      "name": "hasStamp",
      "outputs": [
        {
          "internalType": "bool",
          "name": "",
          "type": "bool"
        }
      ],
      "stateMutability": "view",
      "type": "function"
    },
    {
      "inputs": [
        {
          "internalType": "address",
          "name": "owner",
          "type": "address"
        },
        {
          "internalType": "address",
          "name": "operator",
          "type": "address"
        }
      ],
      "name": "isApprovedForAll",
      "outputs": [
        {
          "internalType": "bool",
          "name": "",
          "type": "bool"
        }
      ],
      "stateMutability": "view",
      "type": "function"
    },
    {
      "inputs": [
        {
          "internalType": "address",
          "name": "owner",
          "type": "address"
        },
        {
          "internalType": "address",
          "name": "operator",
          "type": "address"
        }
      ],
      "name": "isApprovedForAllForResources",
      "outputs": [
        {
          "internalType": "bool",
          "name": "",
          "type": "bool"
        }
      ],
      "stateMutability": "view",
      "type": "function"
    },
    {
      "inputs": [],
      "name": "isPaused",
      "outputs": [
        {
          "internalType": "bool",
          "name": "",
          "type": "bool"
        }
      ],
      "stateMutability": "view",
      "type": "function"
    },
    {
      "inputs": [],
      "name": "letterboxList",
      "outputs": [
        {
          "internalType": "uint256[]",
          "name": "",
          "type": "uint256[]"
        }
      ],
      "stateMutability": "view",
      "type": "function"
    },
    {
      "inputs": [
        {
          "internalType": "uint256",
          "name": "letterboxTokenId",
          "type": "uint256"
        }
      ],
      "name": "letterboxMetadataURI",
      "outputs": [
        {
          "internalType": "string",
          "name": "",
          "type": "string"
        }
      ],
      "stateMutability": "view",
      "type": "function"
    },
    {
      "inputs": [
        {
          "internalType": "address",
          "name": "stampUser",
          "type": "address"
        },
        {
          "internalType": "uint256",
          "name": "letterboxTokenId",
          "type": "uint256"
        }
      ],
      "name": "letterboxToStamp",
      "outputs": [],
      "stateMutability": "nonpayable",
      "type": "function"
    },
    {
      "inputs": [],
      "name": "letterboxUrlList",
      "outputs": [
        {
          "internalType": "string[]",
          "name": "",
          "type": "string[]"
        }
      ],
      "stateMutability": "view",
      "type": "function"
    },
    {
      "inputs": [
        {
          "internalType": "address",
          "name": "owner",
          "type": "address"
        }
      ],
      "name": "letterboxesHeldBy",
      "outputs": [
        {
          "internalType": "uint256[]",
          "name": "",
          "type": "uint256[]"
        }
      ],
      "stateMutability": "view",
      "type": "function"
    },
    {
      "inputs": [
        {
          "internalType": "address",
          "name": "to_",
          "type": "address"
        },
        {
          "internalType": "string",
          "name": "url_",
          "type": "string"
        },
        {
          "internalType": "string",
          "name": "uri_",
          "type": "string"
        }
      ],
      "name": "mintLetterbox",
      "outputs": [],
      "stateMutability": "nonpayable",
      "type": "function"
    },
    {
      "inputs": [
        {
          "internalType": "address",
          "name": "to_",
          "type": "address"
        },
        {
          "internalType": "string",
          "name": "uri_",
          "type": "string"
        }
      ],
      "name": "mintStamp",
      "outputs": [],
      "stateMutability": "payable",
      "type": "function"
    },
    {
      "inputs": [],
      "name": "name",
      "outputs": [
        {
          "internalType": "string",
          "name": "",
          "type": "string"
        }
      ],
      "stateMutability": "view",
      "type": "function"
    },
    {
      "inputs": [],
      "name": "nextResourceId",
      "outputs": [
        {
          "internalType": "uint64",
          "name": "",
          "type": "uint64"
        }
      ],
      "stateMutability": "view",
      "type": "function"
    },
    {
      "inputs": [
        {
          "internalType": "uint256",
          "name": "tokenId",
          "type": "uint256"
        }
      ],
      "name": "ownerOf",
      "outputs": [
        {
          "internalType": "address",
          "name": "",
          "type": "address"
        }
      ],
      "stateMutability": "view",
      "type": "function"
    },
    {
      "inputs": [
        {
          "internalType": "bool",
          "name": "state",
          "type": "bool"
        }
      ],
      "name": "pauseContract",
      "outputs": [],
      "stateMutability": "nonpayable",
      "type": "function"
    },
    {
      "inputs": [
        {
          "internalType": "uint256",
          "name": "tokenId",
          "type": "uint256"
        }
      ],
      "name": "rejectAllResources",
      "outputs": [],
      "stateMutability": "nonpayable",
      "type": "function"
    },
    {
      "inputs": [
        {
          "internalType": "uint256",
          "name": "tokenId",
          "type": "uint256"
        },
        {
          "internalType": "uint256",
          "name": "index",
          "type": "uint256"
        }
      ],
      "name": "rejectResource",
      "outputs": [],
      "stateMutability": "nonpayable",
      "type": "function"
    },
    {
      "inputs": [
        {
          "internalType": "uint256",
          "name": "tokenId_",
          "type": "uint256"
        }
      ],
      "name": "resourceCount",
      "outputs": [
        {
          "internalType": "uint256",
          "name": "",
          "type": "uint256"
        }
      ],
      "stateMutability": "view",
      "type": "function"
    },
    {
      "inputs": [
        {
          "internalType": "address",
          "name": "from",
          "type": "address"
        },
        {
          "internalType": "address",
          "name": "to",
          "type": "address"
        },
        {
          "internalType": "uint256",
          "name": "tokenId",
          "type": "uint256"
        }
      ],
      "name": "safeTransferFrom",
      "outputs": [],
      "stateMutability": "nonpayable",
      "type": "function"
    },
    {
      "inputs": [
        {
          "internalType": "address",
          "name": "from",
          "type": "address"
        },
        {
          "internalType": "address",
          "name": "to",
          "type": "address"
        },
        {
          "internalType": "uint256",
          "name": "tokenId",
          "type": "uint256"
        },
        {
          "internalType": "bytes",
          "name": "data",
          "type": "bytes"
        }
      ],
      "name": "safeTransferFrom",
      "outputs": [],
      "stateMutability": "nonpayable",
      "type": "function"
    },
    {
      "inputs": [
        {
          "internalType": "address",
          "name": "operator",
          "type": "address"
        },
        {
          "internalType": "bool",
          "name": "approved",
          "type": "bool"
        }
      ],
      "name": "setApprovalForAll",
      "outputs": [],
      "stateMutability": "nonpayable",
      "type": "function"
    },
    {
      "inputs": [
        {
          "internalType": "address",
          "name": "operator",
          "type": "address"
        },
        {
          "internalType": "bool",
          "name": "approved",
          "type": "bool"
        }
      ],
      "name": "setApprovalForAllForResources",
      "outputs": [],
      "stateMutability": "nonpayable",
      "type": "function"
    },
    {
      "inputs": [
        {
          "internalType": "uint256",
          "name": "tokenId",
          "type": "uint256"
        },
        {
          "internalType": "uint16[]",
          "name": "priorities",
          "type": "uint16[]"
        }
      ],
      "name": "setPriority",
      "outputs": [],
      "stateMutability": "nonpayable",
      "type": "function"
    },
    {
      "inputs": [
        {
          "internalType": "address",
          "name": "owner",
          "type": "address"
        }
      ],
      "name": "stampHeldBy",
      "outputs": [
        {
          "internalType": "uint256",
          "name": "",
          "type": "uint256"
        }
      ],
      "stateMutability": "view",
      "type": "function"
    },
    {
      "inputs": [
        {
          "internalType": "address",
          "name": "owner",
          "type": "address"
        }
      ],
      "name": "stampMetadataURI",
      "outputs": [
        {
          "internalType": "string",
          "name": "",
          "type": "string"
        }
      ],
      "stateMutability": "view",
      "type": "function"
    },
    {
      "inputs": [
        {
          "internalType": "address",
          "name": "stampUser",
          "type": "address"
        },
        {
          "internalType": "uint256",
          "name": "letterboxTokenId",
          "type": "uint256"
        },
        {
          "internalType": "bool",
          "name": "accepted",
          "type": "bool"
        }
      ],
      "name": "stampToLetterbox",
      "outputs": [],
      "stateMutability": "nonpayable",
      "type": "function"
    },
    {
      "inputs": [
        {
          "internalType": "bytes4",
          "name": "interfaceId",
          "type": "bytes4"
        }
      ],
      "name": "supportsInterface",
      "outputs": [
        {
          "internalType": "bool",
          "name": "",
          "type": "bool"
        }
      ],
      "stateMutability": "view",
      "type": "function"
    },
    {
      "inputs": [],
      "name": "symbol",
      "outputs": [
        {
          "internalType": "string",
          "name": "",
          "type": "string"
        }
      ],
      "stateMutability": "view",
      "type": "function"
    },
    {
      "inputs": [
        {
          "internalType": "uint256",
          "name": "tokenId",
          "type": "uint256"
        }
      ],
      "name": "tokenURI",
      "outputs": [
        {
          "internalType": "string",
          "name": "",
          "type": "string"
        }
      ],
      "stateMutability": "view",
      "type": "function"
    },
    {
      "inputs": [
        {
          "internalType": "uint256",
          "name": "tokenId",
          "type": "uint256"
        },
        {
          "internalType": "uint256",
          "name": "index",
          "type": "uint256"
        }
      ],
      "name": "tokenURIAtIndex",
      "outputs": [
        {
          "internalType": "string",
          "name": "",
          "type": "string"
        }
      ],
      "stateMutability": "view",
      "type": "function"
    },
    {
      "inputs": [
        {
          "internalType": "address",
          "name": "from",
          "type": "address"
        },
        {
          "internalType": "address",
          "name": "to",
          "type": "address"
        },
        {
          "internalType": "uint256",
          "name": "tokenId",
          "type": "uint256"
        }
      ],
      "name": "transferFrom",
      "outputs": [],
      "stateMutability": "nonpayable",
      "type": "function"
    },
    {
      "inputs": [],
      "name": "withdraw",
      "outputs": [],
      "stateMutability": "payable",
      "type": "function"
    }
  ],
  "bytecode": "0x60806040523480156200001157600080fd5b5060405162005d7b38038062005d7b8339818101604052810190620000379190620002ac565b818181600090816200004a91906200057c565b5080600190816200005c91906200057c565b5050506000601260006101000a81548160ff02191690831515021790555033601260016101000a81548173ffffffffffffffffffffffffffffffffffffffff021916908373ffffffffffffffffffffffffffffffffffffffff1602179055506000601181905550620000da6010620000f960201b620024151760201c565b620000f1600f620000f960201b620024151760201c565b505062000663565b6001816000016000828254019250508190555050565b6000604051905090565b600080fd5b600080fd5b600080fd5b600080fd5b6000601f19601f8301169050919050565b7f4e487b7100000000000000000000000000000000000000000000000000000000600052604160045260246000fd5b62000178826200012d565b810181811067ffffffffffffffff821117156200019a57620001996200013e565b5b80604052505050565b6000620001af6200010f565b9050620001bd82826200016d565b919050565b600067ffffffffffffffff821115620001e057620001df6200013e565b5b620001eb826200012d565b9050602081019050919050565b60005b8381101562000218578082015181840152602081019050620001fb565b8381111562000228576000848401525b50505050565b6000620002456200023f84620001c2565b620001a3565b90508281526020810184848401111562000264576200026362000128565b5b62000271848285620001f8565b509392505050565b600082601f83011262000291576200029062000123565b5b8151620002a38482602086016200022e565b91505092915050565b60008060408385031215620002c657620002c562000119565b5b600083015167ffffffffffffffff811115620002e757620002e66200011e565b5b620002f58582860162000279565b925050602083015167ffffffffffffffff8111156200031957620003186200011e565b5b620003278582860162000279565b9150509250929050565b600081519050919050565b7f4e487b7100000000000000000000000000000000000000000000000000000000600052602260045260246000fd5b600060028204905060018216806200038457607f821691505b6020821081036200039a57620003996200033c565b5b50919050565b60008190508160005260206000209050919050565b60006020601f8301049050919050565b600082821b905092915050565b600060088302620004047fffffffffffffffffffffffffffffffffffffffffffffffffffffffffffffffff82620003c5565b620004108683620003c5565b95508019841693508086168417925050509392505050565b6000819050919050565b6000819050919050565b60006200045d62000457620004518462000428565b62000432565b62000428565b9050919050565b6000819050919050565b62000479836200043c565b62000491620004888262000464565b848454620003d2565b825550505050565b600090565b620004a862000499565b620004b58184846200046e565b505050565b5b81811015620004dd57620004d16000826200049e565b600181019050620004bb565b5050565b601f8211156200052c57620004f681620003a0565b6200050184620003b5565b8101602085101562000511578190505b620005296200052085620003b5565b830182620004ba565b50505b505050565b600082821c905092915050565b6000620005516000198460080262000531565b1980831691505092915050565b60006200056c83836200053e565b9150826002028217905092915050565b620005878262000331565b67ffffffffffffffff811115620005a357620005a26200013e565b5b620005af82546200036b565b620005bc828285620004e1565b600060209050601f831160018114620005f45760008415620005df578287015190505b620005eb85826200055e565b8655506200065b565b601f1984166200060486620003a0565b60005b828110156200062e5784890151825560018201915060208501945060208101905062000607565b868310156200064e57848901516200064a601f8916826200053e565b8355505b6001600288020188555050505b505050505050565b61570880620006736000396000f3fe6080604052600436106102885760003560e01c8063739817dd1161015a578063c87b56dd116100c1578063e88975701161007a578063e889757014610a55578063e985e9c514610a7e578063ed5fd0f514610abb578063efad29bf14610af8578063f64669c314610b23578063fe679c6214610b6057610288565b8063c87b56dd14610930578063cfd71cf41461096d578063daf3047714610989578063dd6433d4146109c6578063e272b892146109ef578063e2e286af14610a1857610288565b806395d89b411161011357806395d89b4114610820578063a0eaec431461084b578063a22cb46514610888578063b187bd26146108b1578063b88d4fde146108dc578063baace33e1461090557610288565b8063739817dd146106ee57806378816134146107175780637b2e40fa1461074057806387d7e3c114610769578063886d5c9e146107a6578063891141d6146107e357610288565b80633b511a41116101fe5780636352211e116101b75780636352211e146105915780636776a7ac146105ce5780636a8d2cf3146105f95780636cb330ae1461063657806370a082311461067457806373553107146106b157610288565b80633b511a41146104a45780633ccfd60b146104e1578063408fc265146104eb57806342842e0e146105145780634475eab31461053d5780635de1b4f71461056657610288565b8063135627cd11610250578063135627cd1461038457806316b1160f146103c157806322835f59146103ea57806323b872dd14610427578063250ea61b1461045057806332bea7c91461047b57610288565b806301ffc9a71461028d57806306fdde03146102ca578063081812fc146102f5578063095ea7b314610332578063096835be1461035b575b600080fd5b34801561029957600080fd5b506102b460048036038101906102af919061419d565b610b9d565b6040516102c191906141e5565b60405180910390f35b3480156102d657600080fd5b506102df610d3f565b6040516102ec9190614299565b60405180910390f35b34801561030157600080fd5b5061031c600480360381019061031791906142f1565b610dd1565b604051610329919061435f565b60405180910390f35b34801561033e57600080fd5b50610359600480360381019061035491906143a6565b610e17565b005b34801561036757600080fd5b50610382600480360381019061037d919061444b565b610f20565b005b34801561039057600080fd5b506103ab60048036038101906103a691906142f1565b610f7b565b6040516103b89190614577565b60405180910390f35b3480156103cd57600080fd5b506103e860048036038101906103e391906143a6565b61100e565b005b3480156103f657600080fd5b50610411600480360381019061040c9190614599565b6110bc565b60405161041e9190614684565b60405180910390f35b34801561043357600080fd5b5061044e600480360381019061044991906146a6565b611156565b005b34801561045c57600080fd5b50610465611171565b6040516104729190614805565b60405180910390f35b34801561048757600080fd5b506104a2600480360381019061049d9190614853565b61124a565b005b3480156104b057600080fd5b506104cb60048036038101906104c69190614599565b6112ea565b6040516104d89190614299565b60405180910390f35b6104e9611389565b005b3480156104f757600080fd5b50610512600480360381019061050d91906142f1565b6114b8565b005b34801561052057600080fd5b5061053b600480360381019061053691906146a6565b611552565b005b34801561054957600080fd5b50610564600480360381019061055f91906149d6565b611572565b005b34801561057257600080fd5b5061057b611694565b6040516105889190614a70565b60405180910390f35b34801561059d57600080fd5b506105b860048036038101906105b391906142f1565b61169e565b6040516105c5919061435f565b60405180910390f35b3480156105da57600080fd5b506105e3611746565b6040516105f09190614684565b60405180910390f35b34801561060557600080fd5b50610620600480360381019061061b91906142f1565b61179e565b60405161062d9190614299565b60405180910390f35b34801561064257600080fd5b5061065d60048036038101906106589190614a8b565b6117f2565b60405161066b929190614ad4565b60405180910390f35b34801561068057600080fd5b5061069b60048036038101906106969190614599565b61182c565b6040516106a89190614a70565b60405180910390f35b3480156106bd57600080fd5b506106d860048036038101906106d39190614599565b6118da565b6040516106e591906141e5565b60405180910390f35b3480156106fa57600080fd5b5061071560048036038101906107109190614b04565b6118fe565b005b34801561072357600080fd5b5061073e600480360381019061073991906143a6565b611917565b005b34801561074c57600080fd5b50610767600480360381019061076291906142f1565b611a20565b005b34801561077557600080fd5b50610790600480360381019061078b9190614599565b611a37565b60405161079d9190614a70565b60405180910390f35b3480156107b257600080fd5b506107cd60048036038101906107c891906142f1565b611a80565b6040516107da9190614a70565b60405180910390f35b3480156107ef57600080fd5b5061080a600480360381019061080591906142f1565b611a93565b604051610817919061435f565b60405180910390f35b34801561082c57600080fd5b50610835611ad9565b6040516108429190614299565b60405180910390f35b34801561085757600080fd5b50610872600480360381019061086d91906142f1565b611b6b565b60405161087f9190614c16565b60405180910390f35b34801561089457600080fd5b506108af60048036038101906108aa9190614c38565b611c0a565b005b3480156108bd57600080fd5b506108c6611c20565b6040516108d391906141e5565b60405180910390f35b3480156108e857600080fd5b5061090360048036038101906108fe9190614d19565b611c37565b005b34801561091157600080fd5b5061091a611c54565b6040516109279190614c16565b60405180910390f35b34801561093c57600080fd5b50610957600480360381019061095291906142f1565b611ce0565b6040516109649190614299565b60405180910390f35b61098760048036038101906109829190614d9c565b611cf4565b005b34801561099557600080fd5b506109b060048036038101906109ab9190614b04565b611e26565b6040516109bd9190614299565b60405180910390f35b3480156109d257600080fd5b506109ed60048036038101906109e89190614b04565b611e3a565b005b3480156109fb57600080fd5b50610a166004803603810190610a119190614df8565b611e53565b005b348015610a2457600080fd5b50610a3f6004803603810190610a3a9190614e51565b611f46565b604051610a4c9190614ebb565b60405180910390f35b348015610a6157600080fd5b50610a7c6004803603810190610a779190614c38565b61206a565b005b348015610a8a57600080fd5b50610aa56004803603810190610aa09190614edd565b6121d9565b604051610ab291906141e5565b60405180910390f35b348015610ac757600080fd5b50610ae26004803603810190610add9190614edd565b61226d565b604051610aef91906141e5565b60405180910390f35b348015610b0457600080fd5b50610b0d612301565b604051610b1a9190614f2c565b60405180910390f35b348015610b2f57600080fd5b50610b4a6004803603810190610b4591906142f1565b61231f565b604051610b579190614c16565b60405180910390f35b348015610b6c57600080fd5b50610b876004803603810190610b829190614f47565b6123be565b604051610b949190614f2c565b60405180910390f35b60007f01ffc9a7000000000000000000000000000000000000000000000000000000007bffffffffffffffffffffffffffffffffffffffffffffffffffffffff1916827bffffffffffffffffffffffffffffffffffffffffffffffffffffffff19161480610c6857507f80ac58cd000000000000000000000000000000000000000000000000000000007bffffffffffffffffffffffffffffffffffffffffffffffffffffffff1916827bffffffffffffffffffffffffffffffffffffffffffffffffffffffff1916145b80610cd057507f5b5e139f000000000000000000000000000000000000000000000000000000007bffffffffffffffffffffffffffffffffffffffffffffffffffffffff1916827bffffffffffffffffffffffffffffffffffffffffffffffffffffffff1916145b80610d3857507f0354d949000000000000000000000000000000000000000000000000000000007bffffffffffffffffffffffffffffffffffffffffffffffffffffffff1916827bffffffffffffffffffffffffffffffffffffffffffffffffffffffff1916145b9050919050565b606060008054610d4e90614fb6565b80601f0160208091040260200160405190810160405280929190818152602001828054610d7a90614fb6565b8015610dc75780601f10610d9c57610100808354040283529160200191610dc7565b820191906000526020600020905b815481529060010190602001808311610daa57829003601f168201915b5050505050905090565b6000610ddc8261242b565b6004600083815260200190815260200160002060009054906101000a900473ffffffffffffffffffffffffffffffffffffffff169050919050565b6000610e228261169e565b90508073ffffffffffffffffffffffffffffffffffffffff168373ffffffffffffffffffffffffffffffffffffffff1603610e89576040517f0591db6d00000000000000000000000000000000000000000000000000000000815260040160405180910390fd5b8073ffffffffffffffffffffffffffffffffffffffff16610ea861246d565b73ffffffffffffffffffffffffffffffffffffffff1614158015610eda5750610ed881610ed361246d565b6121d9565b155b15610f11576040517f982462b200000000000000000000000000000000000000000000000000000000815260040160405180910390fd5b610f1b8383612475565b505050565b82610f2a8161252e565b610f7584848480806020026020016040519081016040528093929190818152602001838360200280828437600081840152601f19601f82011690508083019250505050505050612578565b50505050565b60606009600083815260200190815260200160002080548060200260200160405190810160405280929190818152602001828054801561100257602002820191906000526020600020906000905b82829054906101000a900461ffff1661ffff1681526020019060020190602082600101049283019260010382029150808411610fc95790505b50505050509050919050565b60001515601260009054906101000a900460ff16151514611064576040517f08c379a000000000000000000000000000000000000000000000000000000000815260040161105b90615059565b60405180910390fd5b606061106f8261179e565b9050600061107c84611a37565b905061108a81836001612627565b7ff1e76e74907e2c1b8ddf3935bb1938929c417e7ab1d573f0e8910207d3c1eecc60405160405180910390a150505050565b6060601460008373ffffffffffffffffffffffffffffffffffffffff1673ffffffffffffffffffffffffffffffffffffffff16815260200190815260200160002060000180548060200260200160405190810160405280929190818152602001828054801561114a57602002820191906000526020600020905b815481526020019060010190808311611136575b50505050509050919050565b8061116081612695565b61116b8484846126df565b50505050565b60606017805480602002602001604051908101604052809291908181526020016000905b828210156112415783829060005260206000200180546111b490614fb6565b80601f01602080910402602001604051908101604052809291908181526020018280546111e090614fb6565b801561122d5780601f106112025761010080835404028352916020019161122d565b820191906000526020600020905b81548152906001019060200180831161121057829003601f168201915b505050505081526020019060010190611195565b50505050905090565b60001515601260009054906101000a900460ff161515146112a0576040517f08c379a000000000000000000000000000000000000000000000000000000000815260040161129790615059565b60405180910390fd5b60006112ab846112ea565b90506112b8838284612627565b7f6ff957fcc65b1d7aebc6f411fab5c23846ee3438db1e986a0d8dfd76d3f0006560405160405180910390a150505050565b6060600115156112f9836118da565b15150361134b57600061131361130e84611a37565b611b6b565b9050600061133b8260008151811061132e5761132d615079565b5b6020026020010151611f46565b9050806020015192505050611384565b6040518060400160405280601881526020017f5573657220646f6573206e6f742068617665207374616d70000000000000000081525090505b919050565b601260019054906101000a900473ffffffffffffffffffffffffffffffffffffffff1673ffffffffffffffffffffffffffffffffffffffff163373ffffffffffffffffffffffffffffffffffffffff1614611419576040517f08c379a0000000000000000000000000000000000000000000000000000000008152600401611410906150f4565b60405180910390fd5b60001515601260009054906101000a900460ff1615151461146f576040517f08c379a000000000000000000000000000000000000000000000000000000000815260040161146690615059565b60405180910390fd5b3373ffffffffffffffffffffffffffffffffffffffff166108fc479081150290604051600060405180830381858888f193505050501580156114b5573d6000803e3d6000fd5b50565b601260019054906101000a900473ffffffffffffffffffffffffffffffffffffffff1673ffffffffffffffffffffffffffffffffffffffff163373ffffffffffffffffffffffffffffffffffffffff1614611548576040517f08c379a000000000000000000000000000000000000000000000000000000000815260040161153f906150f4565b60405180910390fd5b8060118190555050565b61156d83838360405180602001604052806000815250611c37565b505050565b60001515601260009054906101000a900460ff161515146115c8576040517f08c379a00000000000000000000000000000000000000000000000000000000081526004016115bf90615059565b60405180910390fd5b60006115d48483612994565b90506115e084826129cd565b60138190806001815401808255809150506001900390600052602060002001600090919091909150558060168460405161161a9190615150565b9081526020016040518091039020819055506017839080600181540180825580915050600190039060005260206000200160009091909190915090816116609190615313565b50807f1295760e21ccf04055bba5b0e83640826c14972306591a284234d56a56a9886560405160405180910390a250505050565b6000601154905090565b6000806002600084815260200190815260200160002060009054906101000a900473ffffffffffffffffffffffffffffffffffffffff169050600073ffffffffffffffffffffffffffffffffffffffff168173ffffffffffffffffffffffffffffffffffffffff160361173d576040517f89ba7e1000000000000000000000000000000000000000000000000000000000815260040160405180910390fd5b80915050919050565b6060601380548060200260200160405190810160405280929190818152602001828054801561179457602002820191906000526020600020905b815481526020019060010190808311611780575b5050505050905090565b606060006117ab83611b6b565b905060006117d3826000815181106117c6576117c5615079565b5b6020026020010151611f46565b9050600080826020015183600001519150915081945050505050919050565b60606000806016846040516118079190615150565b90815260200160405180910390205490506118218161179e565b819250925050915091565b60008073ffffffffffffffffffffffffffffffffffffffff168273ffffffffffffffffffffffffffffffffffffffff1603611893576040517f7772286600000000000000000000000000000000000000000000000000000000815260040160405180910390fd5b600360008373ffffffffffffffffffffffffffffffffffffffff1673ffffffffffffffffffffffffffffffffffffffff168152602001908152602001600020549050919050565b6000806118e683611a37565b036118f457600090506118f9565b600190505b919050565b816119088161252e565b6119128383612a3a565b505050565b60006119228261169e565b90508073ffffffffffffffffffffffffffffffffffffffff168373ffffffffffffffffffffffffffffffffffffffff1603611989576040517f9efa161100000000000000000000000000000000000000000000000000000000815260040160405180910390fd5b8073ffffffffffffffffffffffffffffffffffffffff166119a861246d565b73ffffffffffffffffffffffffffffffffffffffff16141580156119da57506119d8816119d361246d565b61226d565b155b15611a11576040517fbb084cee00000000000000000000000000000000000000000000000000000000815260040160405180910390fd5b611a1b8383612d27565b505050565b80611a2a8161252e565b611a3382612de0565b5050565b6000601560008373ffffffffffffffffffffffffffffffffffffffff1673ffffffffffffffffffffffffffffffffffffffff168152602001908152602001600020549050919050565b6000611a8b82611b6b565b519050919050565b6000611a9e8261242b565b600d600083815260200190815260200160002060009054906101000a900473ffffffffffffffffffffffffffffffffffffffff169050919050565b606060018054611ae890614fb6565b80601f0160208091040260200160405190810160405280929190818152602001828054611b1490614fb6565b8015611b615780601f10611b3657610100808354040283529160200191611b61565b820191906000526020600020905b815481529060010190602001808311611b4457829003601f168201915b5050505050905090565b606060086000838152602001908152602001600020805480602002602001604051908101604052809291908181526020018280548015611bfe57602002820191906000526020600020906000905b82829054906101000a900467ffffffffffffffff1667ffffffffffffffff1681526020019060080190602082600701049283019260010382029150808411611bb95790505b50505050509050919050565b611c1c611c1561246d565b8383612f11565b5050565b6000601260009054906101000a900460ff16905090565b81611c4181612695565b611c4d85858585613074565b5050505050565b6060600c805480602002602001604051908101604052809291908181526020018280548015611cd657602002820191906000526020600020906000905b82829054906101000a900467ffffffffffffffff1667ffffffffffffffff1681526020019060080190602082600701049283019260010382029150808411611c915790505b5050505050905090565b6060611ced8260006130c7565b9050919050565b816000611d0082611a37565b14611d40576040517f08c379a0000000000000000000000000000000000000000000000000000000008152600401611d3790615431565b60405180910390fd5b60001515601260009054906101000a900460ff16151514611d96576040517f08c379a0000000000000000000000000000000000000000000000000000000008152600401611d8d90615059565b60405180910390fd5b601154341015611ddb576040517f08c379a0000000000000000000000000000000000000000000000000000000008152600401611dd2906154c3565b60405180910390fd5b6000611de78484612994565b9050611df384826131be565b807f804fac7c99b3a00cb15b885aa375c45c58c56d9fa2ad1fd73a29bf6bdc45798e60405160405180910390a250505050565b6060611e3283836130c7565b905092915050565b81611e448161252e565b611e4e8383613206565b505050565b601260019054906101000a900473ffffffffffffffffffffffffffffffffffffffff1673ffffffffffffffffffffffffffffffffffffffff163373ffffffffffffffffffffffffffffffffffffffff1614611ee3576040517f08c379a0000000000000000000000000000000000000000000000000000000008152600401611eda906150f4565b60405180910390fd5b80601260006101000a81548160ff0219169083151502179055507f752d7e161ff5146f80e3820893176eb40532811e5e20400dfdde57455213706a601260009054906101000a900460ff16604051611f3b91906141e5565b60405180910390a150565b611f4e61401e565b6000600660008467ffffffffffffffff1667ffffffffffffffff1681526020019081526020016000208054611f8290614fb6565b80601f0160208091040260200160405190810160405280929190818152602001828054611fae90614fb6565b8015611ffb5780601f10611fd057610100808354040283529160200191611ffb565b820191906000526020600020905b815481529060010190602001808311611fde57829003601f168201915b50505050509050600081510361203d576040517f48e2e83700000000000000000000000000000000000000000000000000000000815260040160405180910390fd5b600060405180604001604052808567ffffffffffffffff1681526020018381525090508092505050919050565b600061207461246d565b90508273ffffffffffffffffffffffffffffffffffffffff168173ffffffffffffffffffffffffffffffffffffffff16036120db576040517f6a78452600000000000000000000000000000000000000000000000000000000815260040160405180910390fd5b81600e60008373ffffffffffffffffffffffffffffffffffffffff1673ffffffffffffffffffffffffffffffffffffffff16815260200190815260200160002060008573ffffffffffffffffffffffffffffffffffffffff1673ffffffffffffffffffffffffffffffffffffffff16815260200190815260200160002060006101000a81548160ff0219169083151502179055508273ffffffffffffffffffffffffffffffffffffffff168173ffffffffffffffffffffffffffffffffffffffff167f9c03d4f9a8db6d81765cbe2097e83f44253564fbf3c1adfb09a8067464ad3f4b846040516121cc91906141e5565b60405180910390a3505050565b6000600560008473ffffffffffffffffffffffffffffffffffffffff1673ffffffffffffffffffffffffffffffffffffffff16815260200190815260200160002060008373ffffffffffffffffffffffffffffffffffffffff1673ffffffffffffffffffffffffffffffffffffffff16815260200190815260200160002060009054906101000a900460ff16905092915050565b6000600e60008473ffffffffffffffffffffffffffffffffffffffff1673ffffffffffffffffffffffffffffffffffffffff16815260200190815260200160002060008373ffffffffffffffffffffffffffffffffffffffff1673ffffffffffffffffffffffffffffffffffffffff16815260200190815260200160002060009054906101000a900460ff16905092915050565b60008061231661231160106133aa565b6133b8565b90508091505090565b6060600b60008381526020019081526020016000208054806020026020016040519081016040528092919081815260200182805480156123b257602002820191906000526020600020906000905b82829054906101000a900467ffffffffffffffff1667ffffffffffffffff168152602001906008019060208260070104928301926001038202915080841161236d5790505b50505050509050919050565b60006007600084815260200190815260200160002060008367ffffffffffffffff1667ffffffffffffffff16815260200190815260200160002060009054906101000a900467ffffffffffffffff16905092915050565b6001816000016000828254019250508190555050565b612434816133c2565b61246a576040517f89ba7e1000000000000000000000000000000000000000000000000000000000815260040160405180910390fd5b50565b600033905090565b816004600083815260200190815260200160002060006101000a81548173ffffffffffffffffffffffffffffffffffffffff021916908373ffffffffffffffffffffffffffffffffffffffff160217905550808273ffffffffffffffffffffffffffffffffffffffff166124e88361169e565b73ffffffffffffffffffffffffffffffffffffffff167f8c5be1e5ebec7d5bd14f71427d1e84f3dd0314c0f7b2291e5b200ac8c7c3b92560405160405180910390a45050565b61253f61253961246d565b8261342e565b612575576040517feabb6dd700000000000000000000000000000000000000000000000000000000815260040160405180910390fd5b50565b600081519050600860008481526020019081526020016000208054905081146125cd576040517f6b037c3a00000000000000000000000000000000000000000000000000000000815260040160405180910390fd5b816009600085815260200190815260200160002090805190602001906125f4929190614042565b50827f50a12ecfcaf26b91454fd23edbcf04185b68d6e8c7edc4e35d14392889cdf79560405160405180910390a2505050565b6000612631612301565b905061263c836134c3565b6126488482600061353d565b600115158215150361268f57600061265f8561231f565b9050600181511061268c5760006001825161267a9190615512565b90506126868682612a3a565b5061268d565b5b505b50505050565b6126a66126a061246d565b8261382b565b6126dc576040517f2728a9d000000000000000000000000000000000000000000000000000000000815260040160405180910390fd5b50565b8273ffffffffffffffffffffffffffffffffffffffff166126ff8261169e565b73ffffffffffffffffffffffffffffffffffffffff161461274c576040517fe146af6f00000000000000000000000000000000000000000000000000000000815260040160405180910390fd5b600073ffffffffffffffffffffffffffffffffffffffff168273ffffffffffffffffffffffffffffffffffffffff16036127b2576040517fe3d91bfc00000000000000000000000000000000000000000000000000000000815260040160405180910390fd5b6127bd8383836138c0565b6004600082815260200190815260200160002060006101000a81549073ffffffffffffffffffffffffffffffffffffffff0219169055600d600082815260200190815260200160002060006101000a81549073ffffffffffffffffffffffffffffffffffffffff02191690556001600360008573ffffffffffffffffffffffffffffffffffffffff1673ffffffffffffffffffffffffffffffffffffffff16815260200190815260200160002060008282546128799190615512565b925050819055506001600360008473ffffffffffffffffffffffffffffffffffffffff1673ffffffffffffffffffffffffffffffffffffffff16815260200190815260200160002060008282546128d09190615546565b92505081905550816002600083815260200190815260200160002060006101000a81548173ffffffffffffffffffffffffffffffffffffffff021916908373ffffffffffffffffffffffffffffffffffffffff160217905550808273ffffffffffffffffffffffffffffffffffffffff168473ffffffffffffffffffffffffffffffffffffffff167fddf252ad1be2c89b69c2b068fc378daa952ba7f163c4a11628f55a4df523b3ef60405160405180910390a461298f8383836138c5565b505050565b6000806129a1600f6133aa565b90506129ad84826138ca565b6129b981846001612627565b6129c3600f612415565b8091505092915050565b601460008373ffffffffffffffffffffffffffffffffffffffff1673ffffffffffffffffffffffffffffffffffffffff1681526020019081526020016000206000018190806001815401808255809150506001900390600052602060002001600090919091909150555050565b600b6000838152602001908152602001600020805490508110612a89576040517f0757d52100000000000000000000000000000000000000000000000000000000815260040160405180910390fd5b6000600b60008481526020019081526020016000208281548110612ab057612aaf615079565b5b90600052602060002090600491828204019190066008029054906101000a900467ffffffffffffffff169050612b0182600b60008681526020019081526020016000206138e890919063ffffffff16565b60006007600085815260200190815260200160002060008367ffffffffffffffff1667ffffffffffffffff16815260200190815260200160002060009054906101000a900467ffffffffffffffff169050600067ffffffffffffffff168167ffffffffffffffff1614612c2657612b9381600860008781526020019081526020016000206139dc90919063ffffffff16565b8167ffffffffffffffff168167ffffffffffffffff16857fcf24819d4d174cc8c6cda1f2f6bdbdcb891ef4a46c61e0bab8dc06c070de5c9e60405160405180910390a46007600085815260200190815260200160002060008367ffffffffffffffff1667ffffffffffffffff16815260200190815260200160002060006101000a81549067ffffffffffffffff02191690555b600860008581526020019081526020016000208290806001815401808255809150506001900390600052602060002090600491828204019190066008029091909190916101000a81548167ffffffffffffffff021916908367ffffffffffffffff16021790555060096000858152602001908152602001600020600090806001815401808255809150506001900390600052602060002090601091828204019190066002029091909190916101000a81548161ffff021916908361ffff1602179055508167ffffffffffffffff16847f51e9958189f528b912f96508d6a4b68583858166eda14d580dfbd24e9a79dfdb60405160405180910390a350505050565b81600d600083815260200190815260200160002060006101000a81548173ffffffffffffffffffffffffffffffffffffffff021916908373ffffffffffffffffffffffffffffffffffffffff160217905550808273ffffffffffffffffffffffffffffffffffffffff16612d9a8361169e565b73ffffffffffffffffffffffffffffffffffffffff167fa98c62723e75b26c5e5710fb12b5bf7712e6926f6dc932de622e715553f5149160405160405180910390a45050565b6000600b600083815260200190815260200160002080549050905060005b81811015612eb4576000600b60008581526020019081526020016000208281548110612e2d57612e2c615079565b5b90600052602060002090600491828204019190066008029054906101000a900467ffffffffffffffff1690506007600085815260200190815260200160002060008267ffffffffffffffff1667ffffffffffffffff16815260200190815260200160002060006101000a81549067ffffffffffffffff021916905581600101915050612dfe565b50600b60008381526020019081526020016000206000612ed491906140ec565b600067ffffffffffffffff16827f8d0cdca57de6b2fb4babd8b68c83db0b0981610d338eb68eea1f4b1e1d78dc1c60405160405180910390a35050565b8173ffffffffffffffffffffffffffffffffffffffff168373ffffffffffffffffffffffffffffffffffffffff1603612f76576040517f2dee66e400000000000000000000000000000000000000000000000000000000815260040160405180910390fd5b80600560008573ffffffffffffffffffffffffffffffffffffffff1673ffffffffffffffffffffffffffffffffffffffff16815260200190815260200160002060008473ffffffffffffffffffffffffffffffffffffffff1673ffffffffffffffffffffffffffffffffffffffff16815260200190815260200160002060006101000a81548160ff0219169083151502179055508173ffffffffffffffffffffffffffffffffffffffff168373ffffffffffffffffffffffffffffffffffffffff167f17307eab39ab6107e8899845ad3d59bd9653f200f220920489ca2b5937696c318360405161306791906141e5565b60405180910390a3505050565b61307f8484846126df565b61308b84848484613acb565b6130c1576040517fbcb5663700000000000000000000000000000000000000000000000000000000815260040160405180910390fd5b50505050565b60606130d28361242b565b60086000848152602001908152602001600020805490508210613121576040517f0757d52100000000000000000000000000000000000000000000000000000000815260040160405180910390fd5b600060086000858152602001908152602001600020838154811061314857613147615079565b5b90600052602060002090600491828204019190066008029054906101000a900467ffffffffffffffff169050600061317f82611f46565b9050600061318b613c49565b82602001516040516020016131a192919061559c565b604051602081830303815290604052905080935050505092915050565b80601560008473ffffffffffffffffffffffffffffffffffffffff1673ffffffffffffffffffffffffffffffffffffffff168152602001908152602001600020819055505050565b600b6000838152602001908152602001600020805490508110613255576040517f0757d52100000000000000000000000000000000000000000000000000000000815260040160405180910390fd5b6000600b6000848152602001908152602001600020828154811061327c5761327b615079565b5b90600052602060002090600491828204019190066008029054906101000a900467ffffffffffffffff1690506132cd82600b60008681526020019081526020016000206138e890919063ffffffff16565b6000600a600085815260200190815260200160002060008367ffffffffffffffff1667ffffffffffffffff16815260200190815260200160002060006101000a81548160ff0219169083151502179055506007600084815260200190815260200160002060008267ffffffffffffffff1667ffffffffffffffff16815260200190815260200160002060006101000a81549067ffffffffffffffff02191690558067ffffffffffffffff16837f8d0cdca57de6b2fb4babd8b68c83db0b0981610d338eb68eea1f4b1e1d78dc1c60405160405180910390a3505050565b600081600001549050919050565b6000819050919050565b60008073ffffffffffffffffffffffffffffffffffffffff166002600084815260200190815260200160002060009054906101000a900473ffffffffffffffffffffffffffffffffffffffff1673ffffffffffffffffffffffffffffffffffffffff1614159050919050565b60008061343a8361169e565b90508073ffffffffffffffffffffffffffffffffffffffff168473ffffffffffffffffffffffffffffffffffffffff16148061347c575061347b818561226d565b5b806134ba57508373ffffffffffffffffffffffffffffffffffffffff166134a284611a93565b73ffffffffffffffffffffffffffffffffffffffff16145b91505092915050565b60001515601260009054906101000a900460ff16151514613519576040517f08c379a000000000000000000000000000000000000000000000000000000000815260040161351090615059565b60405180910390fd5b6000613523612301565b905061352f8183613c60565b6135396010612415565b5050565b600a600084815260200190815260200160002060008367ffffffffffffffff1667ffffffffffffffff16815260200190815260200160002060009054906101000a900460ff16156135ba576040517f3348dd1d00000000000000000000000000000000000000000000000000000000815260040160405180910390fd5b6000600660008467ffffffffffffffff1667ffffffffffffffff16815260200190815260200160002080546135ee90614fb6565b905003613627576040517f48e2e83700000000000000000000000000000000000000000000000000000000815260040160405180910390fd5b6080600b60008581526020019081526020016000208054905010613677576040517fdfaea09b00000000000000000000000000000000000000000000000000000000815260040160405180910390fd5b6001600a600085815260200190815260200160002060008467ffffffffffffffff1667ffffffffffffffff16815260200190815260200160002060006101000a81548160ff021916908315150217905550600b60008481526020019081526020016000208290806001815401808255809150506001900390600052602060002090600491828204019190066008029091909190916101000a81548167ffffffffffffffff021916908367ffffffffffffffff160217905550600067ffffffffffffffff168167ffffffffffffffff16146137ee57806007600085815260200190815260200160002060008467ffffffffffffffff1667ffffffffffffffff16815260200190815260200160002060006101000a81548167ffffffffffffffff021916908367ffffffffffffffff1602179055508067ffffffffffffffff168267ffffffffffffffff16847fe76caab2912f68cd628bc085e006c86b8a478d13be698638b0c533030d120b4e60405160405180910390a45b8167ffffffffffffffff16837ffc4d0a03f3026d7ce3427493c9289ea9768a6edd425e854cea7600d244ecc2c360405160405180910390a3505050565b6000806138378361169e565b90508073ffffffffffffffffffffffffffffffffffffffff168473ffffffffffffffffffffffffffffffffffffffff161480613879575061387881856121d9565b5b806138b757508373ffffffffffffffffffffffffffffffffffffffff1661389f84610dd1565b73ffffffffffffffffffffffffffffffffffffffff16145b91505092915050565b505050565b505050565b6138e4828260405180602001604052806000815250613de2565b5050565b818054905081106138f857600080fd5b816001838054905061390a9190615512565b8154811061391b5761391a615079565b5b90600052602060002090600491828204019190066008029054906101000a900467ffffffffffffffff1682828154811061395857613957615079565b5b90600052602060002090600491828204019190066008026101000a81548167ffffffffffffffff021916908367ffffffffffffffff160217905550818054806139a4576139a36155c0565b5b60019003818190600052602060002090600491828204019190066008026101000a81549067ffffffffffffffff021916905590555050565b600082805480602002602001604051908101604052809291908181526020018280548015613a5d57602002820191906000526020600020906000905b82829054906101000a900467ffffffffffffffff1667ffffffffffffffff1681526020019060080190602082600701049283019260010382029150808411613a185790505b5050505050905060008151905060005b81811015613ac4578367ffffffffffffffff16838281518110613a9357613a92615079565b5b602002602001015167ffffffffffffffff1603613ab957613ab485826138e8565b613ac4565b806001019050613a6d565b5050505050565b6000613aec8473ffffffffffffffffffffffffffffffffffffffff16613e34565b15613c3c578373ffffffffffffffffffffffffffffffffffffffff1663150b7a02613b1561246d565b8786866040518563ffffffff1660e01b8152600401613b379493929190615644565b6020604051808303816000875af1925050508015613b7357506040513d601f19601f82011682018060405250810190613b7091906156a5565b60015b613bec573d8060008114613ba3576040519150601f19603f3d011682016040523d82523d6000602084013e613ba8565b606091505b506000815103613be4576040517fbcb5663700000000000000000000000000000000000000000000000000000000815260040160405180910390fd5b805181602001fd5b63150b7a0260e01b7bffffffffffffffffffffffffffffffffffffffffffffffffffffffff1916817bffffffffffffffffffffffffffffffffffffffffffffffffffffffff191614915050613c41565b600190505b949350505050565b606060405180602001604052806000815250905090565b600067ffffffffffffffff168267ffffffffffffffff1603613cae576040517f280d806300000000000000000000000000000000000000000000000000000000815260040160405180910390fd5b6000600660008467ffffffffffffffff1667ffffffffffffffff1681526020019081526020016000208054613ce290614fb6565b90501115613d1c576040517f3348dd1d00000000000000000000000000000000000000000000000000000000815260040160405180910390fd5b80600660008467ffffffffffffffff1667ffffffffffffffff1681526020019081526020016000209081613d509190615313565b50600c8290806001815401808255809150506001900390600052602060002090600491828204019190066008029091909190916101000a81548167ffffffffffffffff021916908367ffffffffffffffff1602179055508167ffffffffffffffff167f8a5ccfca4023cda4a0a59a1bb73783f6b3ba77465537d0c8f2bef5eb2511552a60405160405180910390a25050565b613dec8383613e57565b613df96000848484613acb565b613e2f576040517fbcb5663700000000000000000000000000000000000000000000000000000000815260040160405180910390fd5b505050565b6000808273ffffffffffffffffffffffffffffffffffffffff163b119050919050565b600073ffffffffffffffffffffffffffffffffffffffff168273ffffffffffffffffffffffffffffffffffffffff1603613ebd576040517f25bd6bd300000000000000000000000000000000000000000000000000000000815260040160405180910390fd5b613ec6816133c2565b15613efd576040517fc5a8d37100000000000000000000000000000000000000000000000000000000815260040160405180910390fd5b613f09600083836138c0565b6001600360008473ffffffffffffffffffffffffffffffffffffffff1673ffffffffffffffffffffffffffffffffffffffff1681526020019081526020016000206000828254613f599190615546565b92505081905550816002600083815260200190815260200160002060006101000a81548173ffffffffffffffffffffffffffffffffffffffff021916908373ffffffffffffffffffffffffffffffffffffffff160217905550808273ffffffffffffffffffffffffffffffffffffffff16600073ffffffffffffffffffffffffffffffffffffffff167fddf252ad1be2c89b69c2b068fc378daa952ba7f163c4a11628f55a4df523b3ef60405160405180910390a461401a600083836138c5565b5050565b6040518060400160405280600067ffffffffffffffff168152602001606081525090565b82805482825590600052602060002090600f016010900481019282156140db5791602002820160005b838211156140ab57835183826101000a81548161ffff021916908361ffff160217905550926020019260020160208160010104928301926001030261406b565b80156140d95782816101000a81549061ffff02191690556002016020816001010492830192600103026140ab565b505b5090506140e89190614114565b5090565b5080546000825560030160049004906000526020600020908101906141119190614114565b50565b5b8082111561412d576000816000905550600101614115565b5090565b6000604051905090565b600080fd5b600080fd5b60007fffffffff0000000000000000000000000000000000000000000000000000000082169050919050565b61417a81614145565b811461418557600080fd5b50565b60008135905061419781614171565b92915050565b6000602082840312156141b3576141b261413b565b5b60006141c184828501614188565b91505092915050565b60008115159050919050565b6141df816141ca565b82525050565b60006020820190506141fa60008301846141d6565b92915050565b600081519050919050565b600082825260208201905092915050565b60005b8381101561423a57808201518184015260208101905061421f565b83811115614249576000848401525b50505050565b6000601f19601f8301169050919050565b600061426b82614200565b614275818561420b565b935061428581856020860161421c565b61428e8161424f565b840191505092915050565b600060208201905081810360008301526142b38184614260565b905092915050565b6000819050919050565b6142ce816142bb565b81146142d957600080fd5b50565b6000813590506142eb816142c5565b92915050565b6000602082840312156143075761430661413b565b5b6000614315848285016142dc565b91505092915050565b600073ffffffffffffffffffffffffffffffffffffffff82169050919050565b60006143498261431e565b9050919050565b6143598161433e565b82525050565b60006020820190506143746000830184614350565b92915050565b6143838161433e565b811461438e57600080fd5b50565b6000813590506143a08161437a565b92915050565b600080604083850312156143bd576143bc61413b565b5b60006143cb85828601614391565b92505060206143dc858286016142dc565b9150509250929050565b600080fd5b600080fd5b600080fd5b60008083601f84011261440b5761440a6143e6565b5b8235905067ffffffffffffffff811115614428576144276143eb565b5b602083019150836020820283011115614444576144436143f0565b5b9250929050565b6000806000604084860312156144645761446361413b565b5b6000614472868287016142dc565b935050602084013567ffffffffffffffff81111561449357614492614140565b5b61449f868287016143f5565b92509250509250925092565b600081519050919050565b600082825260208201905092915050565b6000819050602082019050919050565b600061ffff82169050919050565b6144ee816144d7565b82525050565b600061450083836144e5565b60208301905092915050565b6000602082019050919050565b6000614524826144ab565b61452e81856144b6565b9350614539836144c7565b8060005b8381101561456a57815161455188826144f4565b975061455c8361450c565b92505060018101905061453d565b5085935050505092915050565b600060208201905081810360008301526145918184614519565b905092915050565b6000602082840312156145af576145ae61413b565b5b60006145bd84828501614391565b91505092915050565b600081519050919050565b600082825260208201905092915050565b6000819050602082019050919050565b6145fb816142bb565b82525050565b600061460d83836145f2565b60208301905092915050565b6000602082019050919050565b6000614631826145c6565b61463b81856145d1565b9350614646836145e2565b8060005b8381101561467757815161465e8882614601565b975061466983614619565b92505060018101905061464a565b5085935050505092915050565b6000602082019050818103600083015261469e8184614626565b905092915050565b6000806000606084860312156146bf576146be61413b565b5b60006146cd86828701614391565b93505060206146de86828701614391565b92505060406146ef868287016142dc565b9150509250925092565b600081519050919050565b600082825260208201905092915050565b6000819050602082019050919050565b600082825260208201905092915050565b600061474182614200565b61474b8185614725565b935061475b81856020860161421c565b6147648161424f565b840191505092915050565b600061477b8383614736565b905092915050565b6000602082019050919050565b600061479b826146f9565b6147a58185614704565b9350836020820285016147b785614715565b8060005b858110156147f357848403895281516147d4858261476f565b94506147df83614783565b925060208a019950506001810190506147bb565b50829750879550505050505092915050565b6000602082019050818103600083015261481f8184614790565b905092915050565b614830816141ca565b811461483b57600080fd5b50565b60008135905061484d81614827565b92915050565b60008060006060848603121561486c5761486b61413b565b5b600061487a86828701614391565b935050602061488b868287016142dc565b925050604061489c8682870161483e565b9150509250925092565b600080fd5b7f4e487b7100000000000000000000000000000000000000000000000000000000600052604160045260246000fd5b6148e38261424f565b810181811067ffffffffffffffff82111715614902576149016148ab565b5b80604052505050565b6000614915614131565b905061492182826148da565b919050565b600067ffffffffffffffff821115614941576149406148ab565b5b61494a8261424f565b9050602081019050919050565b82818337600083830152505050565b600061497961497484614926565b61490b565b905082815260208101848484011115614995576149946148a6565b5b6149a0848285614957565b509392505050565b600082601f8301126149bd576149bc6143e6565b5b81356149cd848260208601614966565b91505092915050565b6000806000606084860312156149ef576149ee61413b565b5b60006149fd86828701614391565b935050602084013567ffffffffffffffff811115614a1e57614a1d614140565b5b614a2a868287016149a8565b925050604084013567ffffffffffffffff811115614a4b57614a4a614140565b5b614a57868287016149a8565b9150509250925092565b614a6a816142bb565b82525050565b6000602082019050614a856000830184614a61565b92915050565b600060208284031215614aa157614aa061413b565b5b600082013567ffffffffffffffff811115614abf57614abe614140565b5b614acb848285016149a8565b91505092915050565b60006040820190508181036000830152614aee8185614260565b9050614afd6020830184614a61565b9392505050565b60008060408385031215614b1b57614b1a61413b565b5b6000614b29858286016142dc565b9250506020614b3a858286016142dc565b9150509250929050565b600081519050919050565b600082825260208201905092915050565b6000819050602082019050919050565b600067ffffffffffffffff82169050919050565b614b8d81614b70565b82525050565b6000614b9f8383614b84565b60208301905092915050565b6000602082019050919050565b6000614bc382614b44565b614bcd8185614b4f565b9350614bd883614b60565b8060005b83811015614c09578151614bf08882614b93565b9750614bfb83614bab565b925050600181019050614bdc565b5085935050505092915050565b60006020820190508181036000830152614c308184614bb8565b905092915050565b60008060408385031215614c4f57614c4e61413b565b5b6000614c5d85828601614391565b9250506020614c6e8582860161483e565b9150509250929050565b600067ffffffffffffffff821115614c9357614c926148ab565b5b614c9c8261424f565b9050602081019050919050565b6000614cbc614cb784614c78565b61490b565b905082815260208101848484011115614cd857614cd76148a6565b5b614ce3848285614957565b509392505050565b600082601f830112614d0057614cff6143e6565b5b8135614d10848260208601614ca9565b91505092915050565b60008060008060808587031215614d3357614d3261413b565b5b6000614d4187828801614391565b9450506020614d5287828801614391565b9350506040614d63878288016142dc565b925050606085013567ffffffffffffffff811115614d8457614d83614140565b5b614d9087828801614ceb565b91505092959194509250565b60008060408385031215614db357614db261413b565b5b6000614dc185828601614391565b925050602083013567ffffffffffffffff811115614de257614de1614140565b5b614dee858286016149a8565b9150509250929050565b600060208284031215614e0e57614e0d61413b565b5b6000614e1c8482850161483e565b91505092915050565b614e2e81614b70565b8114614e3957600080fd5b50565b600081359050614e4b81614e25565b92915050565b600060208284031215614e6757614e6661413b565b5b6000614e7584828501614e3c565b91505092915050565b6000604083016000830151614e966000860182614b84565b5060208301518482036020860152614eae8282614736565b9150508091505092915050565b60006020820190508181036000830152614ed58184614e7e565b905092915050565b60008060408385031215614ef457614ef361413b565b5b6000614f0285828601614391565b9250506020614f1385828601614391565b9150509250929050565b614f2681614b70565b82525050565b6000602082019050614f416000830184614f1d565b92915050565b60008060408385031215614f5e57614f5d61413b565b5b6000614f6c858286016142dc565b9250506020614f7d85828601614e3c565b9150509250929050565b7f4e487b7100000000000000000000000000000000000000000000000000000000600052602260045260246000fd5b60006002820490506001821680614fce57607f821691505b602082108103614fe157614fe0614f87565b5b50919050565b7f6e6f206d696e74696e67206973207065726d697474656420617420746869732060008201527f74696d6500000000000000000000000000000000000000000000000000000000602082015250565b600061504360248361420b565b915061504e82614fe7565b604082019050919050565b6000602082019050818103600083015261507281615036565b9050919050565b7f4e487b7100000000000000000000000000000000000000000000000000000000600052603260045260246000fd5b7f4e6f7420617574686f72697a656420666f72207468697320616374696f6e0000600082015250565b60006150de601e8361420b565b91506150e9826150a8565b602082019050919050565b6000602082019050818103600083015261510d816150d1565b9050919050565b600081905092915050565b600061512a82614200565b6151348185615114565b935061514481856020860161421c565b80840191505092915050565b600061515c828461511f565b915081905092915050565b60008190508160005260206000209050919050565b60006020601f8301049050919050565b600082821b905092915050565b6000600883026151c97fffffffffffffffffffffffffffffffffffffffffffffffffffffffffffffffff8261518c565b6151d3868361518c565b95508019841693508086168417925050509392505050565b6000819050919050565b600061521061520b615206846142bb565b6151eb565b6142bb565b9050919050565b6000819050919050565b61522a836151f5565b61523e61523682615217565b848454615199565b825550505050565b600090565b615253615246565b61525e818484615221565b505050565b5b818110156152825761527760008261524b565b600181019050615264565b5050565b601f8211156152c75761529881615167565b6152a18461517c565b810160208510156152b0578190505b6152c46152bc8561517c565b830182615263565b50505b505050565b600082821c905092915050565b60006152ea600019846008026152cc565b1980831691505092915050565b600061530383836152d9565b9150826002028217905092915050565b61531c82614200565b67ffffffffffffffff811115615335576153346148ab565b5b61533f8254614fb6565b61534a828285615286565b600060209050601f83116001811461537d576000841561536b578287015190505b61537585826152f7565b8655506153dd565b601f19841661538b86615167565b60005b828110156153b35784890151825560018201915060208501945060208101905061538e565b868310156153d057848901516153cc601f8916826152d9565b8355505b6001600288020188555050505b505050505050565b7f4f6e6c79206f6e65207374616d70207065722061646472657373000000000000600082015250565b600061541b601a8361420b565b9150615426826153e5565b602082019050919050565b6000602082019050818103600083015261544a8161540e565b9050919050565b7f496e73756666696369656e742066756e64732073656e7420776974682074726160008201527f6e73616374696f6e000000000000000000000000000000000000000000000000602082015250565b60006154ad60288361420b565b91506154b882615451565b604082019050919050565b600060208201905081810360008301526154dc816154a0565b9050919050565b7f4e487b7100000000000000000000000000000000000000000000000000000000600052601160045260246000fd5b600061551d826142bb565b9150615528836142bb565b92508282101561553b5761553a6154e3565b5b828203905092915050565b6000615551826142bb565b915061555c836142bb565b9250827fffffffffffffffffffffffffffffffffffffffffffffffffffffffffffffffff03821115615591576155906154e3565b5b828201905092915050565b60006155a8828561511f565b91506155b4828461511f565b91508190509392505050565b7f4e487b7100000000000000000000000000000000000000000000000000000000600052603160045260246000fd5b600081519050919050565b600082825260208201905092915050565b6000615616826155ef565b61562081856155fa565b935061563081856020860161421c565b6156398161424f565b840191505092915050565b60006080820190506156596000830187614350565b6156666020830186614350565b6156736040830185614a61565b8181036060830152615685818461560b565b905095945050505050565b60008151905061569f81614171565b92915050565b6000602082840312156156bb576156ba61413b565b5b60006156c984828501615690565b9150509291505056fea264697066735822122055608a2fcaf255fc13e42a9eed367f8565bd95afea54e714d290df2617f1af8664736f6c634300080f0033",
  "linkReferences": {},
  "deployedLinkReferences": {}
}